:100000000C9436010C9467010C9467010C94670101
:100010000C9467010C9467010C9467010C946701C0
:100020000C9467010C9467010C9467010C946701B0
:100030000C9467010C94CB080C9467010C94670135
:100040000C9467010C94FF090C9467010C946701F0
:100050000C9467010C9467010C9467010C942B09B4
:100060000C9467010C9467010C9467010C94670170
:100070000C9467010C9467010C9467010C94670160
:100080000C94D1090C9467010C9467010C946701DE
:100090000C9467010C9467010C9467010C94670140
:1000A0000C9467010C9467010C94A3090C946701EC
:1000B0000C9467010C9467010C9467010C9475090A
:1000C0000C9467010C9467010C9467010C94670110
:1000D0000C9467010C9467010C9467010C94670100
:1000E0000C9467010C9404020C94E9030C943E02F6
:1000F0000C9426030C9435020C942B020C941902D8
:100100000C940C020C94EA030C9413020C943F021E
:100110000C9423020C9443020C941D020C94B30122
:100120000C9431020C94A1020C94FE010C94270251
:100130000C9470020C94C70E0C9408020C941002DC
:100140000C94A0080C943902000021002400270020
:100150002A002D00300033000101000004010701D6
:100160000A0100002200250028002B002E0031008B
:10017000340002010000050108010B01000020000D
:100180002300260029002C002F003200000100006F
:10019000030106010901050505050705080808080A
:1001A000020202020A0A080804040404010101010F
:1001B000010101010303030303030303040707070A
:1001C0000C0C0C0C0C0C0C0C0202020206060606AF
:1001D000060606060B0B0B0B0B0B0B0B010210207C
:1001E000200808102040102040800201020108046D
:1001F0000201010204081020408080402010080401
:100200000201800402018040201008040201080459
:10021000020101020408102040800102040810209D
:10022000408000000A0B02090C0D0E0807030401B0
:1002300000000000000000000000000000000000BE
:10024000000000000000000000000000000012118B
:10025000100000000000000000000000000000008E
:1002600000000000000000000200C70E11241FBEA5
:10027000CFEFD1E2DEBFCDBF00E00CBF12E0A0E0C7
:10028000B2E0E4E9FFE100E00BBF02C007900D928D
:10029000A03DB107D9F724E0A0EDB2E001C01D9266
:1002A000A632B207E1F711E0C6E3D1E000E006C0F4
:1002B00021970109802FFE010E94C00FC533D1078D
:1002C00080E00807A9F70E942D0A0C94C80F0C942F
:1002D0000000E0917B03E03310F540917C0328E8B7
:1002E00030E0241B310947FD3395220F331F220FC5
:1002F000331F281739070CF49C0122503109220FB3
:10030000331F4FB7F8948E2F90E0FC01EE0FFF1FC4
:10031000E80FF91FE258FC4F328321834FBF089545
:1003200096E0899FD0011124A45FBC4F90967C93E6
:100330006E935F9791E091969C939197E0917903EA
:10034000F0917A0390917803992339F0309751F026
:10035000811108C0809128031994309719F05C9698
:100360008C91FACF0895AF92BF92CF92DF92EF9225
:10037000FF920F931F93CF93DF936C017B018B014F
:10038000040F151FEB015E01AE18BF08C017D1079F
:1003900059F06991D601ED91FC910190F081E02D29
:1003A000C6011995892B79F7C501DF91CF911F916E
:1003B0000F91FF90EF90DF90CF90BF90AF90089596
:1003C0008150823108F05AC0E82FF0E08827E451CC
:1003D000FE4F8F4F0C94C00F0C021002FE0104025E
:1003E00008023E02130219021D02230227022B02F9
:1003F000310235023E0239023F0243028091800001
:100400008F77809380000895809180008F7DF9CF51
:1004100080918000877FF5CF84B58F7784BD089564
:1004200084B58F7DFBCF8091B0008F778093B00033
:1004300008958091B0008F7DF9CF809190008F77E3
:10044000809390000895809190008F7DF9CF8091E6
:100450009000877FF5CF8091A0008F778093A000D8
:1004600008958091A0008F7DF9CF8091A000877FB3
:10047000F5CF809120018F7780932001089580919E
:1004800020018F7DF9CF80912001877FF5CFCF9319
:10049000DF93282F30E0F901EE5DFD4F8491F901E3
:1004A000E452FE4FD491F901EA56FE4FC491CC2399
:1004B000A1F081110E94E001EC2FF0E0EE0FFF1F90
:1004C000E458FE4FA591B491EC91ED2381E090E0CA
:1004D00009F480E0DF91CF91089580E090E0FACFB9
:1004E000862F0C9447021F93CF93DF93282F30E081
:1004F000F901EE5DFD4F8491F901E452FE4FD49174
:10050000F901EA56FE4FC491CC23A9F0162F8111B0
:100510000E94E001EC2FF0E0EE0FFF1FEE59FE4FBE
:10052000A591B4918FB7F894EC91111108C0D095B2
:10053000DE23DC938FBFDF91CF911F910895DE2BD7
:10054000F8CF862F642F0C947302909113028913B5
:100550000DC0E8E6F2E0E4919FEF90931302E230E1
:10056000E1F038F4EE2381F0E13089F060E00C94A2
:100570007302E43049F110F1E530C1F79091730056
:100580009D7F90937300F2CF10926E00EFCF909109
:100590006F009D7F90936F00E9CF909170009D7FD9
:1005A0009093700091E09093B0009091B100987F8B
:1005B00094609093B1001092B300D8CF90917100E5
:1005C0009D7F90937100D2CF909172009D7F909308
:1005D0007200CCCFCF93DF9390E0FC01E452FE4F4A
:1005E00024918A569E4FFC0184918823C9F090E0A3
:1005F000880F991FFC01E85BFE4FA591B491FC01A7
:10060000EE59FE4FC591D49161110DC09FB7F8947A
:100610008C91209582238C938881282328839FBFE7
:10062000DF91CF910895623051F49FB7F8943C91D7
:10063000822F809583238C93E8812E2BEFCF8FB769
:10064000F894EC912E2B2C938FBFEACF862F642F3A
:100650000C94EA023FB7F8948091F3029091F4026F
:10066000A091F502B091F60226B5A89B05C02F3FD8
:1006700019F00196A11DB11D3FBFBA2FA92F982FC8
:100680008827BC01CD01620F711D811D911D42E0C3
:10069000660F771F881F991F4A95D1F708958F928B
:1006A0009F92AF92BF92CF92DF92EF92FF924B0157
:1006B0005C010E942A036B017C010E942A036C19D1
:1006C0007D098E099F09683E734081059105A8F355
:1006D00021E0821A9108A108B10888EEC80E83E0D3
:1006E000D81EE11CF11C81149104A104B10429F766
:1006F000FF90EF90DF90CF90BF90AF909F908F9042
:1007000008952FB7F8946091EF027091F0028091F4
:10071000F1029091F2022FBF08950F931F93CF9390
:10072000DF93C82FD62F86E0C89FF0011124E45F25
:10073000FC4F11A2878D90A181309105F1F058F006
:1007400082309105F1F1039709F440C0DF91CF9118
:100750001F910F9108956623C9F361E070E08C2F1B
:100760000E9490010E94810360936403709365036B
:100770008093660390936703E9CF0E948103009101
:100780006403109165032091660330916703AB0108
:10079000BC01401B510B620B730B8091760390914F
:1007A0007703B0E0A0E084179507A607B70748F4E1
:1007B00062E070E08C2FDF91CF911F910F910C942C
:1007C000900163E070E0D111C1CFF4CF70E060E040
:1007D000F1CF089590E080E00895AF92BF92CF925C
:1007E000DF92EF92FF920F931F93CF93DF936B01F2
:1007F0007A01EC01C651DD4F28813CE0389F800131
:10080000399F100D1124A090E902B12C27FF1FC0C1
:10081000FB011182108288818F5F88838881980113
:10082000280F311D87FD3A95F6012A153B051CF46A
:1008300088818C30C4F180819181049680349C49F8
:1008400008F473C0F60180819181049670C088819C
:100850009801280F311D87FD3A952A153B05DCF6D6
:100860008881A801480F511D87FD5A95FA01EE0FA6
:10087000FF1FE40FF51FE258FC4F808186FFCBCFAE
:100880008881F801E80FF11D87FDFA95CF01EE0F81
:10089000FF1FE80FF91FE258FC4F808160E08F7363
:1008A0000E947302B8CF808191812881A801420FF4
:1008B000511D27FD5A959A01FA01EE0FFF1FE20F15
:1008C000F31FE258FC4F21813281820F931FF70101
:1008D0009183808388819801280F311D87FD3A9587
:1008E000F901EE0FFF1FE20FF31FE258FC4F80816A
:1008F00086FF22C08881080F111D87FD1A95F80117
:10090000EE0FFF1FE00FF11FE258FC4F808161E006
:100910008F73DF91CF911F910F91FF90EF90DF9038
:10092000CF90BF90AF900C94730280E49CE9F701E4
:10093000918380838FEF8883DF91CF911F910F91F7
:10094000FF90EF90DF90CF90BF90AF9008958F927F
:100950009F92AF92BF92CF92DF92EF92FF92CF938E
:100960006C01809113028831A9F08F3F09F466C0B1
:1009700068EC70E080E090E00E944F0388E1CF9146
:10098000FF90EF90DF90CF90BF90AF909F908F90AF
:100990000C94A502E8E6F2E0C491C7FDE9CF61E05E
:1009A00088E10E94EA02CC2319F0C23009F01AC192
:1009B0004601DD0CAA08BB0860E072E18AE790E01E
:1009C000A50194010E94590F69017A0162E17AE759
:1009D00080E090E0A50194010E94590FBA01A9019D
:1009E0004150510961097109CC2309F4B2C196E063
:1009F0004F3F51056105710579F074F0B701A6010B
:100A00009AE075956795579547959A95D1F7415016
:100A100051096109710997E08091B100887F892BA4
:100A20008093B100C23009F481C10CF078C1CC23AD
:100A300009F4A8C1C13009F09BCF04C188E18093BB
:100A40001302E8E6F2E0C4918C2FCF3F09F490CF77
:100A5000C23009F468C060F4CC2379F1C13009F4E4
:100A600044C087FD85CF61E088E10E94EA029DCF06
:100A7000C43009F499C008F478C0C53091F71092D9
:100A80002001109221018091210188608093210131
:100A900080912101816080932101EEEAF1E0E491EF
:100AA000F0E0EE0FFF1FEE59FE4F85919491E4EFB9
:100AB000F1E0E491E093D00272CF14BC15BC84B590
:100AC000826084BD85B5816085BDEEEAF1E0E49188
:100AD000F0E0EE0FFF1FEE59FE4F85919491E4EF89
:100AE000F1E0E491E093D4025ACF1092800010928A
:100AF00081008091810088608093810080918100D5
:100B0000816080938100EEEAF1E0E491F0E0EE0F85
:100B1000FF1FEE59FE4F85919491E4EFF1E0E491CF
:100B2000E093D3023CCF1092B0001092B1008091BC
:100B3000B00082608093B0008091B10081608093AA
:100B4000B100EEEAF1E0E491F0E0EE0FFF1FEE59A4
:100B5000FE4F859194919093F8028093F702E4EF11
:100B6000F1E0E491E093F9021ACF10929000109214
:100B70009100809191008860809391008091910014
:100B8000816080939100EEEAF1E0E491F0E0EE0FF5
:100B9000FF1FEE59FE4F85919491E4EFF1E0E4914F
:100BA000E093D202C3E0FBCE1092A0001092A1000D
:100BB0008091A10088608093A1008091A100816054
:100BC0008093A100EEEAF1E0E491F0E0EE0FFF1F68
:100BD000EE59FE4F85919491E4EFF1E0E491E093BA
:100BE000D102DDCE0D2C000CEE08FF0860E072E1B2
:100BF0008AE790E0A70196010E94590FBA01A90166
:100C0000415051096109710991E04115510581E097
:100C1000680771057CF068E478EE81E090E0A70158
:100C200096010E94590FBA01A90141505109610969
:100C3000710993E0C130D9F480918100887F892BBC
:100C40008093810050938900409388008FEF9FEF3D
:100C5000DC018093E1029093E202A093E302B0935F
:100C6000E40280916F00826080936F0081CEC33078
:100C7000D9F480919100887F892B809391005093C3
:100C80009900409398008FEF9FEFDC018093DD0285
:100C90009093DE02A093DF02B093E0028091710096
:100CA00082608093710064CEC430D9F48091A10039
:100CB000887F892B8093A1005093A9004093A800BE
:100CC0008FEF9FEFDC018093D9029093DA02A0931B
:100CD000DB02B093DC02809172008260809372002C
:100CE00047CEC53009F09ECE80912101887F892BA7
:100CF0008093210150932901409328018FEF9FEFAA
:100D0000DC018093D5029093D602A093D702B093D2
:100D1000D8028091730082608093730029CEC43022
:100D200059F20CF4ACCFC53029F322CE4093B30076
:100D30008FEF9FEFDC018093FA029093FB02A09368
:100D4000FC02B093FD02809170008260809370007D
:100D50000FCE94E04F3F51056105710579F074F0B5
:100D6000B701A6018AE075956795579547958A95CD
:100D7000D1F7415051096109710995E085B5887F26
:100D8000892B85BD47BD8FEF9FEFDC018093E50286
:100D90009093E602A093E702B093E80280916E0080
:100DA000826080936E00E4CD8F929F92AF92BF924B
:100DB0000F931F93CF93DF93CDB7DEB7A1970FB6F5
:100DC000F894DEBF0FBECDBF19A2423008F44AE04E
:100DD0008E010F5D1F4F842E912CB12CA12CA501EB
:100DE00094010E94830FE62FB901CA01EA3044F54D
:100DF000E05DD801EE938D01232B242B252B79F771
:100E000090E080E0109769F0FD0101900020E9F783
:100E10003197AF014A1B5B0BBD018EE094E00E944D
:100E2000B301A1960FB6F894DEBF0FBECDBFDF9120
:100E3000CF911F910F91BF90AF909F908F90089589
:100E4000E95CD7CFFC0101900020E9F73197AF01B1
:100E5000481B590BBC018EE094E00C94B301CF9376
:100E6000DF93EC0160E08E810E94730261E08E816D
:100E70000E94730260E08E810E9473028BE891E011
:100E80000197F1F7DF91CF910895CF92DF92EF9222
:100E9000FF920F931F93CF93DF936C017C0187E048
:100EA000E80EF11CD0E0C0E0062F10E0B8010C2ED7
:100EB00002C0759567950A94E2F76170F701819118
:100EC0007F010E9473022196C430D10579F7C601D3
:100ED000DF91CF911F910F91FF90EF90DF90CF9016
:100EE0000C942F07CF92DF92EF92FF920F931F93F4
:100EF000CF93DF93EC01F62E642F8C810E94730256
:100F00008D818F3F19F060E00E9473020F2D10E079
:100F10008F8584FF25C06E0187E0C80ED11CF12C9F
:100F2000E12CB8010E2C02C0759567950A94E2F782
:100F30006170F60181916F010E947302FFEFEF1A59
:100F4000FF0A88E0E816F10461F7CE01DF91CF9146
:100F50001F910F91FF90EF90DF90CF900C942F078F
:100F6000B80184E0759567958A95E1F7CE010E94F6
:100F700045076F2DCE01DF91CF911F910F91FF900B
:100F8000EF90DF90CF900C94450740E0682F8EE003
:100F900094E00C94720781E00E94C5078BE39FE107
:100FA0000197F1F7089582E390E00E94A7048CED89
:100FB00095E00E9469011092030310920A030C94B9
:100FC000CB071092050310920403109206031092AF
:100FD0000703109208031092090310920A030C945D
:100FE000CB07CF93DF93823029F490911D04986052
:100FF00090931D04809321041092220480E4809336
:10100000230480E18093240480E58093250461E03B
:10101000809112040E94EA02809113048F3F19F01C
:1010200061E00E94EA0261E0809114040E94EA02F9
:10103000CEE0D4E09E012E50344080911D0484FD0A
:101040000BC084E090E021962817390744F461E052
:101050008E810E94EA02EECF88E090E0F4CF8BE32D
:101060009DE00197F1F760E0809112040E94730205
:1010700060E0809114040E947302809113048F3FFA
:1010800019F060E00E94730280911D0484FD34C059
:1010900063E08EE094E00E944507CBE4D6E4CE0105
:1010A0000197F1F763E08EE094E00E9445072197F5
:1010B000F1F763E08EE094E00E94450783E592E05B
:1010C0000197F1F762E08EE094E00E94450780917D
:1010D0001D0480620E94C50784E080931E048CE09A
:1010E0000E94C5070E94CB0782E080931F0486E020
:1010F000DF91CF910C94C50780620E94C5078BE4F5
:1011000096E40197F1F780911D0480620E94C50763
:1011100083E592E00197F1F780911D0480620E94BF
:10112000C507D5CF90912104891710F08FEF890F53
:10113000E82FF0E0E25FFB4F848980680C94C507DC
:1011400041E00E94720781E090E00895CF92DF9223
:10115000EF92FF9297FF18C06B017C0141E06DE2B6
:101160008EE094E00E94720766277727CB016C1906
:101170007D098E099F094AE00E94D4060196FF90DE
:10118000EF90DF90CF9008954AE0FF90EF90DF90CE
:10119000CF900C94D4061F920F920FB60F92112489
:1011A0000BB60F922F933F934F935F936F937F9361
:1011B0008F939F93AF93BF93EF93FF938091FA0226
:1011C0009091FB02A091FC02B091FD02892B8A2B29
:1011D0008B2BE1F19091F902E091F702F091F80286
:1011E0008081892780838091FA029091FB02A091EF
:1011F000FC02B091FD02181619061A061B069CF493
:101200008091FA029091FB02A091FC02B091FD0244
:101210000197A109B1098093FA029093FB02A09370
:10122000FC02B093FD02FF91EF91BF91AF919F91AE
:101230008F917F916F915F914F913F912F910F907F
:101240000BBE0F900FBE0F901F9018958091130248
:101250000E94A502E8CF1F920F920FB60F921124A1
:101260002F933F938F939F93AF93BF938091EF0200
:101270009091F002A091F102B091F2023091EE0251
:1012800023E0230F2D3758F50196A11DB11D2093A2
:10129000EE028093EF029093F002A093F102B093DC
:1012A000F2028091F3029091F402A091F502B091C4
:1012B000F6020196A11DB11D8093F3029093F402F2
:1012C000A093F502B093F602BF91AF919F918F91D9
:1012D0003F912F910F900FBE0F901F90189526E809
:1012E000230F0296A11DB11DD2CF1F920F920FB6F0
:1012F0000F9211240BB60F922F933F934F935F934E
:101300006F937F938F939F93AF93BF93EF93FF93CD
:1013100048E251E064E271E090E080E00E94ED0379
:10132000FF91EF91BF91AF919F918F917F916F91BD
:101330005F914F913F912F910F900BBE0F900FBE79
:101340000F901F9018951F920F920FB60F921124B5
:101350000BB60F922F933F934F935F936F937F93AF
:101360008F939F93AF93BF93EF93FF9348EA50E01F
:1013700064EA70E083E090E00E94ED03FF91EF915A
:10138000BF91AF919F918F917F916F915F914F919D
:101390003F912F910F900BBE0F900FBE0F901F909B
:1013A00018951F920F920FB60F9211240BB60F9241
:1013B0002F933F934F935F936F937F938F939F935D
:1013C000AF93BF93EF93FF9348E950E064E970E077
:1013D00082E090E00E94ED03FF91EF91BF91AF9109
:1013E0009F918F917F916F915F914F913F912F913D
:1013F0000F900BBE0F900FBE0F901F9018951F926D
:101400000F920FB60F9211240BB60F922F933F93AA
:101410004F935F936F937F938F939F93AF93BF93FC
:10142000EF93FF9348E850E064E870E081E090E0DB
:101430000E94ED03FF91EF91BF91AF919F918F912A
:101440007F916F915F914F913F912F910F900BBEC4
:101450000F900FBE0F901F901895789484B58260FE
:1014600084BD84B5816084BD85B5826085BD85B548
:10147000816085BD80916E00816080936E001092C6
:101480008100809181008260809381008091810041
:1014900081608093810080918000816080938000D2
:1014A0008091B10084608093B1008091B000816030
:1014B0008093B00080919100826080939100809130
:1014C0009100816080939100809190008160809371
:1014D00090008091A10082608093A1008091A10082
:1014E00081608093A1008091A00081608093A00022
:1014F000809121018260809321018091210181608E
:10150000809321018091200181608093200180914E
:101510007A00846080937A0080917A008260809360
:101520007A0080917A00816080937A0080917A00BD
:10153000806880937A001092C10082E00E94F107D7
:1015400082E392E00E94220781E00E9492088AE3EF
:1015500092E00E94220760ED77E080E090E00E9438
:101560004F030E94CB0761E086E10E94EA0261E03E
:1015700087E10E94EA0261E088E10E94EA0260E0FD
:101580008AE10E94EA0280917B03803308F052C016
:1015900061E086E00E94EA0280917B03282F30E020
:1015A000F901EE0FFF1FE20FF31FE258FC4F90818D
:1015B000907C9660908310927C0310927D032CE0C7
:1015C000622F0E94B40F829FB001112430E020E00E
:1015D000AB01420F531FFA01EE0FFF1FE40FF51F7F
:1015E000E258FC4F908196FD17C02F5F3F4F2C3083
:1015F000310571F7813009F058C01092800082E007
:10160000809381001092850010928400B19A80919D
:101610006F00826080936F00E0917B038E2F90E0DB
:10162000FC01EE0FFF1FE80FF91FE258FC4F80810D
:101630008064808356E0852E68EE462E63E0562E49
:10164000612C712C72E0272E312C11E0109378035D
:101650000E948103C0906803D0906903E0906A0300
:10166000F0906B03AB01BC014C195D096E097F0959
:101670008091740390917503B0E0A0E08417950702
:10168000A607B70708F06FC2C0E080917203C817C1
:10169000C0F5E0916E03F0916F03EC0FF11D62E075
:1016A00080810E94EA02CF5FF0CF823061F4109215
:1016B000900080939100109295001092940088BB46
:1016C00080937100A9CF833069F41092A00082E06A
:1016D0008093A1001092A5001092A40089BB809372
:1016E00072009ACF811198CF1092200182E08093EE
:1016F000210110922501109224018ABB809373006E
:101700008BCF00E080917303081708F061C0E02ED2
:10171000F12CE0917003F0917103EE0DFF1D61E07B
:1017200080810E94EA02E0917003F0917103EE0D56
:10173000FF1D60E080810E94730281E090E0A0E0E4
:10174000B0E0002E04C0880F991FAA1FBB1F0A9487
:10175000D2F75C016C01C094D094912C80917203FB
:101760009816F8F4C92DD0E0E0916E03F0916F0364
:10177000EC0FFD1F80810E9447022496CC0FDD1FD5
:10178000C45FDC4F892B41F4888199818A299B2988
:10179000998388839394E2CF888199818C219D21BC
:1017A000F7CFE0917003F0917103EE0DFF1D61E042
:1017B00080810E9473028091700390917103E80E02
:1017C000F91E60E0F70180810E94EA020F5F9ACF64
:1017D0003CE0E32E33E0F32EE7018F8D98A1892BB7
:1017E00031F41C8E2FEF3FEF3E8F2D8F19A22696DE
:1017F00033E0C834D30789F700E0809172030817FB
:1018000008F052C0D12C802F90E0880F991FAC01B6
:101810004C5E5C4F5A0140917303D41608F042C0ED
:10182000F501608171810D2C02C0769567950A944F
:10183000E2F7049FA00111244D0D511DECE0F3E0EF
:1018400080E0258D368D4217530709F49EC28F5FC5
:1018500036968A30B1F760FF23C0ECE0F3E090E009
:1018600080E0248D211117C0E0916C03F0916D038D
:10187000E40FF51F2081889EF001899EF00D112450
:10188000E45FFC4F248F568F458F10A2178E61E0C6
:101890000E948D0305C0019636968A30910509F79E
:1018A000D394B9CF0F5FA9CF00E0F70181A18111D7
:1018B000082FF6E0EF0EF11CCE15DF05B1F70E9400
:1018C0008103609368037093690380936A03909324
:1018D0006B03002309F447C180912D03882309F489
:1018E00042C180912B0390912C03019709F03BC1D9
:1018F000C0912803C0930B03C1113AC18AE10E9431
:101900004702019739F48091030381110E94D307A4
:1019100010920A038BE10E944702EC01019771F4D7
:101920000E94CB071092060310920703109208033F
:1019300010920903D0930503C09304038CE10E9425
:101940004702019771F40E94CB0710920603109290
:1019500007031092080310920903309205032092A6
:101960000403809103038823F9F00E948103AB01F3
:10197000BC018091FF0290910003A0910103B091FE
:101980000203C0901802D0901902E0901A02F09061
:101990001B028C0D9D1DAE1DBF1D481759076A0700
:1019A0007B0710F00E94D3078091040390910503F8
:1019B000892B09F08CC080E00E94920880910A0374
:1019C00081110AC06091060370910703809108039A
:1019D000909109030E94A60880910A03882391F13F
:1019E0004091060350910703609108037091090329
:1019F0008091140290911502A0911602B0911702E5
:101A0000481759076A077B0709F0F8C088E492E095
:101A10000E94220780910303811119C088EC90E095
:101A20000E94A70488EE93E00E94690110930303CB
:101A30000E9481036093FF0270930003809301036F
:101A40009093020380910303882309F4DCC061E0D2
:101A500087E10E94730260E086E10E94730281E0E8
:101A60000E94920880E692E00E942207C090FF0246
:101A7000D0900003E0900103F090020380911802DF
:101A800090911902A0911A02B0911B02C80ED91EA2
:101A9000EA1EFB1E0E94810338EEC30E33E0D31E04
:101AA000E11CF11CA7019601261B370B480B590BB3
:101AB000CA01B901A30192010E94830FCA01B901B1
:101AC0004AE00E94D4068AE692E00E9422078091B2
:101AD0000403909105030197E1F480E00E949208CD
:101AE0008091FE028111BEC08BE792E00E94220726
:101AF00081E00E94920820910A0360910603709190
:101B00000703809108039091090321118AC00E9464
:101B1000A60880910403909105030297E1F480E008
:101B20000E9492088091FE028111F5C08BE792E03D
:101B30000E94220781E00E94920820910A0360918E
:101B40000603709107038091080390910903211106
:101B5000C1C00E94A60840E050E0452B09F476CDB4
:101B60000E94000072CD1092780310920B03C6CE33
:101B70000E94CB07C33251F4109206031092070360
:101B8000109208031092090310920A0380ED8C0F43
:101B90008A3070F5209106033091070340910803C5
:101BA00050910903AAE0B0E00E94780FAB01BC019C
:101BB0004F3F29EC52072AE962072BE372070CF02A
:101BC0009DCE8C2FCC0F990BC097092E000CAA0B21
:101BD000BB0B840F951FA61FB71F8093060390931E
:101BE0000703A0930803B093090310920A0386CE5B
:101BF000CA3209F083CE10930A0380CE81E592E0C9
:101C00000E9422071FCF60E087E10E94730261E01B
:101C100086E10E94730281E00E9492088FE692E0C2
:101C200054CFC0901402D0901502E0901602F090AC
:101C300017026C157D058E059F0579F41093FE0241
:101C40000E94CB071092060310920703109208031C
:101C50001092090310920A035CCF8AE892E00E9476
:101C6000220757CF89E992E00E94220781E00E9473
:101C70009208609106037091070380910803909188
:101C800009030E94A60880910A03882309F441CF22
:101C90008091060390910703A0910803B091090376
:101CA0008093140290931502A0931602B09317022A
:101CB00081E00E94920884EA92E00E94220768EE86
:101CC00073E080E090E00E944F030E94E1071092D1
:101CD000FE021FCFC0901402D0901502E0901602B1
:101CE000F09017026C157D058E059F0579F4109311
:101CF000FE020E94CB071092060310920703109277
:101D000008031092090310920A0325CF8AE892E093
:101D10000E94220720CF81EB92E00E94220781E0FF
:101D20000E94920860910603709107038091080356
:101D3000909109030E94A60880910A03882309F460
:101D40000ACF209106033091070340910803509178
:101D50000903A8EEB3E00E94780F60931802709315
:101D6000190280931A0290931B0281E00E9492084C
:101D700080EC92E00E94220768EE73E080E090E041
:101D80000E944F030E94E107E6CE617081CD8091F1
:101D9000E902803308F089C091E0980F9093E9023E
:101DA00080937B0390E0FC01EE0FFF1FE80FF91F0B
:101DB000E258FC4F88EB9BE09283818310920E03E4
:101DC0001092120310921103109213038CE292E00E
:101DD00090930D0380930C03E8E2F3E010821482E9
:101DE00013821582369683E0E436F807B9F783E06C
:101DF00092E090936F0380936E0380E092E0909363
:101E000071038093700384E08093720383E0809376
:101E1000730387E092E090936D0380936C038AE0F4
:101E200090E0909375038093740384EF91E0909316
:101E300077038093760310927A03109279031092BD
:101E400068031092690310926A0310926B03109258
:101E50007803109211041092100480E292E09093A3
:101E60000F0480930E0488E0809312048FEF809318
:101E7000130489E0809314048AE0809315048BE0B6
:101E8000809316048CE0809317048DE080931804EF
:101E90001092190410921A0410921B0410921C0440
:101EA00010921D0481E00C94F1078FEF80937B0367
:101EB00085CF052E97FB1EF400940E94700F57FDEE
:101EC00007D00E94830F07FC03D04EF40C94700FD0
:101ED00050954095309521953F4F4F4F5F4F089556
:101EE00090958095709561957F4F8F4F9F4F089586
:101EF0000E94A50FA59F900DB49F900DA49F800DEB
:101F0000911D11240895A1E21A2EAA1BBB1BFD01ED
:101F10000DC0AA1FBB1FEE1FFF1FA217B307E407C8
:101F2000F50720F0A21BB30BE40BF50B661F771F20
:101F3000881F991F1A9469F7609570958095909500
:101F40009B01AC01BD01CF010895A29FB001B39FD9
:101F5000C001A39F700D811D1124911DB29F700DB2
:101F6000811D1124911D0895991B79E004C0991FCA
:101F7000961708F0961B881F7A95C9F780950895E3
:101F8000EE0FFF1F881F8BBF0790F691E02D19946D
:041F9000F894FFCFF3
:101F94001213140E0F1011313233343536373839E9
:101FA4002A3023FF7B00000088130000000000009B
:101FB400A008B301EA03E903000000002603A1021C
:101FC400700253616665426F780048617373616E95
:101FD400204B617A656D6900436F72726563742189
:101FE4000057726F6E672050617373776F7264006D
:101FF400636C6F736520696E20002073656300490C
:1020040074277320636C6F73656400437572726523
:102014006E7420706173733A200057726F6E67207C
:1020240070617373776F7264004E657720706173AB
:10203400733A200050617373204368616E6765646E
:102044000074696D656F757428736563293A20009F
:1020540074696D656F7574204368616E67656400AB
:00000001FF
