:100000000C9435010C9466010C9466010C94660105
:100010000C9466010C9466010C9466010C946601C4
:100020000C9466010C9466010C9466010C946601B4
:100030000C9466010C9466010C9466010C946601A4
:100040000C9466010C943C060C9466010C946601B9
:100050000C9466010C9466010C9466010C9468057E
:100060000C9466010C9466010C9466010C94660174
:100070000C9466010C9466010C9466010C94660164
:100080000C940E060C9466010C9466010C946601A7
:100090000C9466010C9466010C9466010C94660144
:1000A0000C9466010C9466010C94E0050C946601B6
:1000B0000C9466010C9466010C9466010C94B205D4
:1000C0000C9466010C9466010C9466010C94660114
:1000D0000C9466010C9466010C9466010C94660104
:1000E0000C9466010C946F020C9465020C948B02C4
:1000F0000C9486020C9446020C94E9020C9462055E
:100100000C9461020C9481020C9473020C947D0295
:100110000C94B8020C9450020C944C020C9479028A
:100120000C9454020C9452030C9487020C94FB011F
:100130000C9453030C945B020C94EF090C946B0227
:100140000C9429030C94580200002100240027007D
:100150002A002D00300033000101000004010701D6
:100160000A0100002200250028002B002E0031008B
:10017000340002010000050108010B01000020000D
:100180002300260029002C002F003200000100006F
:10019000030106010901050505050705080808080A
:1001A000020202020A0A080804040404010101010F
:1001B000010101010303030303030303040707070A
:1001C0000C0C0C0C0C0C0C0C0202020206060606AF
:1001D000060606060B0B0B0B0B0B0B0B010210207C
:1001E000200808102040102040800201020108046D
:1001F0000201010204081020408080402010080401
:100200000201800402018040201008040201080459
:10021000020101020408102040800102040810209D
:10022000408000000A0B02090C0D0E0807030401B0
:1002300000000000000000000000000000000000BE
:10024000000000000000000000000000000012118B
:10025000100000000000000000000000000000008E
:100260000000000000000000EF0911241FBECFEFC6
:10027000D1E2DEBFCDBF00E00CBF12E0A0E0B2E0F3
:10028000E4EEF5E100E00BBF02C007900D92A83448
:10029000B107D9F723E0A8E4B2E001C01D92A63768
:1002A000B207E1F711E0C5E3D1E000E006C0219715
:1002B0000109802FFE010E94E80AC433D10780E0C3
:1002C0000807A9F70E946A060C94F00A0C94000033
:1002D00096E0899FD0011124A151BD4F90967C9347
:1002E0006E935F9791E091969C939197E0915C0358
:1002F000F0915D0390915B03992339F0309751F0B1
:10030000811108C080910B031994309719F05C9605
:100310008C91FACF0895CF92DF92EF92FF920F93D4
:100320001F9396E0899FF0011124E151FD4F11A226
:10033000278D30A12130310551F178F0223031057F
:1003400009F451C02330310509F452C01F910F91B7
:10035000FF90EF90DF90CF9008956623B9F361E0AE
:1003600070E00E9468012FB7F8948091EB029091A1
:10037000EC02A091ED02B091EE022FBF80934703F3
:1003800090934803A0934903B0934A03DFCF9FB7EC
:10039000F894C090EB02D090EC02E090ED02F09067
:1003A000EE029FBF0091470310914803209149033B
:1003B00030914A03C01AD10AE20AF30A00915903A4
:1003C00010915A0330E020E00C151D052E053F0565
:1003D00050F462E070E01F910F91FF90EF90DF907A
:1003E000CF900C9468016111B1CF63E070E0F3CF5E
:1003F00070E060E0F0CFAF92BF92CF92DF92EF92C9
:10040000FF920F931F93CF93DF936C017B018B01BE
:10041000040F151FEB015E01AE18BF08C017D1070E
:1004200059F06991D601ED91FC910190F081E02D98
:10043000C6011995892B79F7C501DF91CF911F91DD
:100440000F91FF90EF90DF90CF90BF90AF90089505
:100450008150823108F05AC0E82FF0E08827EC5C28
:10046000FD4F8F4F0C94E80A5402580246024C028A
:10047000500286025B02610265026B026F02730228
:1004800079027D028602810287028B0280918000C0
:100490008F77809380000895809180008F7DF9CFC1
:1004A00080918000877FF5CF84B58F7784BD0895D4
:1004B00084B58F7DFBCF8091B0008F778093B000A3
:1004C00008958091B0008F7DF9CF809190008F7753
:1004D000809390000895809190008F7DF9CF809156
:1004E0009000877FF5CF8091A0008F778093A00048
:1004F00008958091A0008F7DF9CF8091A000877F23
:10050000F5CF809120018F7780932001089580910D
:1005100020018F7DF9CF80912001877FF5CFCF9388
:10052000DF93282F30E0F901EE5DFD4F8491F90152
:10053000E452FE4FD491F901EA56FE4FC491CC2308
:10054000A1F081110E942802EC2FF0E0EE0FFF1FB6
:10055000E458FE4FA591B491EC91ED2381E090E039
:1005600009F480E0DF91CF91089580E090E0FACF28
:10057000862F0C948F021F93CF93DF93282F30E0A8
:10058000F901EE5DFD4F8491F901E452FE4FD491E3
:10059000F901EA56FE4FC491CC23A9F0162F811120
:1005A0000E942802EC2FF0E0EE0FFF1FEE59FE4FE5
:1005B000A591B4918FB7F894EC91111108C0D09522
:1005C000DE23DC938FBFDF91CF911F910895DE2B47
:1005D000F8CF862F642F0C94BB02CF93DF9390E06B
:1005E000FC01E452FE4F24918A569E4FFC018491F7
:1005F0008823C9F090E0880F991FFC01E85BFE4F4B
:10060000A591B491FC01EE59FE4FC591D4916111B1
:100610000DC09FB7F8948C91209582238C9388818C
:10062000282328839FBFDF91CF910895623051F432
:100630009FB7F8943C91822F809583238C93E88117
:100640002E2BEFCF8FB7F894EC912E2B2C938FBFDE
:10065000EACF862F642F0C94ED023FB7F894809177
:100660004E0290914F02A0915002B091510226B5D6
:10067000A89B05C02F3F19F00196A11DB11D3FBFDA
:10068000BA2FA92F982F8827BC01CD01620F711DA9
:10069000811D911D42E0660F771F881F991F4A95A3
:1006A000D1F70895089590E080E00895AF92BF9249
:1006B000CF92DF92EF92FF920F931F93CF93DF932E
:1006C0006B017A01EC01C75BDD4F28813CE0389F6C
:1006D0008001399F100D1124A0904802B12C27FFF2
:1006E0001FC0FB011182108288818F5F88838881FF
:1006F0009801280F311D87FD3A95F6012A153B0513
:100700001CF488818C30C4F18081918104968034FE
:100710009C4908F473C0F60180819181049670C0F1
:1007200088819801280F311D87FD3A952A153B05D0
:10073000DCF68881A801480F511D87FD5A95FA0102
:10074000EE0FFF1FE40FF51FEE5AFD4F808186FF6D
:10075000CBCF8881F801E80FF11D87FDFA95CF0115
:10076000EE0FFF1FE80FF91FEE5AFD4F808160E08A
:100770008F730E94BB02B8CF808191812881A8012C
:10078000420F511D27FD5A959A01FA01EE0FFF1FE6
:10079000E20FF31FEE5AFD4F21813281820F931F2A
:1007A000F7019183808388819801280F311D87FD8F
:1007B0003A95F901EE0FFF1FE20FF31FEE5AFD4FBE
:1007C000808186FF22C08881080F111D87FD1A9540
:1007D000F801EE0FFF1FE00FF11FEE5AFD4F808171
:1007E00061E08F73DF91CF911F910F91FF90EF9098
:1007F000DF90CF90BF90AF900C94BB0280E49CE957
:10080000F701918380838FEF8883DF91CF911F91D0
:100810000F91FF90EF90DF90CF90BF90AF90089531
:10082000FC0101900020E9F73197AF01481B590BFB
:10083000BC018EE593E00C94FB01CF93DF93EC01B8
:1008400060E08E810E94BB0261E08E810E94BB024B
:1008500060E08E810E94BB028BE891E00197F1F786
:10086000DF91CF910895CF92DF92EF92FF920F9395
:100870001F93CF93DF936C017C0187E0E80EF11C9E
:10088000D0E0C0E0062F10E0B8010C2E02C0759534
:1008900067950A94E2F76170F70181917F010E94E8
:1008A000BB022196C430D10579F7C601DF91CF9103
:1008B0001F910F91FF90EF90DF90CF900C941D044B
:1008C000CF92DF92EF92FF920F931F93CF93DF931C
:1008D000EC01F62E642F8C810E94BB028D818F3F2C
:1008E00019F060E00E94BB020F2D10E08F8584FF9D
:1008F00025C06E0187E0C80ED11CF12CE12CB80197
:100900000E2C02C0759567950A94E2F76170F601A6
:1009100081916F010E94BB02FFEFEF1AFF0A88E08E
:10092000E816F10461F7CE01DF91CF911F910F918D
:10093000FF90EF90DF90CF900C941D04B80184E0FD
:10094000759567958A95E1F7CE010E9433046F2D66
:10095000CE01DF91CF911F910F91FF90EF90DF902B
:10096000CF900C94330440E0682F8EE593E00C9414
:10097000600481E00E94B3048BE39FE10197F1F7EB
:100980000895CF93DF93823029F490916D0398609E
:1009900090936D03809371031092720380E48093AF
:1009A000730380E18093740380E58093750361E0B5
:1009B000809162030E94ED02809163038F3F19F0E2
:1009C00061E00E94ED0261E0809164030E94ED020B
:1009D000CEE5D3E09E012E55334080916D0384FD1A
:1009E0000BC084E090E021962817390744F461E0B9
:1009F0008E810E94ED02EECF88E090E0F4CF8BE391
:100A00009DE00197F1F760E0809162030E94BB02D4
:100A100060E0809164030E94BB02809163038F3F7A
:100A200019F060E00E94BB0280916D0384FD34C028
:100A300063E08EE593E00E943304CBE4D6E4CE017C
:100A40000197F1F763E08EE593E00E94330421976C
:100A5000F1F763E08EE593E00E94330483E592E0D2
:100A60000197F1F762E08EE593E00E9433048091F4
:100A70006D0380620E94B30484E080936E038CE077
:100A80000E94B3040E94B90482E080936F0386E061
:100A9000DF91CF910C94B30480620E94B3048BE485
:100AA00096E40197F1F780916D0380620E94B30490
:100AB00083E592E00197F1F780916D0380620E94D7
:100AC000B304D5CF41E00E94600481E090E0089536
:100AD0001F920F920FB60F9211242F933F938F9373
:100AE0009F93AF93BF938091EB029091EC02A09102
:100AF000ED02B091EE0230914D0223E0230F2D372D
:100B000058F50196A11DB11D20934D028093EB0273
:100B10009093EC02A093ED02B093EE0280914E020E
:100B200090914F02A0915002B09151020196A11DE7
:100B3000B11D80934E0290934F02A0935002B09348
:100B40005102BF91AF919F918F913F912F910F9043
:100B50000FBE0F901F90189526E8230F0296A11D37
:100B6000B11DD2CF1F920F920FB60F9211240BB668
:100B70000F922F933F934F935F936F937F938F9336
:100B80009F93AF93BF93EF93FF9348E251E064E2EA
:100B900071E090E080E00E945603FF91EF91BF91D9
:100BA000AF919F918F917F916F915F914F913F9105
:100BB0002F910F900BBE0F900FBE0F901F901895A6
:100BC0001F920F920FB60F9211240BB60F922F9314
:100BD0003F934F935F936F937F938F939F93AF93C5
:100BE000BF93EF93FF9348EA50E064EA70E083E03C
:100BF00090E00E945603FF91EF91BF91AF919F91BA
:100C00008F917F916F915F914F913F912F910F90B5
:100C10000BBE0F900FBE0F901F9018951F920F9252
:100C20000FB60F9211240BB60F922F933F934F9351
:100C30005F936F937F938F939F93AF93BF93EF9344
:100C4000FF9348E950E064E970E082E090E00E94A0
:100C50005603FF91EF91BF91AF919F918F917F913B
:100C60006F915F914F913F912F910F900BBE0F901D
:100C70000FBE0F901F9018951F920F920FB60F92F4
:100C800011240BB60F922F933F934F935F936F9363
:100C90007F938F939F93AF93BF93EF93FF9348E816
:100CA00050E064E870E081E090E00E945603FF911C
:100CB000EF91BF91AF919F918F917F916F915F91D4
:100CC0004F913F912F910F900BBE0F900FBE0F9041
:100CD0001F901895CF93DF93CDB7DEB7A1970FB6CE
:100CE000F894DEBF0FBECDBF789484B5826084BD1A
:100CF00084B5816084BD85B5826085BD85B5816020
:100D000085BD80916E00816080936E00109281009D
:100D10008091810082608093810080918100816058
:100D20008093810080918000816080938000809119
:100D3000B10084608093B1008091B00081608093A5
:100D4000B000809191008260809391008091910029
:100D500081608093910080919000816080939000E9
:100D60008091A10082608093A1008091A1008160A8
:100D70008093A1008091A00081608093A000809169
:100D80002101826080932101809121018160809303
:100D900021018091200181608093200180917A005F
:100DA000846080937A0080917A00826080937A00D8
:100DB00080917A00816080937A0080917A008068C7
:100DC00080937A001092C10082E00E94C1048EE2FA
:100DD00092E00E941004E0917103E23008F0CAC072
:100DE000E150F0E0E25AFC4F848980680E94B3042D
:100DF0008AE392E00E9410040E942D034B015C01E3
:100E000050EDC52E57E0D52EE12CF12C0E942D037C
:100E1000681979098A099B09683E73408105910523
:100E2000A8F321E0C21AD108E108F10838EE830ED8
:100E300033E0931EA11CB11CC114D104E104F104E0
:100E400029F70E94B9048091E202803308F052C071
:100E500061E086E00E94ED028091E202282F30E0FE
:100E6000F901EE0FFF1FE20FF31FEE5AFD4F9081C5
:100E7000907C966090831092E3021092E4022CE042
:100E8000622F0E94DC0A829FB001112430E020E032
:100E9000AB01420F531FFA01EE0FFF1FE40FF51FC6
:100EA000EE5AFD4F908196FD17C02F5F3F4F2C30BB
:100EB000310571F7813009F05FC01092800082E047
:100EC000809381001092850010928400B19A8091E5
:100ED0006F00826080936F00E091E2028E2F90E0BD
:100EE000FC01EE0FFF1FE80FF91FEE5AFD4F808146
:100EF00080648083BBE22B2EB3E03B2E1AE0412EB0
:100F0000512C612C712C81E080935B038FB7F89496
:100F10004091EB025091EC026091ED027091EE0273
:100F20008FBF80914B0390914C03A0914D03B091E2
:100F30004E03481B590B6A0B7B0B80915703909112
:100F40005803B0E0A0E084179507A607B70708F09C
:100F5000E4C110E0809155031817D0F5E0915103DA
:100F6000F0915203E10FF11D62E080810E94ED02D9
:100F70001F5FF0CFE1E035CF823061F41092900036
:100F800080939100109295001092940088BB8093FA
:100F90007100A2CF833069F41092A00082E08093A8
:100FA000A1001092A5001092A40089BB809372004A
:100FB00093CF811191CF1092200182E08093210183
:100FC00010922501109224018ABB8093730084CF74
:100FD000F12C80915603F81608F063C0CF2CD12C69
:100FE000E0915303F0915403EC0DFD1D61E080810D
:100FF0000E94ED02E0915303F0915403EC0DFD1DAE
:1010000060E080810E94BB0281E090E0A0E0B0E05F
:101010000F2C04C0880F991FAA1FBB1F0A94D2F778
:101020004C015C01A094B094E12C80915503E8162A
:1010300008F50E2D10E0E0915103F0915203E00FFE
:10104000F11F80810E948F020C5F1F4F000F111F44
:10105000F801E151FD4F892B41F48081918188296C
:10106000992991838083E394E0CF808191818A21C3
:101070009B21F7CFE0915303F0915403EC0DFD1D3C
:1010800061E080810E94BB028091530390915403E0
:10109000C80ED91E60E0F60180810E94ED02F39433
:1010A00098CFFFEECF2EF2E0DF2E8601F801878D7C
:1010B00090A1892B31F4148E2FEF3FEF368F258FBF
:1010C00011A20A5F1F4F2016310681F7F12C809183
:1010D0005503F81608F053C0E12CAF2CB12CAA0C24
:1010E000BB1CC50189509D4F5C0120915603E2163F
:1010F00008F043C0F501608171810E2C02C0769525
:1011000067950A94E2F7F29E900111242E0D311D8D
:10111000EFEEF2E080E0458D568D2417350709F497
:101120005CC18F5F36968A30B1F760FF24C0EFEE66
:10113000F2E090E080E0448D411118C0E0914F034F
:10114000F0915003E20FF31F408156E0589FF001E9
:10115000599FF00D1124E151FD4F448F368F258F9B
:1011600010A2178E61E00E948B0105C00196369691
:101170008A30910501F7E394B8CFF394A8CF80E0CB
:10118000F60191A19111892FF6E0CF0ED11C0C151B
:101190001D05B1F79FB7F8944091EB025091EC0216
:1011A0006091ED027091EE029FBF40934B0350930C
:1011B0004C0360934D0370934E03882309F4ADC034
:1011C00080911003882309F4A8C080910E039091A8
:1011D0000F03019709F0A1C010910B031093EA02CD
:1011E0001111A0C0E1E0809171038111E0E0E1956F
:1011F000F0E0E25AFC4F848980680E94B304C090FA
:10120000E602D090E702E090E802F090E902F7FEF3
:10121000CEC041E06DE28EE593E00E94600422279B
:101220003327A9012C193D094E095F0919A28E0126
:101230000F5D1F4FCA01B901A30192010E94AB0AC1
:10124000605DF80162938F0121153105410551055B
:1012500089F70115110519F0C8010E941004809149
:10126000E502882309F451C01091E202103308F01E
:101270004CC02091E6023091E7024091E802509183
:10128000E902A8EEB3E00E94A00A24EB30E040E0BF
:1012900050E00E94810A69017A01F8EECF0EF3E076
:1012A000DF1EE11CF11C8091E30228E830E0281BDE
:1012B000310987FD3395C901880F991F880F991F40
:1012C000C816D9068CF08091E402E8E5F2E0E81B4C
:1012D000F10987FDF395CF01880F991F880F991F9A
:1012E000C816D9060CF4C6010297880F991F4FB78C
:1012F000F894212F30E0F901EE0FFF1FE20FF31FEA
:10130000EE5AFD4F928381834FBF80E090E0892B9E
:1013100009F4F9CD0E940000F6CD10925B03109203
:10132000EA0260CF0E94B904133451F41092E6022D
:101330001092E7021092E8021092E9021092E50280
:1013400080ED810F8A3060F52091E6023091E7024E
:101350004091E8025091E902AAE0B0E00E94A00AA0
:10136000212F110F330B205331098901330F220B29
:10137000330BDC01CB01800F911FA21FB31F853BF4
:101380009105A105B1050CF02DCF8093E602909355
:10139000E702A093E802B093E9021092E50222CF9F
:1013A0001A3209F01FCF81E08093E5021BCFA7011D
:1013B000960119A28E010F5D1F4FCA01B901A30149
:1013C00092010E94AB0A605DF80162938F012115C2
:1013D00031054105510589F73CCF6170C4CECF93EB
:1013E0001092F1021092F5021092F4021092F6029D
:1013F00088E292E09093F0028093EF02EBE0F3E05A
:101400001082148213821582369683E0E734F8073F
:10141000B9F784E092E0909352038093510380E007
:1014200092E0909354038093530384E08093550398
:101430008093560388E092E09093500380934F038B
:101440008AE090E0909358038093570384EF91E0F3
:1014500090935A038093590310925D0310925C039A
:1014600010924B0310924C0310924D0310924E03B6
:1014700010925B0310926103109260038CE192E082
:1014800090935F0380935E0388E080936203CFEFC5
:10149000C093630389E0809364038AE080936503CB
:1014A0008BE0809366038CE0809367038DE08093EC
:1014B00068031092690310926A0310926B031092F2
:1014C0006C0310926D0381E00E94C1048091480278
:1014D0008033A0F491E0980F909348028093E20249
:1014E00090E0FC01EE0FFF1FE80FF91FEE5AFD4FD1
:1014F00088EB9BE092838183CF910895C093E202B1
:10150000FBCF052E97FB1EF400940E94980A57FD0E
:1015100007D00E94AB0A07FC03D04EF40C94980A43
:1015200050954095309521953F4F4F4F5F4F08950F
:1015300090958095709561957F4F8F4F9F4F08953F
:101540000E94CD0AA59F900DB49F900DA49F800D81
:10155000911D11240895A1E21A2EAA1BBB1BFD01A7
:101560000DC0AA1FBB1FEE1FFF1FA217B307E40782
:10157000F50720F0A21BB30BE40BF50B661F771FDA
:10158000881F991F1A9469F76095709580959095BA
:101590009B01AC01BD01CF010895A29FB001B39F93
:1015A000C001A39F700D811D1124911DB29F700D6C
:1015B000811D1124911D0895991B79E004C0991F84
:1015C000961708F0961B881F7A95C9F7809508959D
:1015D000EE0FFF1F881F8BBF0790F691E02D199427
:0415E000F894FFCFAD
:1015E4001A1B1C1D161718193738392F3435362A8B
:1015F4003132332D43303D2B000000006205FB01E6
:1016040053035203000000002903E902B8025365A2
:1016140072766F204D6F746F720048617373616EE0
:08162400204B617A656D69003D
:00000001FF
