:100000000C9435010C9466010C9466010C94660105
:100010000C9466010C9466010C9466010C946601C4
:100020000C9466010C9466010C9466010C946601B4
:100030000C9466010C9466010C9466010C946601A4
:100040000C9466010C9466010C9466010C94660194
:100050000C9466010C9466010C9466010C94AE0439
:100060000C9466010C9466010C9466010C94660174
:100070000C9466010C9466010C9466010C94660164
:100080000C9466010C9466010C9466010C94660154
:100090000C9466010C9466010C9466010C94660144
:1000A0000C9466010C9466010C9466010C94660134
:1000B0000C9466010C9466010C9466010C94660124
:1000C0000C9466010C9466010C9466010C94660114
:1000D0000C9466010C9466010C9466010C94660104
:1000E0000C9466010C9458020C94A8040C944602DB
:1000F0000C94B8020C944C020C945B020C945402C5
:100100000C9481020C9453030C9450020C947902C9
:100110000C94E9020C9473020C9486020C946B020A
:100120000C9452030C947D020C946F020C94C5073E
:100130000C9487020C9429030C948B020C94650296
:100140000C9461020C94FB010000210024002700A4
:100150002A002D00300033000101000004010701D6
:100160000A0100002200250028002B002E0031008B
:10017000340002010000050108010B01000020000D
:100180002300260029002C002F003200000100006F
:10019000030106010901050505050705080808080A
:1001A000020202020A0A080804040404010101010F
:1001B000010101010303030303030303040707070A
:1001C0000C0C0C0C0C0C0C0C0202020206060606AF
:1001D000060606060B0B0B0B0B0B0B0B010210207C
:1001E000200808102040102040800201020108046D
:1001F0000201010204081020408080402010080401
:100200000201800402018040201008040201080459
:10021000020101020408102040800102040810209D
:10022000408000000A0B02090C0D0E0807030401B0
:1002300000000000000000000000000000000000BE
:10024000000000000000000000000000000012118B
:10025000100000000000000000000000000000008E
:100260000000000000000000C50711241FBECFEFF2
:10027000D1E2DEBFCDBF00E00CBF12E0A0E0B2E0F3
:10028000E2E0F1E100E00BBF02C007900D92AE3654
:10029000B107D9F723E0AEE6B2E001C01D92A43069
:1002A000B207E1F711E0C5E3D1E000E006C0219715
:1002B0000109802FFE010E945D08C433D10780E050
:1002C0000807A9F70E94F8040C947F080C9400001A
:1002D00096E0899FD0011124A358BD4F90967C933E
:1002E0006E935F9791E091969C939197E091EA02CB
:1002F000F091EB029091E902992339F0309751F097
:10030000811108C0809199021994309719F05C9678
:100310008C91FACF0895CF92DF92EF92FF920F93D4
:100320001F9396E0899FF0011124E358FD4F11A21D
:10033000278D30A12130310551F178F0223031057F
:1003400009F451C02330310509F452C01F910F91B7
:10035000FF90EF90DF90CF9008956623B9F361E0AE
:1003600070E00E9468012FB7F89480917902909113
:100370007A02A0917B02B0917C022FBF8093D502BC
:100380009093D602A093D702B093D802DFCF9FB745
:10039000F894C0907902D0907A02E0907B02F090BD
:1003A0007C029FBF0091D5021091D6022091D70206
:1003B0003091D802C01AD10AE20AF30A0091E7028A
:1003C0001091E80230E020E00C151D052E053F05D8
:1003D00050F462E070E01F910F91FF90EF90DF907A
:1003E000CF900C9468016111B1CF63E070E0F3CF5E
:1003F00070E060E0F0CFAF92BF92CF92DF92EF92C9
:10040000FF920F931F93CF93DF936C017B018B01BE
:10041000040F151FEB015E01AE18BF08C017D1070E
:1004200059F06991D601ED91FC910190F081E02D98
:10043000C6011995892B79F7C501DF91CF911F91DD
:100440000F91FF90EF90DF90CF90BF90AF90089505
:100450008150823108F05AC0E82FF0E08827EC5C28
:10046000FD4F8F4F0C945D085402580246024C0217
:10047000500286025B02610265026B026F02730228
:1004800079027D028602810287028B0280918000C0
:100490008F77809380000895809180008F7DF9CFC1
:1004A00080918000877FF5CF84B58F7784BD0895D4
:1004B00084B58F7DFBCF8091B0008F778093B000A3
:1004C00008958091B0008F7DF9CF809190008F7753
:1004D000809390000895809190008F7DF9CF809156
:1004E0009000877FF5CF8091A0008F778093A00048
:1004F00008958091A0008F7DF9CF8091A000877F23
:10050000F5CF809120018F7780932001089580910D
:1005100020018F7DF9CF80912001877FF5CFCF9388
:10052000DF93282F30E0F901EE5DFD4F8491F90152
:10053000E452FE4FD491F901EA56FE4FC491CC2308
:10054000A1F081110E942802EC2FF0E0EE0FFF1FB6
:10055000E458FE4FA591B491EC91ED2381E090E039
:1005600009F480E0DF91CF91089580E090E0FACF28
:10057000862F0C948F021F93CF93DF93282F30E0A8
:10058000F901EE5DFD4F8491F901E452FE4FD491E3
:10059000F901EA56FE4FC491CC23A9F0162F811120
:1005A0000E942802EC2FF0E0EE0FFF1FEE59FE4FE5
:1005B000A591B4918FB7F894EC91111108C0D09522
:1005C000DE23DC938FBFDF91CF911F910895DE2B47
:1005D000F8CF862F642F0C94BB02CF93DF9390E06B
:1005E000FC01E452FE4F24918A569E4FFC018491F7
:1005F0008823C9F090E0880F991FFC01E85BFE4F4B
:10060000A591B491FC01EE59FE4FC591D4916111B1
:100610000DC09FB7F8948C91209582238C9388818C
:10062000282328839FBFDF91CF910895623051F432
:100630009FB7F8943C91822F809583238C93E88117
:100640002E2BEFCF8FB7F894EC912E2B2C938FBFDE
:10065000EACF862F642F0C94ED023FB7F894809177
:100660006F0290917002A0917102B091720226B552
:10067000A89B05C02F3F19F00196A11DB11D3FBFDA
:10068000BA2FA92F982F8827BC01CD01620F711DA9
:10069000811D911D42E0660F771F881F991F4A95A3
:1006A000D1F70895089590E080E00895FC0101904D
:1006B0000020E9F73197AF01481B590BBC018CEEC4
:1006C00092E00C94FB01CF93DF93EC0160E08E810C
:1006D0000E94BB0261E08E810E94BB0260E08E81BD
:1006E0000E94BB028BE891E00197F1F7DF91CF9177
:1006F0000895CF92DF92EF92FF920F931F93CF93C3
:10070000DF936C017C0187E0E80EF11CD0E0C0E0D3
:10071000062F10E0B8010C2E02C0759567950A945B
:10072000E2F76170F70181917F010E94BB0221967F
:10073000C430D10579F7C601DF91CF911F910F9198
:10074000FF90EF90DF90CF900C946303CF92DF92F5
:10075000EF92FF920F931F93CF93DF93EC01F62E4E
:10076000642F8C810E94BB028D818F3F19F060E065
:100770000E94BB020F2D10E08F8584FF25C06E0103
:1007800087E0C80ED11CF12CE12CB8010E2C02C060
:10079000759567950A94E2F76170F60181916F0192
:1007A0000E94BB02FFEFEF1AFF0A88E0E816F1048F
:1007B00061F7CE01DF91CF911F910F91FF90EF90E4
:1007C000DF90CF900C946303B80184E07595679532
:1007D0008A95E1F7CE010E9479036F2DCE01DF915A
:1007E000CF911F910F91FF90EF90DF90CF900C94DD
:1007F000790340E0682F8CEE92E00C94A60381E030
:100800000E94F9038BE39FE10197F1F70895CF93DD
:10081000DF93823029F49091FB0298609093FB0261
:100820008093FF021092000380E48093010380E133
:100830008093020380E58093030361E08091F002DE
:100840000E94ED028091F1028F3F19F061E00E9459
:10085000ED0261E08091F2020E94ED02CCEED2E066
:100860009E012C5E32408091FB0284FD0BC084E02F
:1008700090E021962817390744F461E08E810E94A8
:10088000ED02EECF88E090E0F4CF8BE39DE001979E
:10089000F1F760E08091F0020E94BB0260E080917D
:1008A000F2020E94BB028091F1028F3F19F060E0DA
:1008B0000E94BB028091FB0284FD34C063E08CEE99
:1008C00092E00E947903CBE4D6E4CE010197F1F7E0
:1008D00063E08CEE92E00E9479032197F1F763E0E8
:1008E0008CEE92E00E94790383E592E00197F1F7A4
:1008F00062E08CEE92E00E9479038091FB028062BC
:100900000E94F90384E08093FC028CE00E94F903CA
:100910000E94FF0382E08093FD0286E0DF91CF9189
:100920000C94F90380620E94F9038BE496E401972A
:10093000F1F78091FB0280620E94F90383E592E067
:100940000197F1F78091FB0280620E94F903D5CFF5
:1009500041E00E94A60381E090E008951F920F926B
:100960000FB60F9211242F933F938F939F93AF93C2
:10097000BF938091790290917A02A0917B02B0910D
:100980007C0230916E0223E0230F2D3758F501963B
:10099000A11DB11D20936E028093790290937A027B
:1009A000A0937B02B0937C0280916F0290917002C1
:1009B000A0917102B09172020196A11DB11D8093A8
:1009C0006F0290937002A0937102B0937202BF9174
:1009D000AF919F918F913F912F910F900FBE0F90EC
:1009E0001F90189526E8230F0296A11DB11DD2CFA6
:1009F000CF93DF93CDB7DEB7A1970FB6F894DEBFE4
:100A00000FBECDBF789484B5826084BD84B581600B
:100A100084BD85B5826085BD85B5816085BD8091C9
:100A20006E00816080936E00109281008091810041
:100A30008260809381008091810081608093810039
:100A4000809180008160809380008091B1008460FB
:100A50008093B1008091B00081608093B00080915C
:100A600091008260809391008091910081608093D9
:100A70009100809190008160809390008091A1000E
:100A800082608093A1008091A10081608093A10089
:100A90008091A00081608093A000809121018260FC
:100AA00080932101809121018160809321018091B7
:100AB000200181608093200180917A00846080937E
:100AC0007A0080917A00826080937A0080917A0027
:100AD000816080937A0080917A00806880937A00A8
:100AE0001092C10082E00E9407048EE292E00E9410
:100AF0005603E091FF02E23008F072C0E150F0E0EE
:100B0000E451FD4F848980680E94F9038FE392E0ED
:100B10000E9456030E942D034B015C0158EEC52E26
:100B200053E0D52EE12CF12C0E942D036819790990
:100B30008A099B09683E734081059105A8F321E06D
:100B4000C21AD108E108F10888EE880E83E0981EE9
:100B5000A11CB11CC114D104E104F10429F70E94C5
:100B6000FF0336E0232E4AE0442E512C612C712CD9
:100B7000EE24E394E092E9028FB7F8944091790271
:100B800050917A0260917B0270917C028FBF8091BC
:100B9000D9029091DA02A091DB02B091DC02481BED
:100BA000590B6A0B7B0B8091E5029091E602B0E055
:100BB000A0E084179507A607B70708F086C110E0E4
:100BC0008091E302181770F4E091DF02F091E002E7
:100BD000E10FF11D62E080810E94ED021F5FF0CF06
:100BE000E1E08DCFF12C8091E402F81608F063C0AB
:100BF000CF2CD12CE091E102F091E202EC0DFD1D31
:100C000061E080810E94ED02E091E102F091E20258
:100C1000EC0DFD1D60E080810E94BB0281E090E050
:100C2000A0E0B0E00F2C04C0880F991FAA1FBB1FC3
:100C30000A94D2F74C015C01A094B094312C8091BD
:100C4000E302381608F5032D10E0E091DF02F09181
:100C5000E002E00FF11F80810E948F020C5F1F4FA6
:100C6000000F111FF801E358FD4F892B41F48081DB
:100C7000918188299929918380833394E0CF808161
:100C800091818A219B21F7CFE091E102F091E2026C
:100C9000EC0DFD1D61E080810E94BB028091E102AC
:100CA0009091E202C80ED91E60E0F60180810E9498
:100CB000ED02F39498CF9DE7C92E92E0D92E8601DC
:100CC000F801878D90A1892B31F4148E8FEF9FEF5F
:100CD000968F858F11A20A5F1F4FE9EBF2E0E017B4
:100CE000F10771F7F12C8091E302F81608F052C079
:100CF000B12C8F2C912C880C991CC4018B579D4FC3
:100D00004C012091E402B21608F042C0F401608167
:100D100071810B2C02C0769567950A94E2F7F29EDA
:100D2000900111242B0D311DEDE7F2E080E0458D9F
:100D3000568D2417350709F426C18F5F36968A3001
:100D4000B1F760FF23C0EDE7F2E090E080E0448D72
:100D5000411117C0E091DD02F091DE02E20FF31FB6
:100D60004081289EF001299EF00D1124E358FD4F8B
:100D7000448F368F258F10A2178E61E00E948B0161
:100D800005C0019636968A30910509F7B394B9CF1C
:100D9000F394A9CF80E0F60191A19111892FF6E09B
:100DA000CF0ED11C0C151D05B1F79FB7F8944091DB
:100DB000790250917A0260917B0270917C029FBF10
:100DC0004093D9025093DA026093DB027093DC0205
:100DD000882309F47AC080919E02882309F475C0A3
:100DE00080919C0290919D02019709F06EC0109134
:100DF00099021093780211116DC0E1E08091FF0219
:100E00008111E0E0E195F0E0E451FD4F84898068D4
:100E10000E94F90380917702882391F080917302F8
:100E200090917402A0917502B09176028034924E36
:100E3000A140B10509F08CC08DE492E00E945603F8
:100E4000E091FF02E23008F086C0E150F0E0E451AA
:100E5000FD4F848980680E94F9038090730290900E
:100E60007402A0907502B0907602B7FE76C041E0A1
:100E70006DE28CEE92E00E94A60322273327A9019F
:100E8000281939094A095B0919A28E010F5D1F4F04
:100E9000CA01B901A30192010E943B08605DF801FB
:100EA00062938F01211531054105510589F701151F
:100EB000110519F0C8010E94560380E090E0892BCB
:100EC00009F458CE0E94000053CE1092E90210920D
:100ED000780293CF0E94FF03133451F410927302EF
:100EE000109274021092750210927602109277029C
:100EF00080ED810F8A3030F52091730230917402B9
:100F00004091750250917602AAE0B0E00E94650817
:100F1000212F110F330B205331098901330F220B7D
:100F2000330BDC01CB01800F911FA21FB31F8093F5
:100F3000730290937402A0937502B093760210929C
:100F400077025BCF1A3209F058CFE092770255CF83
:100F50008EE592E073CFE1E079CFA501940119A26B
:100F60008E010F5D1F4FCA01B901A30192010E94BA
:100F70003B08605DF80162938F0121153105410541
:100F8000510589F794CF6170F9CE10927F021092CB
:100F90008302109282021092840288E292E090937F
:100FA0007E0280937D02E9E9F2E0108214821382CE
:100FB0001582369682E0E53DF807B9F784E092E0C5
:100FC0009093E0028093DF0280E092E09093E2024F
:100FD0008093E10284E08093E3028093E40288E05E
:100FE00092E09093DE028093DD028AE090E090939D
:100FF000E6028093E50284EF91E09093E80280930B
:10100000E7021092EB021092EA021092D9021092BB
:10101000DA021092DB021092DC021092E9021092C6
:10102000EF021092EE028CE192E09093ED02809339
:10103000EC0288E08093F0028FEF8093F10289E068
:101040008093F2028AE08093F3028BE08093F402B3
:101050008CE08093F5028DE08093F6021092F70207
:101060001092F8021092F9021092FA021092FB020A
:1010700081E00C940704A1E21A2EAA1BBB1BFD0100
:101080000DC0AA1FBB1FEE1FFF1FA217B307E40767
:10109000F50720F0A21BB30BE40BF50B661F771FBF
:1010A000881F991F1A9469F760957095809590959F
:1010B0009B01AC01BD01CF010895EE0FFF1F881FFA
:1010C0008BBF0790F691E02D19940E947008A59FA0
:1010D000900DB49F900DA49F800D911D1124089533
:1010E000A29FB001B39FC001A39F700D811D112469
:1010F000911DB29F700D811D1124911D0895F894CA
:02110000FFCF1F
:1011020004050607000102033738392F3435362A21
:101112003132332D43303D2B00000000A804FB0187
:1011220053035203000000002903E902B802506190
:101132007373776F726420436865636B65720048EE
:10114200617373616E204B617A656D6900436F72E2
:10115200726563742050617373776F7264005772A3
:0E1162006F6E672050617373776F72640000C8
:00000001FF
