:100000000C9435010C9466010C9466010C94660105
:100010000C9466010C9466010C9466010C946601C4
:100020000C9466010C9466010C9466010C946601B4
:100030000C9466010C9466010C9466010C946601A4
:100040000C9466010C9466010C9466010C94660194
:100050000C9466010C9466010C9466010C944704A0
:100060000C9466010C9466010C9466010C94660174
:100070000C9466010C9466010C9466010C94660164
:100080000C9466010C9466010C9466010C94660154
:100090000C9466010C9466010C9466010C94660144
:1000A0000C9466010C9466010C9466010C94660134
:1000B0000C9466010C9466010C9466010C94660124
:1000C0000C9466010C9466010C9466010C94660114
:1000D0000C9466010C9466010C9466010C94660104
:1000E0000C9466010C94C9010C94C8020C94680528
:1000F0000C94F0020C94DA010C94F6010C94F402C6
:100100000C94F9020C94FC010C94C1010C94E001D4
:100110000C9400020C94BB010C94FB010C94D001D4
:100120000C94EE010C9468010C94F2010C94D6012D
:100130000C94F8020C94CD010C94E8010C94410449
:100140000C94E4010C94C50100002000230026005B
:1001500029002C002F0032000001000003010601DD
:10016000090100002100240027002A002D00300092
:10017000330001010000040107010A010000220010
:10018000250028002B002E00310034000201000061
:10019000050108010B010505050507050808080804
:1001A000020202020A0A080804040404010101010F
:1001B000010101010303030303030303040707070A
:1001C0000C0C0C0C0C0C0C0C0202020206060606AF
:1001D000060606060B0B0B0B0B0B0B0B010210207C
:1001E000200808102040102040800201020108046D
:1001F0000201010204081020408080402010080401
:100200000201800402018040201008040201080459
:10021000020101020408102040800102040810209D
:10022000408000000A0B02090C0D0E0807030401B0
:1002300000000000000000000000000000000000BE
:10024000000000000000000000000000000012118B
:10025000100000000000000000000000000000008E
:100260000000000000000000680511241FBECFEF51
:10027000D1E2DEBFCDBF00E00CBF12E0A0E0B2E0F3
:10028000E0EDFBE000E00BBF02C007900D92AC3345
:10029000B107D9F722E0ACE3B2E001C01D92A03D66
:1002A000B207E1F711E0C5E3D1E000E006C0219715
:1002B0000109802FFE010E94DE05C433D10780E0D2
:1002C0000807A9F70E9491040C94E6050C9400001D
:1002D000AF92BF92CF92DF92EF92FF920F931F9354
:1002E000CF93DF936C017B018B01040F151FEB0192
:1002F0005E01AE18BF08C017D10759F06991D60149
:10030000ED91FC910190F081E02DC6011995892BAA
:1003100079F7C501DF91CF911F910F91FF90EF9079
:10032000DF90CF90BF90AF9008954DE050E06EE227
:1003300072E088EB92E00C9468018150823108F001
:100340005AC0E82FF0E08827E755FE4F8F4F0C94F6
:10035000DE05C901CD01BB01C101C501FB01D00111
:10036000D601DA01E001E401E801EE01F201FB014E
:10037000F601FC010002809180008F77809380005D
:100380000895809180008F7DF9CF80918000877FD4
:10039000F5CF84B58F7784BD089584B58F7DFBCF6D
:1003A0008091B0008F778093B00008958091B00065
:1003B0008F7DF9CF809190008F7780939000089582
:1003C000809190008F7DF9CF80919000877FF5CF4D
:1003D0008091A0008F778093A00008958091A00065
:1003E0008F7DF9CF8091A000877FF5CF809120018C
:1003F0008F77809320010895809120018F7DF9CF20
:1004000080912001877FF5CF1F93CF93DF93282F13
:1004100030E0F901EE5DFD4F8491F901E452FE4FA9
:10042000D491F901EA56FE4FC491CC23A9F0162FBE
:1004300081110E949D01EC2FF0E0EE0FFF1FE458A8
:10044000FE4FA591B4918FB7F894EC91111108C0AB
:10045000D095DE23DC938FBFDF91CF911F9108955C
:10046000DE2BF8CFCF93DF9390E0FC01E452FE4FF8
:1004700024918A569E4FFC0184918823C9F090E014
:10048000880F991FFC01EE59FE4FA591B491FC0114
:10049000E458FE4FC591D49161110DC09FB7F894F7
:1004A0008C91209582238C938881282328839FBF59
:1004B000DF91CF910895623051F49FB7F8943C9149
:1004C000822F809583238C93E8812E2BEFCF8FB7DB
:1004D000F894EC912E2B2C938FBFEACF3FB7F89472
:1004E0008091B0029091B102A091B202B091B3029A
:1004F00026B5A89B05C02F3F19F00196A11DB11D7F
:100500003FBFBA2FA92F982F8827BC01CD01620FBA
:10051000711D811D911D42E0660F771F881F991F75
:100520004A95D1F708958F929F92AF92BF92CF9242
:10053000DF92EF92FF920E946E024B015C0186E90E
:10054000C82ED12CE12CF12C0E946E026819790979
:100550008A099B09683E734081059105A8F321E053
:10056000C21AD108E108F10888EE880E83E0981ECF
:10057000A11CB11CC114D104E104F10429F7FF90BE
:10058000EF90DF90CF90BF90AF909F908F900895A5
:10059000CF93DF9370E0FB01EE5DFD4F8491FB0193
:1005A000E452FE4FD4916A567E4FFB01C491CC2396
:1005B000A1F081110E949D01EC2FF0E0EE0FFF1FD2
:1005C000E85BFE4FA591B491EC91ED2381E090E0C2
:1005D00009F480E0DF91CF91089580E090E0FACFB8
:1005E000862F642F0C940402862F642F0C94320201
:1005F000089590E080E00895CF93DF93EC0160E0F0
:100600008E810E94040261E08E810E94040260E0FB
:100610008E810E9404028BE891E00197F1F7DF914F
:10062000CF910895CF92DF92EF92FF920F931F9395
:10063000CF93DF936C017C0187E0E80EF11CD0E0E2
:10064000C0E0062F10E0B8010C2E02C0759567952A
:100650000A94E2F76170F70181917F010E94040220
:100660002196C430D10579F7C601DF91CF911F9152
:100670000F91FF90EF90DF90CF900C94FC02CF92FF
:10068000DF92EF92FF920F931F93CF93DF93EC01D2
:10069000F62E642F8C810E9404028D818F3F19F009
:1006A00060E00E9404020F2D10E08F8584FF25C0BA
:1006B0006E0187E0C80ED11CF12CE12CB8010E2C84
:1006C00002C0759567950A94E2F76170F601819111
:1006D0006F010E940402FFEFEF1AFF0A88E0E8169C
:1006E000F10461F7CE01DF91CF911F910F91FF903F
:1006F000EF90DF90CF900C94FC02B80184E07595E8
:1007000067958A95E1F7CE010E9412036F2DCE0105
:10071000DF91CF911F910F91FF90EF90DF90CF90DD
:100720000C94120340E0682F88EB92E00C943F0396
:1007300081E00E9492038BE39FE10197F1F7089516
:10074000CF93DF93823029F49091C7029860909301
:10075000C7028093CB021092CC0280E48093CD023A
:1007600080E18093CE0280E58093CF0261E08091AA
:10077000BC020E9432028091BD028F3F19F061E0FD
:100780000E94320261E08091BE020E943202C8EBF8
:10079000D2E09E01285B32408091C70284FD0BC0ED
:1007A00084E090E021962817390744F461E08E81B7
:1007B0000E943202EECF88E090E0F4CF8BE39DE020
:1007C0000197F1F760E08091BC020E94040260E0B2
:1007D0008091BE020E9404028091BD028F3F19F0F9
:1007E00060E00E9404028091C70284FD34C063E08F
:1007F00088EB92E00E941203CBE4D6E4CE0101978D
:10080000F1F763E088EB92E00E9412032197F1F781
:1008100063E088EB92E00E94120383E592E0019787
:10082000F1F762E088EB92E00E9412038091C70228
:1008300080620E94920384E08093C8028CE00E9450
:1008400092030E94980382E08093C90286E0DF91C0
:10085000CF910C94920380620E9492038BE496E401
:100860000197F1F78091C70280620E94920383E5AD
:1008700092E00197F1F78091C70280620E94920393
:10088000D5CF41E00E943F0381E090E008951F92A0
:100890000F920FB60F9211242F933F938F939F9334
:1008A000AF93BF938091AC029091AD02A091AE0244
:1008B000B091AF023091AB0223E0230F2D3758F5F2
:1008C0000196A11DB11D2093AB028093AC029093C1
:1008D000AD02A093AE02B093AF028091B0029091AE
:1008E000B102A091B202B091B3020196A11DB11D57
:1008F0008093B0029093B102A093B202B093B3027E
:10090000BF91AF919F918F913F912F910F900FBE0B
:100910000F901F90189526E8230F0296A11DB11D78
:10092000D2CF789484B5826084BD84B5816084BD63
:1009300085B5826085BD85B5816085BD80916E007D
:10094000816080936E0010928100809181008260AE
:1009500080938100809181008160809381008091EB
:1009600080008160809380008091B10084608093DA
:10097000B1008091B00081608093B00080919100BF
:1009800082608093910080919100816080939100BA
:10099000809190008160809390008091A10082609E
:1009A0008093A1008091A10081608093A10080913B
:1009B000A00081608093A0008091210182608093DB
:1009C000210180912101816080932101809120018A
:1009D00081608093200180917A00846080937A0006
:1009E00080917A00826080937A0080917A008160A1
:1009F00080937A0080917A00806880937A001092C8
:100A0000C10082E00E94A0030E949803E1E080916F
:100A1000CB028111E0E0E195F0E0E854FD4F8489DC
:100A200080680E9492030E94950180E190E090937B
:100A3000B7028093B6021092B5021092B40200E0A1
:100A400010E0F12CE12CC091B602D091B702EC1667
:100A5000FD063CF488E10E9492038FEFE81AF80A41
:100A6000F2CF0E949302F12CE12C2F96CE15DF05D8
:100A70004CF08CE10E9492030E9493028FEFE81ADF
:100A8000F80AF4CF0E949803E1E08091B4029091BB
:100A9000B502892B09F0E0E08E2F90E09093B5022B
:100AA0008093B4028091CB02E81710F0EFEFE80FCB
:100AB000F0E0E854FD4F848980680E9492030E9410
:100AC00095010115110509F4BCCF0E940000B9CFB2
:100AD00010923E0210924202109241021092430282
:100AE00088E292E090933D0280933C02E8E5F2E0D8
:100AF0001082148213821582369682E0E439F80758
:100B0000B9F784E092E090939F0280939E0280E088
:100B100092E09093A1028093A00284E08093A202CD
:100B20008093A30288E092E090939D0280939C02C0
:100B30008AE090E09093A5028093A40284EF91E074
:100B40009093A7028093A6021092AA021092A90283
:100B5000109298021092990210929A0210929B029F
:100B60001092A8021092BB021092BA028CE192E09D
:100B70009093B9028093B80288E08093BC028FEF13
:100B80008093BD0289E08093BE028AE08093BF0219
:100B90008BE08093C0028CE08093C1028DE0809353
:100BA000C2021092C3021092C4021092C5021092A7
:100BB000C6021092C70281E00C94A003EE0FFF1F43
:100BC000881F8BBF0790F691E02D1994F894FFCF02
:100BD00004050607000102033738392F3435362A59
:100BE0003132332D43303D2B0000000041046801B9
:100BF000F902F80200000000F402F002C8024861A5
:0C0C00007373616E204B617A656D6900B2
:00000001FF
