:100000000C943B010C946C010C946C010C946C01ED
:100010000C946C010C946C010C946C010C946C01AC
:100020000C946C010C946C010C946C010C946C019C
:100030000C946C010C946C010C946C010C946C018C
:100040000C946C010C946C010C946C010C946C017C
:100050000C946C010C946C010C946C010C94500485
:100060000C946C010C941A040C94F0030C946C0125
:100070000C946C010C946C010C946C010C946C014C
:100080000C946C010C946C010C946C010C946C013C
:100090000C946C010C946C010C946C010C946C012C
:1000A0000C946C010C946C010C946C010C946C011C
:1000B0000C946C010C946C010C946C010C946C010C
:1000C0000C946C010C946C010C946C010C946C01FC
:1000D0000C946C010C946C010C946C010C946C01EC
:1000E0000C946C010C9429030C949A040C940C024B
:1000F0000C9445030C9415030C9441030C949B0140
:100100000C941B030C9400030C940E030C94AA0192
:100110000C9440030C9406030C9425030C943703B1
:100120000C943B030C946E010C9412030C940A0380
:100130000C94BE010C9491020C94DF030C941F03E9
:100140000C94DB030C9444020C942D030C94B30325
:100150000C943303000020002300260029002C000B
:100160002F00320000010000030106010901000018
:100170002100240027002A002D0030003300010157
:100180000000040107010A010000220025002800E8
:100190002B002E003100340002010000050108018F
:1001A0000B010505050507050808080802020202FB
:1001B0000A0A080804040404010101010101010103
:1001C0000303030303030303040707070C0C0C0CCE
:1001D0000C0C0C0C020202020606060606060606B7
:1001E0000B0B0B0B0B0B0B0B010210202008081044
:1001F0002040102040800201020108040201010297
:10020000040810204080804020100804020180046F
:1002100002018040201008040201080402010102CA
:1002200004081020408001020408102040800000D3
:100230000A0B02090C0D0E08070304010000000060
:1002400000000000000000000000000000000000AE
:10025000000000000000000000001211100000006B
:10026000000000000000000000000000000000008E
:10027000000000009A0411241FBECFEFD1E2DEBFC0
:10028000CDBF00E00CBF23E0A6E4B2E001C01D92A8
:10029000AD35B207E1F712E0A0E0B2E0EAEAFEE035
:1002A00000E00BBF02C007900D92A634B107D9F74A
:1002B00011E0CBE3D1E000E006C021970109802FD7
:1002C000FE010E944B07CA33D10780E00807A9F757
:1002D0000E9427050C9453070C940000AF92BF9224
:1002E000CF92DF92EF92FF920F931F93CF93DF9302
:1002F0006C017B018B01040F151FEB015E01AE1831
:10030000BF08C017D10759F06991D601ED91FC9152
:100310000190F081E02DC6011995892B79F7C5016F
:10032000DF91CF911F910F91FF90EF90DF90CF90D1
:10033000BF90AF900895FC01538D448D252F30E080
:10034000842F90E0821B930B541710F0CF960895E2
:1003500001970895FC01918D828D981761F0A28D0F
:10036000AE0FBF2FB11D5D968C91928D9F5F9F73D5
:10037000928F90E008958FEF9FEF0895FC01918D8B
:10038000828D981731F0828DE80FF11D858D90E0F8
:1003900008958FEF9FEF08952FB7F89480914D0245
:1003A00090914E02A0914F02B09150022FBF8093C6
:1003B000590290935A02A0935B02B0935C0281E5CC
:1003C00092E00E94BE0197FF26C02FB7F89480915B
:1003D0004D0290914E02A0914F02B09150022FBF5A
:1003E0004091590250915A0260915B0270915C02F7
:1003F000841B950BA60BB70B4091550250915602EA
:10040000609157027091580284179507A607B707A5
:10041000B0F28FEF9FEF0895FC01918D228D892F0F
:1004200090E0805C9F4F821B91098F7399270895FC
:1004300081E592E00E940C0221E0892B09F420E082
:10044000822F0895FC01A48DA80FB92FB11DA35AC6
:10045000BF4F2C91848D90E001968F739927848FE4
:10046000A689B7892C93A089B1898C918370806407
:100470008C93938D848D981306C00288F389E02DA8
:1004800080818F7D80830895EF92FF920F931F9359
:10049000CF93DF93EC0181E0888F9B8D8C8D981337
:1004A0001AC0E889F989808185FF15C09FB7F89443
:1004B000EE89FF896083E889F9898081837080648F
:1004C00080839FBF81E090E0DF91CF911F910F91DA
:1004D000FF90EF900895F62E0B8D10E00F5F1F4FE9
:1004E0000F731127E02E8C8D8E110CC00FB607FCF8
:1004F000FACFE889F989808185FFF5CFCE010E9486
:100500002202F1CFEB8DEC0FFD2FF11DE35AFF4FCF
:10051000F0829FB7F8940B8FEA89FB898081806213
:10052000CFCFCF93DF93EC01888D8823B9F0AA89D0
:10053000BB89E889F9898C9185FD03C0808186FD9E
:100540000DC00FB607FCF7CF8C9185FFF2CF8081ED
:1005500085FFEDCFCE010E942202E9CFDF91CF913E
:10056000089580E090E0892B29F00E941802811103
:100570000E94000080E090E0892B49F080E090E04C
:10058000892B29F00E94000081110E94000080E068
:1005900090E0892B49F080E090E0892B29F00E94BF
:1005A000000081110E94000080E090E0892B49F05A
:1005B00080E090E0892B29F00E94000081110C94CA
:1005C000000008958150823108F05AC0E82FF0E011
:1005D0008827E251FD4F8F4F0C944B070E031203F7
:1005E000000306030A03400315031B031F0325032F
:1005F00029032D033303370340033B034103450322
:10060000809180008F778093800008958091800092
:100610008F7DF9CF80918000877FF5CF84B58F776C
:1006200084BD089584B58F7DFBCF8091B0008F7716
:100630008093B00008958091B0008F7DF9CF8091B4
:1006400090008F77809390000895809190008F7D27
:10065000F9CF80919000877FF5CF8091A0008F77B0
:100660008093A00008958091A0008F7DF9CF8091A4
:10067000A000877FF5CF809120018F7780932001A4
:100680000895809120018F7DF9CF80912001877F8F
:10069000F5CF1F93CF93DF93282F30E0F901E25D70
:1006A000FD4F8491F901E851FE4FD491F901EE55C7
:1006B000FE4FC491CC23A9F0162F81110E94E202B3
:1006C000EC2FF0E0EE0FFF1FE857FE4FA591B4911D
:1006D0008FB7F894EC91111108C0D095DE23DC930C
:1006E0008FBFDF91CF911F910895DE2BF8CFCF936D
:1006F000DF9390E0FC01E851FE4F24918E559E4F10
:10070000FC0184918823C9F090E0880F991FFC01B7
:10071000E259FE4FA591B491FC01E857FE4FC591F7
:10072000D49161110DC09FB7F8948C9120958223CC
:100730008C938881282328839FBFDF91CF910895D0
:10074000623051F49FB7F8943C91822F80958323B7
:100750008C93E8812E2BEFCF8FB7F894EC912E2B52
:100760002C938FBFEACFCF93DF9370E0FB01E25D64
:10077000FD4F8491FB01E851FE4FD4916E557E4FA1
:10078000FB01C491CC23A1F081110E94E202EC2F65
:10079000F0E0EE0FFF1FEC5AFE4FA591B491EC91E3
:1007A000ED2381E090E009F480E0DF91CF9108959E
:1007B00080E090E0FACF862F642F0C944903862FB7
:1007C000642F0C947703FC0101900020E9F7319726
:1007D000AF01481B590BBC0181E592E00C946E01FE
:1007E0001F920F920FB60F9211240BB60F922F93F8
:1007F0003F934F935F936F937F938F939F93AF93A9
:10080000BF93EF93FF9381E592E00E942202FF9154
:10081000EF91BF91AF919F918F917F916F915F9178
:100820004F913F912F910F900BBE0F900FBE0F90E5
:100830001F9018951F920F920FB60F9211240BB6AE
:100840000F922F938F939F93EF93FF93E091610209
:10085000F09162028081E0916702F091680282FD6E
:100860001DC0908180916A028F5F8F7320916B020F
:10087000821741F0E0916A02F0E0EF5AFD4F958F48
:1008800080936A02FF91EF919F918F912F910F902A
:100890000BBE0F900FBE0F901F9018958081F2CF66
:1008A0001F920F920FB60F9211242F933F938F93A5
:1008B0009F93AF93BF9380914D0290914E02A09170
:1008C0004F02B091500230914A0223E0230F2D379E
:1008D00058F50196A11DB11D20934A0280934D0247
:1008E00090934E02A0934F02B09350028091460223
:1008F00090914702A0914802B09149020196A11D32
:10090000B11D8093460290934702A0934802B09392
:100910004902BF91AF919F918F913F912F910F907D
:100920000FBE0F901F90189526E8230F0296A11D69
:10093000B11DD2CF109254021092530288EE93E070
:10094000A0E0B0E08093550290935602A093570226
:10095000B09358028CE192E090935202809351023E
:1009600085EC90E090935E0280935D0284EC90E0D1
:100970009093600280935F0280EC90E0909362021B
:100980008093610281EC90E0909364028093630213
:1009900082EC90E0909366028093650286EC90E092
:1009A000909368028093670210926A0210926B0221
:1009B00010926C0210926D021092F0021092F402EA
:1009C0001092F3021092F5028EE292E09093EF0201
:1009D0008093EE02EAE0F3E0108214821382158223
:1009E000369683E0E634F807B9F784E092E0909316
:1009F00051038093500380E092E0909353038093DF
:100A0000520384E0809354038093550388E092E07E
:100A100090934F0380934E038AE090E090935703A6
:100A20008093560384EF91E0909359038093580389
:100A300010925C0310925B0310924A0310924B03D6
:100A400010924C0310924D0310925A030895CF93C5
:100A5000DF93CDB7DEB7A1970FB6F894DEBF0FBE18
:100A6000CDBF789484B5826084BD84B5816084BD37
:100A700085B5826085BD85B5816085BD80916E003C
:100A8000816080936E00109281008091810082606D
:100A900080938100809181008160809381008091AA
:100AA00080008160809380008091B1008460809399
:100AB000B1008091B00081608093B000809191007E
:100AC0008260809391008091910081608093910079
:100AD000809190008160809390008091A10082605D
:100AE0008093A1008091A10081608093A1008091FA
:100AF000A00081608093A00080912101826080939A
:100B00002101809121018160809321018091200148
:100B100081608093200180917A00846080937A00C4
:100B200080917A00826080937A0080917A0081605F
:100B300080937A0080917A00806880937A00109286
:100B4000C100E0916102F091620282E08083E09155
:100B50005D02F0915E021082E0915F02F09160020E
:100B60008FEC808310926902E0916502F091660239
:100B700086E08083E0916302F0916402808180616D
:100B80008083E0916302F0916402808188608083B9
:100B9000E0916302F0916402808180688083E0913B
:100BA0006302F091640280818F7D808361E086E33F
:100BB0000E94770361E087E30E94770361E088E3A6
:100BC0000E94770361E089E30E94770361E08AE392
:100BD0000E94770361E08BE30E94770361E08CE37E
:100BE0000E94770361E08DE30E94770361E08EE36A
:100BF0000E9477038AE0882E912CA12CB12C0E94B0
:100C0000CC01FC01C12CD12C760197FD40C08D3266
:100C1000910521F0C0970A9708F0B4C0C12CD12CDF
:100C2000760110E0E130F105D9F0ED32F10509F47B
:100C3000AEC0CF01C0970A9798F4AAE0B0E0A70130
:100C400096010E940F076F01FF0FEE08FF08C60E06
:100C5000D71EE81EF91E80E3C81AD108E108F10882
:100C600081E592E00E94AA010E94CC01FC01C0979C
:100C70000A97C0F2E130F105A9F2112341F0F09496
:100C8000E094D094C094C11CD11CE11CF11CD09202
:100C90004C02C0924B02CD2809F4BEC084E392E01E
:100CA0000E94E303C0904B02D0904C020D2C000C2C
:100CB000EE08FF08F7FE6DC06DE281E592E00E944C
:100CC000440222273327A9012C193D094E095F0947
:100CD00019A2FE01B1967F01CA01B901A5019401D3
:100CE0000E942907605DF70162937F01211531059C
:100CF0004105510589F7E114F10419F0C7010E947B
:100D0000E30383E492E00E94E30360E086E30E9451
:100D1000490360E087E30E94490360E088E30E94A2
:100D2000490360E089E30E94490360E08AE30E948E
:100D3000490360E08BE30E94490360E08CE30E947A
:100D4000490360E08DE30E94490360E08EE30E9466
:100D50004903E0904B02F0904C0261E086E3F1E041
:100D6000EF16F10431F082E0E816F10441F561E09C
:100D700087E30E94490386E0E816F10441F561E04B
:100D80008BE348C081E592E00E94AA0138CF11E0D0
:100D900067CFA701960119A2CE0181967C01CA01F5
:100DA000B901A50194010E942907605DF7016293D2
:100DB0007F01211531054105510589F79CCF93E04D
:100DC000E916F10459F461E088E30E94490361E007
:100DD0008CE397E0E916F104E9F008C0E4E0EE16D0
:100DE000F10489F461E089E30E94490361E08DE345
:100DF000E8E0EE16F10471F0F9E0EF16F10461F4A9
:100E000061E08EE307C061E08AE3F5E0EF16F104EC
:100E100009F0B1CF0E9449030E94B102F0CE0E94B6
:100E20001A07A59F900DB49F900DA49F800D911D52
:100E300011240895A29FB001B39FC001A39F700D1C
:100E4000811D1124911DB29F700D811D1124911DD2
:100E50000895A1E21A2EAA1BBB1BFD010DC0AA1FFB
:100E6000BB1FEE1FFF1FA217B307E407F50720F013
:100E7000A21BB30BE40BF50B661F771F881F991F8E
:100E80001A9469F760957095809590959B01AC01D7
:100E9000BD01CF010895EE0FFF1F881F8BBF079084
:0A0EA000F691E02D1994F894FFCFAD
:100EAA001D1B19171F2123253738392F3435362AA8
:100EBA003132332D6F303D2B0000000044026E01A9
:100ECA009B0191020C02AA01BE0100000000DF038F
:100EDA00DB03B3030A49207265636965766564209A
:060EEA003A20000D0A0091
:00000001FF
