:1000000014C1000043C1000041C100003FC1000015
:100010003DC100003BC1000039C1000037C10000F4
:1000200035C1000033C1000031C100002FC1000004
:100030002DC100002BC1000029C1000027C1000014
:1000400025C1000023C1000021C100001FC1000024
:100050001DC100001BC1000019C10000B1C3000098
:1000600015C1000013C1000011C100000FC1000044
:100070000DC100000BC1000009C1000007C1000054
:1000800005C1000003C1000001C10000FFC0000065
:10009000FDC00000FBC00000F9C00000DBC3000091
:1000A000F5C00000F3C00000F1C00000EFC0000088
:1000B000EDC00000EBC00000E9C00000E7C0000098
:1000C000E5C00000E3C00000E1C00000DFC00000A8
:1000D000DDC00000DBC00000D9C00000D7C00000B8
:1000E000D5C000008D0190017F0183018901C70106
:1000F000940198019E01A201A601AC01B001B401D6
:10010000C701BA01BE01C20100002100240027007E
:100110002A002D0030003300010100000401070116
:100120000A0100002200250028002B002E003100CB
:10013000340002010000050108010B01000020004D
:100140002300260029002C002F00320000010000AF
:10015000030106010901050505050705080808084A
:10016000020202020A0A080804040404010101014F
:10017000010101010303030303030303040707074A
:100180000C0C0C0C0C0C0C0C0202020206060606EF
:10019000060606060B0B0B0B0B0B0B0B01021020BC
:1001A00020080810204010204080020102010804AD
:1001B0000201010204081020408080402010080441
:1001C000020180040201804020100804020108049A
:1001D00002010102040810204080010204081020DE
:1001E000408000000A0B02090C0D0E0807030401F1
:1001F00000000000000000000000000000000000FF
:1002000000000000000000000000000000001211CB
:1002100010000000000000000000000000000000CE
:100220000000000000000000840C11241FBECFEF6E
:10023000D1E2DEBFCDBF00E00CBF13E0A0E0B2E032
:10024000E6E8FAE100E00BBF02C007900D92AC3582
:10025000B107D9F724E0ACE5B3E001C01D92A83B9B
:10026000B207E1F711E0C5E1D1E000E006C0219757
:100270000109802FFE010E94350DC431D10780E0B5
:100280000807A9F70E94EC090C94410DB9CECF9252
:10029000DF92EF92FF920F931F93CF93DF936C0146
:1002A0007A018B01C0E0D0E0CE15DF0589F0D801DE
:1002B0006D918D01D601ED91FC910190F081E02DC1
:1002C000C6011995892B11F47E0102C02196ECCF4D
:1002D000C701DF91CF911F910F91FF90EF90DF90B9
:1002E000CF90089590E0FC013197E231F10508F0DC
:1002F0004EC08827EE58FF4F8F4F0C94350D8091DC
:1003000080008F7703C0809180008F7D8093800074
:10031000089580918000877FF9CF84B58F7702C0E0
:1003200084B58F7D84BD08958091B0008F7703C020
:100330008091B0008F7D8093B000089580919000EF
:100340008F7707C0809190008F7D03C080919000CF
:10035000877F8093900008958091A0008F7707C0D9
:100360008091A0008F7D03C08091A000877F809343
:10037000A0000895809120018F7707C0809120010F
:100380008F7D03C080912001877F80932001089595
:100390003FB7F8948091CA039091CB03A091CC030E
:1003A000B091CD0326B5A89B05C02F3F19F001964B
:1003B000A11DB11D3FBFBA2FA92F982F8827820FEB
:1003C000911DA11DB11DBC01CD0142E0660F771F3B
:1003D000881F991F4A95D1F708958F929F92AF92E7
:1003E000BF92CF92DF92EF92FF926B017C01D0DF40
:1003F0004B015C01C114D104E104F104E9F0C8DF50
:10040000DC01CB0188199909AA09BB09883E9340F0
:10041000A105B10578F321E0C21AD108E108F1087D
:1004200088EE880E83E0981EA11CB11CC114D10473
:10043000E104F10421F7DECFFF90EF90DF90CF9041
:10044000BF90AF909F908F90089585ED8093BC00F2
:100450008091BC0084FDFCCF10920004089540916F
:10046000A003262F30E0240F311D21323105DCF4AA
:10047000209100042430C9F4FC0180E090E086174C
:1004800058F43091A0032191DC01A258BC4FA30F76
:10049000B11D2C930196F3CF8091A003680F609358
:1004A000A00380E0089581E0089582E00895089512
:1004B000E091CF038091CE03E81730F4F0E0E25AE8
:1004C000FC4F808190E008958FEF9FEF0895909109
:1004D000CF038091CE03981750F4E92FF0E0E25A51
:1004E000FC4F208130E09F5F9093CF0302C02FEF3D
:1004F0003FEFC90108958091CE0390E02091CF0392
:10050000821B91090895CF92DF92EF92FF920F9391
:100510001F93CF93DF937C01262F972F8A01809121
:100520000104882391F0C62FD72F6E01C40ED51E6B
:10053000CC15DD0569F06991D701ED91FC91019031
:10054000F081E02DC7011995F3CF642F822F87DF4B
:10055000C801DF91CF911F910F91FF90EF90DF9035
:10056000CF900895CF93DF931F92CDB7DEB7698305
:10057000209101042223D1F020912404203240F064
:1005800021E030E0FC013383228380E090E014C05E
:1005900080910204E82FF0E0ED5FFB4F998190839A
:1005A0008F5F809302048093240404C061E0CE0135
:1005B000019655DF81E090E00F90DF91CF91089593
:1005C000089580E090E008958F929F92AF92BF923D
:1005D0000F931F93CF93DF93CDB7DEB7A1970FB6DD
:1005E000F894DEBF0FBECDBF19A2423008F44AE036
:1005F0008E010F5D1F4F842E912CA12CB12CA501D3
:1006000094010E94130DE62FB901CA01015011098E
:10061000EA3014F4E05D01C0E95CD801EC93232BCF
:10062000242B252B61F7C80133D6A1960FB6F89479
:10063000DEBF0FBECDBFDF91CF911F910F91BF9055
:10064000AF909F908F9008950E943D0DCF93DF93C0
:10065000282F30E0F901EE51FE4F8491F901E45664
:10066000FE4FD491F901EA5AFE4FC491CC2389F090
:10067000811138DEEC2FF0E0EE0FFF1FE45CFE4F3F
:10068000A591B491EC91ED2381E090E021F480E01C
:1006900002C080E090E0DF91CF910895862FD6CF01
:1006A0001F93CF93DF93282F30E0F901EE51FE4FD7
:1006B0008491F901E456FE4FD491F901EA5AFE4FB4
:1006C000C491CC23C1F0162F81110CDEEC2FF0E089
:1006D000EE0FFF1FEE5DFE4FA591B4918FB7F8941A
:1006E000111105C09C91ED2FE095E92302C0EC911A
:1006F000ED2BEC938FBFDF91CF911F910895CF9396
:10070000DF93EC0160E08E81CBDF61E08E81C8DF9A
:1007100060E08E81C5DF8BE891E00197F1F7DF9112
:10072000CF910895862F642FBBCFCF93DF9390E0B6
:10073000FC01E456FE4F2491FC01EA5AFE4F8491DD
:10074000882361F190E0880F991FFC01E85FFE4F5C
:10075000C591D491FC01EE5DFE4FA591B49161115C
:1007600009C09FB7F8948881209582238883EC91F3
:100770002E230BC0623061F49FB7F8943881822F2A
:10078000809583238883EC912E2B2C939FBF06C0EA
:100790008FB7F894E8812E2B28838FBFDF91CF91FC
:1007A0000895862F642FC1CF2FB7F8946091C603A8
:1007B0007091C7038091C8039091C9032FBF08951A
:1007C0001F920F920FB60F9211242F933F938F9386
:1007D0009F93AF93BF938091C6039091C703A0915D
:1007E000C803B091C9033091C50323E0230F2D370F
:1007F00020F40196A11DB11D05C026E8230F029625
:10080000A11DB11D2093C5038093C6039093C70318
:10081000A093C803B093C9038091CA039091CB03FE
:10082000A091CC03B091CD030196A11DB11D809381
:10083000CA039093CB03A093CC03B093CD03BF9195
:10084000AF919F918F913F912F910F900FBE0F907D
:100850001F9018951F920F920FB60F9211240BB68E
:100860000F922F933F934F935F936F937F938F9349
:100870009F93AF93BF93EF93FF938091B900887FCD
:10088000803609F49CC068F5883209F45BC090F4A6
:10089000803109F454C038F4882309F4F6C0883054
:1008A00009F44DC0F5C0883109F44CC0803209F418
:1008B0005DC0EEC0803409F468C048F4803309F4A8
:1008C00055C0883309F0E4C08093FE03D8C080355A
:1008D00009F44FC0883509F45DC0883409F0D8C0E8
:1008E000D6C0883909F4C7C0A8F4883709F467C0AE
:1008F00038F4883609F463C0803709F460C0C8C092
:10090000883809F4B8C0803909F45FC0803809F02C
:10091000BFC05BC0803B09F486C038F4803A09F45C
:1009200066C0883A09F47FC0B3C0803C09F4A7C010
:10093000883C09F4A4C0883B09F48AC0A9C080910E
:10094000DB0310C09091FD038091FC03981770F5B4
:10095000E091FD0381E08E0F8093FD03F0E0E4520F
:10096000FC4F80818093BB0085EC86C08093FE03A2
:100970008EC0E091FD0381E08E0F8093FD03809196
:10098000BB00F0E0E452FC4F80839091FD03809126
:10099000FC036EC0E091FD0381E08E0F8093FD03A8
:1009A0008091BB00F0E0E452FC4F80838091FF0314
:1009B00081116DC081E08093DA0384EA61C083E035
:1009C000809300041092C403CFCF8091C40380327F
:1009D00008F051C0E091C40381E08E0F8093C403FE
:1009E0008091BB00F0E0EC55FC4F8083BDCF85ECDF
:1009F0008093BC00109200048091C403803230F4D4
:100A0000E091C403F0E0EC55FC4F10826091C40308
:100A100070E0E091A203F091A30384EA93E01995BA
:100A20001092C40335C084E0809300041092A103A7
:100A30001092A003E0919E03F0919F03199580917D
:100A4000A003811105C081E08093A00310927E0372
:100A5000E091A10381E08E0F8093A103F0E0E258C2
:100A6000FC4F80818093BB009091A1038091A003F3
:100A7000981708F479CF85E88093BC0009C085EC0D
:100A80008093BC001092000403C01092FE03DDDCD2
:100A9000FF91EF91BF91AF919F918F917F916F9156
:100AA0005F914F913F912F910F900BBE0F900FBE12
:100AB0000F901F901895CF92DF92EF92FF920F93B5
:100AC0001F93CF93DF937C016C0187E0C80ED11C8C
:100AD000C0E0D0E0062F10E0B8010C2E02C07595E2
:100AE00067950A94E2F76170F60181916F01D8DD94
:100AF0002196C430D10581F7C701DF91CF911F91B5
:100B00000F91FF90EF90DF90CF90F9CDCF92DF92D1
:100B1000EF92FF920F931F93CF93DF93EC01F62E8A
:100B2000642F8C81BDDD8D818F3F11F060E0B8DDD9
:100B30008F850F2D10E084FF23C06E0187E0C80E63
:100B4000D11CE12CF12CB8010E2C02C075956795D3
:100B50000A94E2F76170F60181916F01A1DDFFEF68
:100B6000EF1AFF0A88E0E816F10469F7CE01DF9179
:100B7000CF911F910F91FF90EF90DF90CF90BFCD5D
:100B8000B80184E0759567958A95E1F7CE0193DF0A
:100B90006F2DCE01DF91CF911F910F91FF90EF90BC
:100BA000DF90CF9088CF41E0B1DF81E090E0089501
:100BB00040E0ACCF61E0FCDF8BE39FE10197F1F710
:100BC000089581E394E0F6DF60E081E074D380E48F
:100BD00092E070D361E080E06ED38EE492E06AD35D
:100BE00016D28823E9F3813341F481E090E09093B9
:100BF0005D0380935C0380E01CC0823339F481E0A4
:100C000090E090935D0380935C0313C0833341F4C1
:100C100081E090E090935D0380935C0382E009C0E3
:100C20008433F1F681E090E090935D0380935C0360
:100C300083E0B2D36AE070E080E090E0CEDB00C0F9
:100C4000CF93DF9360E08EE02BDD60E08FE028DD66
:100C500060E080E125DD60E081E122DD81E394E078
:100C6000A9DF81E090E090935D0380935C03809323
:100C7000010480E58093230410920204109224045E
:100C800080E090E0B5D181E090E0B2D180E027D360
:100C9000809100048111FCCF81E080930004809357
:100CA000FF039FEF9093FE031092FD031092FC034D
:100CB0008093DB038091DB03806A8093DB03809168
:100CC000DA03813061F41092DA038091DB038093C0
:100CD000BB008091BC0083FDF8CF85EC01C085EEA0
:100CE0008093BC00809100048130E1F38091FD038A
:100CF000811103C08091FD0301C081E0ACEDB3E040
:100D00002EE533E0F9019E2F921B981718F49D9160
:100D10009193F9CF1092CF038093CE03882321F0D3
:100D200085E294E0D4DB01C08FEFC82FD0E06AE009
:100D300070E080E090E051DB209779F460E084E09F
:100D4000BAD28FE592E0B6D261E086E0B4D28CE709
:100D500092E0B0D261E08EE034C0C130D10579F4C8
:100D600060E083E0A8D288E692E0A4D261E081E06E
:100D7000A2D282E792E09ED261E08FE022C0C23030
:100D8000D10579F460E080E096D281E892E092D2D9
:100D900061E085E090D28CE792E08CD261E080E166
:100DA00010C02397C9F460E081E085D281E992E028
:100DB00081D261E085E07FD28CE792E07BD261E076
:100DC00081E16EDC60ED77E080E090E006DB81E3BE
:100DD00094E0DF91CF91EECEDF91CF91F2CE96E00D
:100DE000899FD0011124A75BBB4F90967C936E9393
:100DF0005F9791E091969C9391979091B504E091C3
:100E0000B604F091B704992339F0309751F081116D
:100E100008C08091650404C0309719F05C968C91ED
:100E2000199408950F931F93CF93DF93C82FD62F54
:100E300086E0C89FF0011124E75BFB4F11A2878D6C
:100E400090A181309105E1F01CF4892B49F03FC05D
:100E50008230910591F10397D1F560E070E031C0E7
:100E60006623A9F161E070E08C2FB9DF9DDC60930F
:100E7000A1047093A2048093A3049093A40427C0B8
:100E800093DC0091A1041091A2042091A30430915D
:100E9000A404AB01BC01401B510B620B730B80918E
:100EA000B3049091B404A0E0B0E084179507A607BE
:100EB000B70718F462E070E004C0D11108C063E025
:100EC00070E08C2FDF91CF911F910F9188CFDF9130
:100ED000CF911F910F910895EF92FF920F931F935F
:100EE000CF93DF93EC01623018F08F8588608F8795
:100EF0006B8B1C8A80E48D8B80E18E8B80E58F8BE1
:100F000061E08C8112DC8D818F3F11F061E00DDC9E
:100F100061E08E810ADC7E0187E0E80EF11C00E0D2
:100F200010E08F8584FD03C084E090E002C088E07B
:100F300090E00817190744F461E0F70181917F01FF
:100F4000F4DB0F5F1F4FEDCF8BE39DE00197F1F7CF
:100F500060E08C81A5DB60E08E81A2DB8D818F3F1C
:100F600011F060E09DDB6F8564FD19C063E0CE0188
:100F7000A2DD0BE416E4C8010197F1F763E0CE01AE
:100F80009ADDC8010197F1F763E0CE0194DD83E5B6
:100F900092E00197F1F762E0CE018DDD13C060624F
:100FA000CE0106DE8BE496E40197F1F76F8560626F
:100FB000CE01FEDD83E592E00197F1F76F85606277
:100FC000CE01F6DD6F856062CE01F2DD84E0888BB4
:100FD0006CE0CE01EDDDCE01EDDD82E0898B66E0D7
:100FE000CE01DF91CF911F910F91FF90EF90E0CD57
:100FF000682F85E294E0B6CAE0913104F0913204A2
:101000000190F081E02D682F81E394E019946F92B4
:101010007F928F929F92AF92BF92CF92DF92EF9288
:10102000FF920F931F93CF93DF9381E08093B504DA
:10103000BBDB0091A5041091A6042091A704309178
:10104000A804AB01BC01401B510B620B730B8091D8
:10105000B1049091B204A0E0B0E084179507A60710
:10106000B70708F003C1C0E08091AF04C81758F477
:10107000E091AB04F091AC04EC0FF11D62E08081D3
:1010800054DBCF5FF1CF712C812C912C54018394D0
:101090008091B004781608F05AC0072D10E0E09156
:1010A000AD04F091AE04E00FF11F61E080813DDB03
:1010B000E091AD04F091AE04E00FF11F60E080819B
:1010C000EFDAD501C401072C04C0880F991FAA1FAD
:1010D000BB1F0A94D2F76C017C01E094F094612C60
:1010E0008091AF046816F0F4C62DD0E0E091AB0417
:1010F000F091AC04EC0FFD1F8081A8DA2496CC0F90
:10110000DD1FC75BDB4F892B29F4888199818C29EE
:101110009D2904C0888199818E219F21998388838C
:101120006394DECFE091AD04F091AE04E00FF11FC7
:1011300061E08081B5DA8091AD049091AE04FC014C
:10114000E00FF11F60E08081F0DA7394A1CFE5E653
:10115000F4E08FEF9FEF23813481232B21F4108261
:10116000928381831582369624E0E13AF20799F75B
:1011700010E096E0F92E8091AF04181708F051C0E6
:1011800000E0C12FD0E0CC0FDD1FCF5ADB4F209104
:10119000B004021708F043C068817981002E02C0B4
:1011A000769567950A94E2F761707727129F900110
:1011B0001124200F311DE091A904F091AA04E20F3F
:1011C000F31F4081E9E4F4E080E0A58DB68DA2171D
:1011D000B30711F461701AC08F5F36968A30A9F791
:1011E000672BD9F0E5E6F4E080E090E05081511102
:1011F0000FC0F89EF001F99EF00D1124E75BFB4F44
:10120000448F368F258F10A2178E61E00BDE05C04C
:10121000019636968A30910549F70F5FB8CF1F5F68
:10122000AACF80E090E0C0E0FC01E75BFB4F21A18A
:101230002111C1E006968C339105B1F7B5DA6093C0
:10124000A5047093A6048093A7049093A804CC23CC
:1012500069F080916A04882349F080916804909134
:101260006904019719F48091650403C01092B504D4
:1012700080E0DF91CF911F910F91FF90EF90DF9071
:10128000CF90BF90AF909F908F907F906F90089578
:10129000009769F0FC0101900020E9F73197AF0158
:1012A000481B590BBC0181E394E00C94470180E09A
:1012B00090E00895EDCF643008F063E0909144042D
:1012C000691710F06FEF690FE62FF0E0EF5CFB4F4E
:1012D0009489682F690F606881E394E069CC382FA6
:1012E0002091240490912304213208F049C0809178
:1012F00000048111FCCF42E0409300043093FF03CF
:101300003FEF3093FE031092FD032093FC03A3E014
:10131000B4E04CED53E0FA013E2F341B321718F4C1
:101320003D913193F9CF1092DB032091DB03990FAC
:10133000922B9093DB039091DA03913061F4109239
:10134000DA039091DB039093BB009091BC0093FD76
:10135000F8CF95EC01C095EE9093BC0090910004FD
:101360009230E1F39091FE039F3F79F08091FE036C
:10137000803241F08091FE03803331F084E005C07B
:1013800081E003C082E001C083E010920204109269
:101390002404109201040895CF93DF931F92CDB7D8
:1013A000DEB7682F81E08093010480E580932304F9
:1013B000109202041092240480E090E0698318DE09
:1013C00081E090E015DE698185E294E0CBD881E090
:1013D0000F90DF91CF9183CF789484B5826084BDE4
:1013E00084B5816084BD85B5826085BD85B5816029
:1013F00085BD80916E00816080936E0010928100A7
:101400008091810082608093810080918100816061
:101410008093810080918000816080938000809122
:10142000B10084608093B1008091B00081608093AE
:10143000B000809191008260809391008091910032
:1014400081608093910080919000816080939000F2
:101450008091A10082608093A1008091A1008160B1
:101460008093A1008091A00081608093A000809172
:10147000210182608093210180912101816080930C
:1014800021018091200181608093200180917A0068
:10149000846080937A0080917A00826080937A00E1
:1014A00080917A00816080937A0080917A008068D0
:1014B00080937A001092C1001092CF031092CE0355
:1014C00010920204109224041092000481E0809390
:1014D000FF031092DA0361E084E1E2D861E085E184
:1014E000DFD88091B9008E7F8093B9008091B900D8
:1014F0008D7F8093B90088E48093B80085E4809361
:10150000BC0062E081E394E0E7DC61E08EE00DD9AD
:1015100061E08FE00AD961E080E107D961E081E113
:1015200004D960E081E0C7DE8FE992E0C3DE60EDC0
:1015300077E080E090E00E94ED0181E394E03ADB07
:101540007FDB8AE0982E90E0E92E90E0F92ECC2403
:10155000C394D12C0CE310E060E081E0ACDE8EEAB5
:1015600092E0A8DE61E082E0A6DE8DEB92E0A2DEF2
:101570004EDD8A3219F481E08093D9038091D9033A
:10158000882309F4BAC181E394E014DB1ADB60E03C
:1015900081E091DE89EC92E08DDE61E083E08BDE1C
:1015A00088ED92E087DE33DD8823E9F381E394E080
:1015B00001DB60E082E07FDE83EE92E07BDE61E0D3
:1015C00085E079DE80EF92E075DEC0E0D0E0A12C0E
:1015D000B12C1DDD8093D0038A32C1F4D093D203A5
:1015E000C093D10381E394E0E5DA60E082E063DE5A
:1015F00085EF92E05FDE61E085E05DDE82E093E012
:1016000059DEC0E0D0E0A12CB12C26C093E0A91691
:10161000B10424F790ED980F9A30D8F692E0A9160D
:10162000B104B9F2E9DC9C9EC0019D9E900D11248D
:10163000C091D0030C2E000CDD0BE097C80FD91F12
:101640008FEFA81AB80AC5CF93E0A916B1044CF4DD
:1016500090ED980F9A30E8F0DADC8093D0038A326C
:1016600099F7D093D403C093D30381E394E0A2DA33
:1016700060E083E020DE87E093E01CDE61E085E04F
:101680001ADE82E193E016DEC0E0D0E0A12CB12C9E
:101690001EC092E0A916B104F9F2AEDC9C9EC00116
:1016A0009D9E900D1124C091D0030C2E000CDD0BDB
:1016B000E097C80FD91F8FEFA81AB80ACDCF93E0D3
:1016C000A916B1044CF490ED980F9A3068F09FDCA5
:1016D0008093D0038A3299F7D093D603C093D50371
:1016E00081E394E067DA1CC092E0A916B10479F3B3
:1016F00083DC9C9EC0019D9E900D1124C091D0035F
:101700000C2E000CDD0BE097C80FD91F8FEFA81A25
:10171000B80ADDCF62E573E080E090E00E94ED0161
:101720008091D1039091D203009729F00197909373
:10173000D2038093D1032091D5033091D6038091B9
:10174000D1039091D203232B49F42091D3033091FC
:10175000D403232B19F4009709F447C00A9718F40F
:1017600061E084E0A8DD88E193E0A4DD8091D1030D
:101770009091D203892BA9F461E081E09CDD88E19E
:1017800093E098DD1093D2030093D1038091D303AB
:101790009091D403009729F001979093D4038093FC
:1017A000D3038091D3039091D403892BD9F48091F2
:1017B000D1039091D203892BA9F461E081E07BDD14
:1017C00088E193E077DD1093D4030093D3038091F5
:1017D000D5039091D603009729F001979093D603F3
:1017E0008093D50380E090E002C081E090E0909388
:1017F000D8038093D70360E081E05DDD89E293E068
:1018000059DD61E085E057DD6091D5037091D60325
:1018100080E090E04AE00E94E40283EF92E04ADD3B
:101820006091D3037091D40380E090E04AE00E947D
:10183000E40283EF92E03EDD6091D1037091D20328
:1018400080E090E04AE00E94E402E1DB8093D00374
:10185000882309F18134C1F461E080E02CDD88E166
:1018600093E028DD61E085E026DD88E393E022DD7A
:10187000CEDB8093D0038434D9F761E080E01BDDB8
:1018800088E193E017DD07C0833229F4D092D803B2
:10189000C092D70332C08091D7039091D8030197AB
:1018A00009F038CF81E394E085D960E080E003DD82
:1018B0008EE393E0FFDC61E083E0FDDC8FE493E006
:1018C000F9DC61E08EE00E94500361E08FE00E944D
:1018D000500361E080E10E94500361E081E10E94D9
:1018E000500395DB8823E9F381E394E063D91092F8
:1018F000D9031092D8031092D703E114F10409F42C
:101900002BCE0E94000028CE1092280410922704AB
:1019100088EE93E0A0E0B0E08093290490932A043D
:10192000A0932B04B0932C048CE192E090932604B6
:101930008093250410924B0410924F0410924E0491
:10194000109250048AE392E090934A0480934904F1
:1019500080E090E0FC01E75BFB4F148E10A2178E35
:1019600011A206968C339105A9F784E092E090933A
:10197000AC048093AB0480E092E09093AE0480933B
:10198000AD0484E08093AF048093B00488E092E0DB
:101990009093AA048093A9048AE090E09093B20403
:1019A0008093B10484EF91E09093B4048093B304E6
:1019B0001092B7041092B6041092A5041092A604D7
:1019C0001092A7041092A8041092B5041092340447
:1019D000109233048EE292E09093320480933104AB
:1019E0008DE0809335048FEF809336048CE08093F4
:1019F00037048BE0809338048AE08093390489E0CF
:101A000080933A0488E080933B0410923C04109247
:101A10003D0410923E0410923F041092400461E095
:101A200081E394E059CAA1E21A2EAA1BBB1BFD0157
:101A30000DC0AA1FBB1FEE1FFF1FA217B307E407AD
:101A4000F50720F0A21BB30BE40BF50B661F771F05
:101A5000881F991F1A9469F76095709580959095E5
:101A60009B01AC01BD01CF010895EE0FFF1F881F40
:101A70008BBF0790F691E02D199481E090E0F894E7
:061A800000C0F894FFCF46
:101A8600030201000506070431323341343536427C
:101A9600373839432A30234400000000B20283025B
:101AA600E10257027B026702580200000000D305DC
:101AB6004701E102E00200000000D10392034E0359
:101AC60053656C65637420646576696365006D6F44
:101AD60064652077697468206B657970616400506D
:101AE600726520776173680057617368207769743F
:101AF6006800446574657267656E74204D6F646531
:101B0600005761736820776974682077617465721D
:101B160000436C6F7468657320647279657200485F
:101B260069204465617220557365723A29004F4EEB
:101B36002F4320666F7220537461727400203D201B
:101B4600666F722053746F7000456E746572205410
:101B5600696D6520416E64005072657373204F4E47
:101B66002F4300456E746572205365636F6E640083
:101B76007365633A00456E746572204D696E7574BF
:101B860065006D696E3A00456E74657220686F7502
:101B96007200686F75723A002020202020202020D5
:101BA60020202020202020200052454D41494E492A
:101BB6004E472054494D450050415553450046690E
:101BC6006E69736821507265737320416E79004B9C
:0C1BD600657920746F2065786974000048
:020000023000CC
:10E000000D9489F10D94B2F10D94B2F10D94B2F129
:10E010000D94B2F10D94B2F10D94B2F10D94B2F1F0
:10E020000D94B2F10D94B2F10D94B2F10D94B2F1E0
:10E030000D94B2F10D94B2F10D94B2F10D94B2F1D0
:10E040000D94B2F10D94B2F10D94B2F10D94B2F1C0
:10E050000D94B2F10D94B2F10D94B2F10D94B2F1B0
:10E060000D94B2F10D94B2F10D94B2F10D94B2F1A0
:10E070000D94B2F10D94B2F10D94B2F10D94B2F190
:10E080000D94B2F10D94B2F10D94B2F10D94B2F180
:10E090000D94B2F10D94B2F10D94B2F10D94B2F170
:10E0A0000D94B2F10D94B2F10D94B2F10D94B2F160
:10E0B0000D94B2F10D94B2F10D94B2F10D94B2F150
:10E0C0000D94B2F10D94B2F10D94B2F10D94B2F140
:10E0D0000D94B2F10D94B2F10D94B2F10D94B2F130
:10E0E0000D94B2F141546D656761323536300041AF
:10E0F000726475696E6F206578706C6F72657220DE
:10E1000073746B3530305632206279204D4C530099
:10E11000426F6F746C6F616465723E004875683F52
:10E1200000436F6D70696C6564206F6E203D200048
:10E130004350552054797065202020203D20005FF9
:10E140005F4156525F415243485F5F3D2000415658
:10E1500052204C696243205665723D20004743437C
:10E160002056657273696F6E203D20004350552024
:10E1700049442020202020203D20004C6F7720663D
:10E18000757365202020203D20004869676820665F
:10E190007573652020203D200045787420667573D6
:10E1A00065202020203D20004C6F636B2066757336
:10E1B000652020203D20004D617220203720323024
:10E1C000313300312E362E3800342E332E350056A2
:10E1D00023202020414444522020206F7020636F70
:10E1E00064652020202020696E73747275637469E1
:10E1F0006F6E2061646472202020496E74657272B3
:10E20000757074006E6F20766563746F7200726A49
:10E210006D702020006A6D70200057686174207056
:10E220006F72743A00506F7274206E6F7420737541
:10E2300070706F72746564004D7573742062652030
:10E2400061206C6574746572002000577269747483
:10E25000696E672045450052656164696E672045B7
:10E26000450045452065727220636E743D00504F35
:10E27000525400303D5A65726F2061646472003FF1
:10E280003D43505520737461747300403D454550C3
:10E29000524F4D207465737400423D426C696E6B41
:10E2A000204C454400453D44756D70204545505215
:10E2B0004F4D00463D44756D7020464C415348001B
:10E2C000483D48656C70004C3D4C69737420492F83
:10E2D0004F20506F72747300513D51756974005234
:10E2E0003D44756D702052414D00563D73686F7707
:10E2F00020696E7465727275707420566563746FF0
:10E30000727300593D506F727420626C696E6B00BD
:10E310002A0011241FBECFEFD1E2DEBFCDBF01E046
:10E320000CBF12E0A0E0B2E0EEE1FDEF03E00BBFB6
:10E3300002C007900D92A030B107D9F712E0A0E01B
:10E34000B2E001C01D92AE30B107E1F70F9460F367
:10E350000D948DFE01E20EBF0FEF0DBF11241FBE05
:10E360000D9460F30D9400F020E030E040ED57E0B4
:10E3700005C0FA013197F1F72F5F3F4F2817390792
:10E38000C0F308959C01260F311DC901A0E0B0E043
:10E390002F5F3F4FABBFFC018791882361F08093D3
:10E3A000C6008091C00086FFFCCF8091C0008064D1
:10E3B0008093C000EACF08958DE08093C6008091DD
:10E3C000C00086FFFCCF8091C00080648093C000B5
:10E3D0008AE08093C6008091C00086FFFCCF8091C8
:10E3E000C00080648093C00008950F94C2F10F9420
:10E3F000DCF10895FC019081992359F09093C600B7
:10E400008091C00086FFFCCF8091C0008064809323
:10E41000C0003196992379F70895282F982F929567
:10E420009F70892F805D8A3308F0895F8093C600D2
:10E430008091C00086FFFCCF8091C00080648093F3
:10E44000C000822F8F70982F905D9A3308F0995FEB
:10E450009093C6008091C00086FFFCCF8091C000E1
:10E4600080648093C00008959C01FB01853691056E
:10E470001CF46330710594F0C90164E670E00F94F8
:10E480002EFE605D7F4F6093C6008091C00086FFC6
:10E49000FCCF8091C00080648093C0002B30310598
:10E4A00014F43297B4F0C90164E670E00F942EFEC4
:10E4B0006AE070E00F942EFE605D7F4F6093C600AF
:10E4C0008091C00086FFFCCF8091C0008064809363
:10E4D000C000C9016AE070E00F942EFEC0968093E0
:10E4E000C6008091C00086FFFCCF8091C000806490
:10E4F0008093C00008951F93182F8EE692EE60E07F
:10E500000F94C2F11093C6008091C00086FFFCCF2B
:10E510008091C00080648093C0000F94DCF11F9153
:10E5200008952F923F924F925F926F927F928F92B7
:10E530009F92AF92BF92CF92DF92EF92FF920F9392
:10E540001F93DF93CF93CDB7DEB762970FB6F894E2
:10E55000DEBF0FBECDBF382E622ECA01DB015C01CB
:10E560006D01772420E2222E2E010894411C511CBB
:10E570008BC081E0A81680E0B80681E0C80680E084
:10E58000D80628F0C601AA27BB270F940DF2BB2797
:10E59000AD2D9C2D8B2D0F940DF28A2D0F940DF225
:10E5A0002092C6008091C00086FFFCCF8091C00001
:10E5B00080648093C0009DE29093C6008091C0006B
:10E5C00086FFFCCF8091C00080648093C0002092C1
:10E5D000C6008091C00086FFFCCF8091C00080649F
:10E5E0008093C00019828601750188249924A1E0D6
:10E5F0003A1651F03A1620F0B2E03B1661F409C029
:10E600000BBFF701779007C0C7010F9477FE782EF4
:10E6100002C0F7017080872D0F940DF22092C60082
:10E620008091C00086FFFCCF8091C0008064809301
:10E63000C000872D8052F401EF70F0708F3520F408
:10E64000E40DF51D708204C0E40DF51D8EE280839B
:10E650000894E11CF11C011D111D0894811C911CE2
:10E6600090E18916910409F0C2CF80E190E0A0E02A
:10E67000B0E0A80EB91ECA1EDB1E198AC2010F9493
:10E68000FAF10F94DCF16A94662009F072CF629679
:10E690000FB6F894DEBF0FBECDBFCF91DF911F91B3
:10E6A0000F91FF90EF90DF90CF90BF90AF909F9031
:10E6B0008F907F906F905F904F903F902F90089534
:10E6C0002F923F924F925F926F927F928F929F9282
:10E6D000AF92BF92CF92DF92EF92FF920F931F9370
:10E6E000DF93CF93CDB7DEB7CD53D1400FB6F894BB
:10E6F000DEBF0FBECDBF01E20EBF0FEF0DBF94B75F
:10E70000F894A89514BE80916000886180936000A1
:10E7100010926000789493FF05C0E0910002F091A0
:10E7200001021995279A2F9A8091C00082608093E8
:10E73000C00080E18093C40088E18093C1000000A4
:10E74000EE24FF24870144E0A42EB12CCC24DD2448
:10E7500024C0C5010197F1F70894E11CF11C011DCB
:10E76000111D21E2E2162EE4F20620E0020720E06D
:10E77000120718F031E0C32ED12CC801B70127ECE5
:10E780003BE140E050E00F9441FE611571058105C9
:10E79000910519F485B1805885B98091C00087FD35
:10E7A00003C0C114D104A9F2A6014F5F5F4FC25E3E
:10E7B000DE4F59834883CE51D140C25EDE4F8881FF
:10E7C0009981CE51D140019711F00D9410FEC05D9A
:10E7D000DE4F19821882C053D14060E0C15DDE4F28
:10E7E0001882CF52D14088249924C35DDE4F19820C
:10E7F0001882CD52D140C05EDE4F188219821A8233
:10E800001B82C052D140CE5CDE4F188219821A8220
:10E810001B82C253D140EE24FF2487010BBFF701B6
:10E8200007911691C45CDE4F19830883CC53D14005
:10E830000D940BFEC25EDE4F28813981CE51D1404E
:10E840002130310509F52091C600C25EDE4F1982E4
:10E850001882CE51D14022C02F5F3F4F4F4F5F4FA4
:10E86000213082E138078AE7480780E0580780F0C6
:10E87000C45CDE4FE881F981CC53D140EF5FFF4F9C
:10E8800019F0EE27FF27099420E030E040E050E047
:10E890008091C00087FFE0CF2091C600C35DDE4FAE
:10E8A00048815981CD52D1404F5F5F4FC35DDE4FEC
:10E8B00059834883CD52D140213209F063C64A3092
:10E8C000510508F05FC60894811C911C53E0851621
:10E8D000910409F059C600E010E018C081E280936D
:10E8E000C6008091C00086FFFCCF8091C00080648C
:10E8F0008093C0002F5F3F4F2931310579F70F9486
:10E90000DCF10F5F1F4F0530110519F020E030E0FA
:10E91000E5CF10920A0210920B0210920C02109294
:10E920000D02109206021092070210920802109235
:10E930000902109202021092030210920402109235
:10E9400005028FEE90EE60E00F94F5F180E191EE1C
:10E9500060E00F94C2F18091C00087FFFCCF9091DE
:10E96000C600903608F09F759032B8F09093C600BC
:10E970008091C00086FFFCCF8091C00080648093AE
:10E98000C000A0E2A093C6008091C00086FFFCCF2B
:10E990008091C00080648093C000983409F4D7C18E
:10E9A0009934B8F4923409F459C1933458F490333B
:10E9B00019F1903308F4E3C59F33A1F1903409F0C5
:10E9C000DEC5BDC0953409F470C1963409F0D7C5D1
:10E9D00098C1923509F42BC2933538F49C3409F46C
:10E9E000F5C1913509F0CBC518C2963509F445C279
:10E9F000993509F0C4C567C483E792EE62E00F94CD
:10EA0000F5F110920602109207021092080210927D
:10EA1000090210920A0210920B0210920C0210923C
:10EA20000D0213C18FE792EE62E00F94F5F18FEEC5
:10EA300090EE60E00F94F5F181E291EE60E00F94CA
:10EA4000C2F187EB91EE60E00F94F5F180E391EE77
:10EA500060E00F94C2F184EE90EE60E00F94F5F167
:10EA60008FE391EE60E00F94C2F186E090E061E008
:10EA700070E00F9434F20F94DCF18DE591EE60E0DC
:10EA80000F94C2F189EC91EE60E00F94F5F18EE401
:10EA900091EE60E00F94C2F183EC91EE60E00F9490
:10EAA000F5F18CE691EE60E00F94C2F18EE10F94E7
:10EAB0000DF288E90F940DF281E00F940DF20F949E
:10EAC000DCF18BE791EE60E00F94C2F119E0E0E039
:10EAD000F0E010935700E4918E2F0F940DF20F94F5
:10EAE000DCF18AE891EE60E00F94C2F1E3E0F0E03F
:10EAF00010935700E4918E2F0F940DF20F94DCF1D8
:10EB000089E991EE60E00F94C2F1E2E0F0E0109349
:10EB10005700E4918E2F0F940DF20F94DCF188EAE8
:10EB200091EE60E00F94C2F1E1E0F0E01093570045
:10EB30001491812F0F940DF20F94DCF107CF8BE825
:10EB400092EE62E00F94F5F18BE492EE60E00F94A8
:10EB5000F5F10F94DCF100E010E019C0C8016F2D51
:10EB60000F947FFEFF2031F489E492EE60E00F9471
:10EB7000C2F10BC0F092C6008091C00086FFFCCFAE
:10EB80008091C00080648093C0000F5F1F4FC80158
:10EB900081519F41A0E0B0E0ABBFFC01F790BAE229
:10EBA000FB1621F0E2E000301E07C1F60F94DCF105
:10EBB0000F94DCF187E592EE60E00F94F5F10F948D
:10EBC000DCF1CC24DD2400E010E01EC0C8010F946D
:10EBD00077FEF82E882331F489E492EE60E00F94FA
:10EBE000C2F10BC08093C6008091C00086FFFCCFAD
:10EBF0008091C00080648093C000FE1419F00894D6
:10EC0000C11CD11C0F5F1F4FC80181519F41A0E063
:10EC1000B0E0ABBFFC01E790FAE2EF1621F022E092
:10EC20000030120799F60F94DCF10F94DCF182E6C4
:10EC300092EE60E00F94C2F1C60161E070E00F94C3
:10EC400034F20F94DCF10F94DCF110920202109276
:10EC50000302109204021092050278CE89E992EE26
:10EC600062E00F94F5F1279A2F9A16C02F9880E052
:10EC700090E0E0EDF7E03197F1F7019684369105E9
:10EC8000C1F72F9A80E090E0E0EDF7E03197F1F7DF
:10EC9000019684369105C1F78091C00087FFE6CFC9
:10ECA0008091C00087FFFCCF64C485EA92EE62E0E9
:10ECB0000F94F5F140910202509103026091040219
:10ECC0007091050281E020E10F9491F2809102029F
:10ECD00090910302A0910402B091050280509F4FD1
:10ECE000AF4FBF4F8093020290930302A0930402A0
:10ECF000B093050280509041A040B04008F426CE69
:10ED0000A4CF83EB92EE62E00F94F5F140910602FE
:10ED100050910702609108027091090280E020E1A1
:10ED20000F9491F28091060290910702A09108023F
:10ED3000B091090280509F4FAF4FBF4F80930602A2
:10ED400090930702A0930802B0930902FFCD80ECD4
:10ED500092EE62E00F94F5F183E792EE60E00F949B
:10ED6000F5F18FE792EE60E00F94F5F18BE892EE0B
:10ED700060E00F94F5F189E992EE60E00F94F5F10F
:10ED800085EA92EE60E00F94F5F183EB92EE60E09D
:10ED90000F94F5F180EC92EE60E00F94F5F187ECC2
:10EDA00092EE60E00F94F5F188ED92EE60E00F9442
:10EDB000F5F18FED92EE60E00F94F5F18AEE92EEB0
:10EDC00060E00F94F5F183E093EEBDCD87EC92EE19
:10EDD00062E00F94F5F181E40F947BF282E40F94EA
:10EDE0007BF283E40F947BF284E40F947BF285E45E
:10EDF0000F947BF286E40F947BF287E40F947BF20E
:10EE000088E40F947BF28AE40F947BF28BE40F94F6
:10EE10007BF28CE40F947BF299CD88ED92EE62E068
:10EE20000F94F5F1772473948824992409C48FED05
:10EE300092EE62E00F94F5F140910A0250910B02BC
:10EE400060910C0270910D0282E020E10F9491F22A
:10EE500080910A0290910B02A0910C02B0910D02D8
:10EE600080509F4FAF4FBF4F80930A0290930B0289
:10EE7000A0930C02B0930D0269CD8AEE92EE62E08F
:10EE80000F94F5F184EE90EE60E00F94F5F18FECC5
:10EE900091EE60E00F94F5F1662477244301CC5D98
:10EEA000DE4F19821882C452D140D401C301B695F5
:10EEB000A79597958795CA5DDE4F88839983AA8326
:10EEC000BB83C652D140CC5DDE4FA881B981C4520C
:10EED000D1401196CC5DDE4FB983A883C452D14096
:10EEE000CD0162E070E00F9434F2B0E2B093C6005E
:10EEF0008091C00086FFFCCF8091C0008064809329
:10EF0000C000EDE2E093C6008091C00086FFFCCF18
:10EF10008091C00080648093C000F0E2F093C6004E
:10EF20008091C00086FFFCCF8091C00080648093F8
:10EF3000C000CA5DDE4FE880F9800A811B81C6529D
:10EF4000D140BB27A12F902F8F2D0F940DF2CA5DBA
:10EF5000DE4F8881C652D1400F940DF2B0E2FB2EF5
:10EF6000F092C6008091C00086FFFCCF8091C00067
:10EF700080648093C0000DE30093C6008091C000C0
:10EF800086FFFCCF8091C00080648093C00010E2B7
:10EF90001093C6008091C00086FFFCCF8091C00016
:10EFA00080648093C0008BBEF3012791C65DDE4F65
:10EFB0002883CA52D140A22EBB24CC24DD2408943D
:10EFC000611C711C811C911C8BBEF3018791282E42
:10EFD0003324442455240894611C711C811C911C09
:10EFE0008BBEF3013791C55DDE4F3883CB52D140E4
:10EFF0000894611C711C811C911C8BBEF30147910C
:10F00000C45DDE4F4883CC52D140ADEFEA2EAFEF66
:10F01000FA2EAFEF0A2FAFEF1A2F6E0C7F1C801E57
:10F02000911E142D032DF22CEE24EA0CFB1C0C1D5A
:10F030001D1D0F940DF220E22093C6008091C000A8
:10F0400086FFFCCF8091C00080648093C000C65DC5
:10F05000DE4F8881CA52D1400F940DF230E23093D6
:10F06000C6008091C00086FFFCCF8091C000806404
:10F070008093C000C45DDE4F8881CC52D1400F9494
:10F080000DF240E24093C6008091C00086FFFCCFA5
:10F090008091C00080648093C000C55DDE4F888190
:10F0A000CB52D1400F940DF250E25093C6008091A4
:10F0B000C00086FFFCCF8091C00080648093C000B8
:10F0C0008FEFE8168FEFF80680E0080780E018075A
:10F0D00031F484E092EE60E00F94C2F1DFC0D80119
:10F0E000C7018070907CA070B0708050904CA040A0
:10F0F000B040D1F52FEF3FE340E050E0E222F322B1
:10F1000004231523CA5DDE4FA880B980CA80DB8046
:10F11000C652D140AE0CBF1CC01ED11EAA0CBB1CD7
:10F12000CC1CDD1C8EE092EE60E00F94C2F1BB2798
:10F13000A12F902F8F2D0F940DF28E2D0F940DF285
:10F1400030E23093C6008091C00086FFFCCF8091F2
:10F15000C00080648093C0004EE34093C60080915D
:10F16000C00086FFFCCF87C08EE09EEFA0E0B0E03D
:10F17000E822F9220A231B239CE0E91694E9F90608
:10F1800090E0090790E0190709F088C0C45DDE4FE0
:10F19000A881CC52D140EA2EFF2400E010E0102FCD
:10F1A0000F2DFE2CEE24C55DDE4FB881CB52D14031
:10F1B000EB0EF11C011D111DD601C501817090706F
:10F1C000A070B070DC0199278827E80EF91E0A1F8D
:10F1D0001B1F20EF30E040E050E0A222B322C42207
:10F1E000D52241E1AA0CBB1CCC1CDD1C4A95D1F7F1
:10F1F000EA0CFB1C0C1D1D1D81E090E0A0E0B0E0BE
:10F20000282239224A225B2235E1220C331C441C7D
:10F21000551C3A95D1F7E20CF31C041D151D57013E
:10F220006801AA0CBB1CCC1CDD1C85E192EE60E0E1
:10F230000F94C2F1C801AA27BB270F940DF2BB2778
:10F24000A12F902F8F2D0F940DF28E2D0F940DF274
:10F2500090E29093C6008091C00086FFFCCF809121
:10F26000C00080648093C000AEE3A093C60080918C
:10F27000C00086FFFCCF8091C00080648093C000F6
:10F28000C601AA27BB270F940DF2BB27AD2D9C2DDD
:10F290008B2D0F940DF28A2D0F940DF20F94DCF14B
:10F2A000CC5DDE4FE881F981C452D140F99709F471
:10F2B0004DCBF4E0EF2EF12C012D112D6E0C7F1CA7
:10F2C000801E911EF2CD83E093EE62E00F94F5F183
:10F2D0008AE192EE60E00F94C2F18091C00087FF56
:10F2E000FCCF1091C6001F751093C6008091C0001E
:10F2F00086FFFCCF8091C00080648093C0000F9493
:10F30000DCF1812F81548A3108F036C1163409F4BA
:10F3100095C0173490F4133409F44EC0143430F40B
:10F320001134F1F0123409F01DC130C0143409F465
:10F3300059C0153409F016C16BC01A3409F4C4C0A1
:10F340001B3438F4173409F48FC0183409F00AC19B
:10F35000A1C01B3409F4D2C01C3409F003C1E8C0B9
:10F360008FEF81B90DC082B1809582B980E090E0C5
:10F37000E0EDF7E03197F1F70196883C9105C1F790
:10F380008091C00087FFEFCF12B8EFC08FEF84B934
:10F390000DC085B1809585B980E090E0E0EDF7E0A3
:10F3A0003197F1F70196883C9105C1F78091C00033
:10F3B00087FFEFCF15B8D9C08FEF87B90DC088B1DF
:10F3C000809588B980E090E0E0EDF7E03197F1F7C3
:10F3D0000196883C9105C1F78091C00087FFEFCF6F
:10F3E00018B8C3C08FEF8AB90DC08BB180958BB9A7
:10F3F00080E090E0E0EDF7E03197F1F70196883C8E
:10F400009105C1F78091C00087FFEFCF1BB8ADC059
:10F410008FEF8DB90DC08EB180958EB980E090E0F0
:10F42000E0EDF7E03197F1F70196883C9105C1F7DF
:10F430008091C00087FFEFCF1EB897C08FEF80BBD1
:10F440000DC081B3809581BB80E090E0E0EDF7E0F6
:10F450003197F1F70196883C9105C1F78091C00082
:10F4600087FFEFCF11BA81C08FEF83BB0DC084B38C
:10F47000809584BB80E090E0E0EDF7E03197F1F714
:10F480000196883C9105C1F78091C00087FFEFCFBE
:10F4900014BA6BC08FEF809301010FC080910201FD
:10F4A00080958093020180E090E0E0EDF7E03197F5
:10F4B000F1F70196883C9105C1F78091C00087FF64
:10F4C000EDCF1092020151C08FEF809304010FC065
:10F4D0008091050180958093050180E090E0E0ED4A
:10F4E000F7E03197F1F70196883C9105C1F78091DB
:10F4F000C00087FFEDCF1092050137C08FEF8093DA
:10F5000007010FC08091080180958093080180E079
:10F5100090E0E0EDF7E03197F1F70196883C910536
:10F52000C1F78091C00087FFEDCF109208011DC088
:10F530008FEF80930A010FC080910B01809580931B
:10F540000B0180E090E0E0EDF7E03197F1F70196F4
:10F55000883C9105C1F78091C00087FFEDCF1092E4
:10F560000B0103C085E292EEEEC98091C00087FFD7
:10F57000FCCF8091C600EAC988E392EEE4C98CE131
:10F5800091EEE1C988249924933011F1943028F444
:10F59000913089F09230B8F408C0953061F195301F
:10F5A000F0F0963009F048C043C02B3109F042C951
:10F5B00091E06BE13FC96227C15DDE4F2883CF52E6
:10F5C000D14092E037C9B22FA0E0622793E032C960
:10F5D000822F90E0A82BB92B622794E02BC92E3004
:10F5E00009F039C3622795E0C05DDE4F19821882A9
:10F5F000C053D1401FC9E1E0F0E0EC0FFD1FC05D3A
:10F60000DE4F08811981C053D140E00FF11F2083E4
:10F610000F5F1F4FC05DDE4F19830883C053D14079
:10F6200062270A171B0709F005C9D80196E002C92D
:10F63000261709F010C303C0973009F0FBC87724E0
:10F640009981933109F412C19431C8F4963009F4C8
:10F65000D8C0973050F4923009F406C1933009F4C1
:10F660006DC0913009F059C253C0913109F477C08F
:10F67000923108F0BBC0903109F04FC2F5C098310B
:10F6800009F487C0993150F4953109F4EFC09531F0
:10F6900008F4C6C1963109F040C2C2C19A3109F4DA
:10F6A0006CC09A3108F491C09B3109F45BC09D3164
:10F6B00009F033C29D81903359F48F81882311F46E
:10F6C0009EE11CC0813011F091E018C098E916C08D
:10F6D000892F807591F0903539F4E0E0F0E089E011
:10F6E0008093570094910AC0983539F4E3E0F0E034
:10F6F00089E080935700949101C090E01A821B82A8
:10F700008D818C831D829E831F8227E030E009C299
:10F710001A8288E08B8381E48C8386E58D8382E581
:10F720008E8389E48F8383E5888780E589878FE5E9
:10F730008A8782E38B872BE030E0F3C18A818139AD
:10F7400041F0823941F0803911F48FE005C080E04A
:10F7500003C082E001C08AE01A828B8344C0772410
:10F76000739482C08D81882311F48EE12CC0813086
:10F7700011F081E028C088E926C01A82E1E0F0E0BB
:10F7800089E08093570084918B831C8224E030E0D1
:10F79000C8C18B81803589F48C81883039F4E2E0EE
:10F7A000F0E089E08093570084910DC0E0E0F0E044
:10F7B00089E080935700849106C0E3E0F0E089E09F
:10F7C0008093570084911A82DFCF8D81836C99E0FA
:10F7D000E1E0F0E0082E90935700E89507B600FCB2
:10F7E000FDCF1A821B8223E030E09BC180EC8A832C
:10F7F000CE5CDE4F188219821A821B82C253D1401E
:10F800008EC18A8190E0A0E0B0E0582F44273327D2
:10F8100022278B8190E0A0E0B0E0DC0199278827C7
:10F82000282B392B4A2B5B2B8D8190E0A0E0B0E098
:10F83000282B392B4A2B5B2B8C8190E0A0E0B0E089
:10F84000BA2FA92F982F8827282B392B4A2B5B2BCF
:10F85000220F331F441F551FC05EDE4F288339839C
:10F860004A835B83C052D1401A8259C13A81C95C34
:10F87000DE4F3883C753D140CA5CDE4F1882C6536F
:10F88000D1408B81C82EDD24CA5CDE4F488159816E
:10F89000C653D140C42AD52A933109F082C0CE5C28
:10F8A000DE4F88819981AA81BB81C253D1408050AB
:10F8B000904CA340B04030F583E0CE5CDE4FE88052
:10F8C000F9800A811B81C253D140F70100935B008C
:10F8D00080935700E89507B600FCFDCFCE5CDE4F65
:10F8E000088119812A813B81C253D14000501F4FAA
:10F8F0002F4F3F4FCE5CDE4F088319832A833B8313
:10F90000C253D140C05EDE4F488159816A817B81FC
:10F91000C052D140DE011B9631E08C9111962C91A2
:10F9200011971296C75CDE4F2883C953D140C85C3B
:10F93000DE4F1882C853D14090E0C85CDE4FE881AA
:10F94000F981C853D1408E2B9F2B0C01FA01609393
:10F950005B0030935700E89511244E5F5F4F6F4F67
:10F960007F4F0EEFE02E0FEFF02ECE0CDF1CC114F8
:10F97000D10499F685E0C05EDE4F088119812A81A5
:10F980003B81C052D140F80120935B008093570027
:10F99000E89507B600FCFDCF81E180935700E8951C
:10F9A00035C0C05EDE4F88819981AA81BB81C0527B
:10F9B000D140B695A795979587957C018601ABE0D8
:10F9C000AA2EB12CAC0EBD1E0BC0D5016D915D01F0
:10F9D000C7010F947FFE0894E11CF11C01501040F8
:10F9E0000115110591F7A60160E070E0440F551F65
:10F9F000661F771FC05EDE4FE880F9800A811B8199
:10FA0000C052D1404E0D5F1D601F711F1A82C05E33
:10FA1000DE4F488359836A837B83C052D1407FC0C5
:10FA2000FA80C55CDE4FF882CB53D140C65CDE4F16
:10FA30001882CA53D1408B81C82EDD24C65CDE4FAC
:10FA400008811981CA53D140C02AD12A1A828981DA
:10FA5000BE016D5F7F4F843121F59601C05EDE4FA0
:10FA6000E880F9800A811B81C052D1400BBFF701A9
:10FA700087919691DB018C9311969C936E5F7F4FDB
:10FA8000D801C7010296A11DB11DC05EDE4F88835B
:10FA90009983AA83BB83C052D14022503040F1F6F3
:10FAA00036C0C05EDE4F288139814A815B81C052F9
:10FAB000D1400894C108D108760100E010E0089414
:10FAC000C11CD11C0894E11CF11C011D111DE20E8A
:10FAD000F31E041F151F21BDBB27A52F942F832FB5
:10FAE00082BD2F5F3F4F4F4F5F4FF89A80B5DB01CC
:10FAF0008D93BD012E153F054007510761F7C05E8C
:10FB0000DE4F288339834A835B83C052D1409601FC
:10FB10002D5F3F4FFB01108204C080EC8A8322E0FE
:10FB200030E08BE18093C6008091C00086FFFCCF5F
:10FB30008091C00080648093C000C15DDE4FF88179
:10FB4000CF52D140F093C6008091C00086FFFCCF19
:10FB50008091C00080648093C000432F3093C60022
:10FB60008091C00086FFFCCF8091C00080648093AC
:10FB7000C000922F2093C6008091C00086FFFCCF6A
:10FB80008091C00080648093C0008EE08093C600A6
:10FB90008091C00086FFFCCF8091C000806480937C
:10FBA000C00065E1C15DDE4FE880CF52D1406E25D7
:10FBB00069276427FE01319610C090819093C6009A
:10FBC0008091C00086FFFCCF31968091C000806498
:10FBD0008093C0006927215030402115310569F715
:10FBE0006093C6008091C00086FFFCCF8091C0006A
:10FBF00080648093C00085B1805885B9772081F4F6
:10FC0000C15DDE4F0881CF52D1400F5FC15DDE4F35
:10FC10000883CF52D14090E0A0E0B0E00D941AF4F8
:10FC200027982F9880E090E020ED37E0F901319798
:10FC3000F1F7019684369105C9F700008091C00064
:10FC40008D7F8093C00081E180935700E895EE2777
:10FC5000FF270994FFCF90E00D941AF497FB092E2B
:10FC600007260AD077FD04D02ED006D000201AF443
:10FC7000709561957F4F0895F6F7909581959F4F08
:10FC80000895A1E21A2EAA1BBB1BFD010DC0AA1FDD
:10FC9000BB1FEE1FFF1FA217B307E407F50720F0F5
:10FCA000A21BB30BE40BF50B661F771F881F991F70
:10FCB0001A9469F760957095809590959B01AC01B9
:10FCC000BD01CF010895AA1BBB1B51E107C0AA1FAC
:10FCD000BB1FA617B70710F0A61BB70B881F991FED
:10FCE0005A95A9F780959095BC01CD010895F99991
:10FCF000FECF92BD81BDF89A992780B50895262F31
:10FD0000F999FECF1FBA92BD81BD20BD0FB6F89400
:0EFD1000FA9AF99A0FBE01960895F894FFCF63
:040000033000E000E9
:00000001FF
