:100000000C9435010C9466010C9466010C94660105
:100010000C9466010C9466010C9466010C946601C4
:100020000C9466010C9466010C9466010C946601B4
:100030000C9466010C9466010C9466010C946601A4
:100040000C9466010C9466010C9466010C94660194
:100050000C9466010C9466010C9466010C94530593
:100060000C9466010C9466010C9466010C94660174
:100070000C9466010C9466010C9466010C94660164
:100080000C9466010C9466010C9466010C94660154
:100090000C9466010C9466010C9466010C94660144
:1000A0000C9466010C9466010C9466010C94660134
:1000B0000C9466010C9466010C9466010C94660124
:1000C0000C9466010C9466010C9466010C94660114
:1000D0000C9466010C9466010C9466010C94660104
:1000E0000C9466010C94C6080C9486020C948B0246
:1000F0000C9461020C9446020C9485030C94290321
:100100000C9479020C9458020C9465020C945002E1
:100110000C94B8020C9454020C9473020C94840353
:100120000C94E9020C946F020C945B020C946B0229
:100130000C94FB010C9428050C9487020C9481020A
:100140000C947D020C944C02000021002400270036
:100150002A002D00300033000101000004010701D6
:100160000A0100002200250028002B002E0031008B
:10017000340002010000050108010B01000020000D
:100180002300260029002C002F003200000100006F
:10019000030106010901050505050705080808080A
:1001A000020202020A0A080804040404010101010F
:1001B000010101010303030303030303040707070A
:1001C0000C0C0C0C0C0C0C0C0202020206060606AF
:1001D000060606060B0B0B0B0B0B0B0B010210207C
:1001E000200808102040102040800201020108046D
:1001F0000201010204081020408080402010080401
:100200000201800402018040201008040201080459
:10021000020101020408102040800102040810209D
:10022000408000000A0B02090C0D0E0807030401B0
:1002300000000000000000000000000000000000BE
:10024000000000000000000000000000000012118B
:10025000100000000000000000000000000000008E
:100260000000000000000000C60811241FBECFEFF0
:10027000D1E2DEBFCDBF00E00CBF12E0A0E0B2E0F3
:10028000E2E6F3E100E00BBF02C007900D92AA3452
:10029000B107D9F722E0AAE4B2E001C01D92A93E5D
:1002A000B207E1F711E0C5E3D1E000E006C0219715
:1002B0000109802FFE010E948D09C433D10780E01F
:1002C0000807A9F70E949D050C94AF090C94000043
:1002D00096E0899FD0011124AE59BD4F90967C9332
:1002E0006E935F9791E091969C939197E091CF02E6
:1002F000F091D0029091CE02992339F0309751F0CD
:10030000811108C080917E021994309719F05C9693
:100310008C91FACF0895CF92DF92EF92FF920F93D4
:100320001F9396E0899FF0011124EE59FD4F11A211
:10033000278D30A12130310551F178F0223031057F
:1003400009F451C02330310509F452C01F910F91B7
:10035000FF90EF90DF90CF9008956623B9F361E0AE
:1003600070E00E9468012FB7F89480915E0290912E
:100370005F02A0916002B09161022FBF8093BA0228
:100380009093BB02A093BC02B093BD02DFCF9FB796
:10039000F894C0905E02D0905F02E0906002F0900E
:1003A00061029FBF0091BA021091BB022091BC0272
:1003B0003091BD02C01AD10AE20AF30A0091CC02C0
:1003C0001091CD0230E020E00C151D052E053F05F3
:1003D00050F462E070E01F910F91FF90EF90DF907A
:1003E000CF900C9468016111B1CF63E070E0F3CF5E
:1003F00070E060E0F0CFAF92BF92CF92DF92EF92C9
:10040000FF920F931F93CF93DF936C017B018B01BE
:10041000040F151FEB015E01AE18BF08C017D1070E
:1004200059F06991D601ED91FC910190F081E02D98
:10043000C6011995892B79F7C501DF91CF911F91DD
:100440000F91FF90EF90DF90CF90BF90AF90089505
:100450008150823108F05AC0E82FF0E08827EC5C28
:10046000FD4F8F4F0C948D095402580246024C02E6
:10047000500286025B02610265026B026F02730228
:1004800079027D028602810287028B0280918000C0
:100490008F77809380000895809180008F7DF9CFC1
:1004A00080918000877FF5CF84B58F7784BD0895D4
:1004B00084B58F7DFBCF8091B0008F778093B000A3
:1004C00008958091B0008F7DF9CF809190008F7753
:1004D000809390000895809190008F7DF9CF809156
:1004E0009000877FF5CF8091A0008F778093A00048
:1004F00008958091A0008F7DF9CF8091A000877F23
:10050000F5CF809120018F7780932001089580910D
:1005100020018F7DF9CF80912001877FF5CFCF9388
:10052000DF93282F30E0F901EE5DFD4F8491F90152
:10053000E452FE4FD491F901EA56FE4FC491CC2308
:10054000A1F081110E942802EC2FF0E0EE0FFF1FB6
:10055000E458FE4FA591B491EC91ED2381E090E039
:1005600009F480E0DF91CF91089580E090E0FACF28
:10057000862F0C948F021F93CF93DF93282F30E0A8
:10058000F901EE5DFD4F8491F901E452FE4FD491E3
:10059000F901EA56FE4FC491CC23A9F0162F811120
:1005A0000E942802EC2FF0E0EE0FFF1FEE59FE4FE5
:1005B000A591B4918FB7F894EC91111108C0D09522
:1005C000DE23DC938FBFDF91CF911F910895DE2B47
:1005D000F8CF862F642F0C94BB02CF93DF9390E06B
:1005E000FC01E452FE4F24918A569E4FFC018491F7
:1005F0008823C9F090E0880F991FFC01E85BFE4F4B
:10060000A591B491FC01EE59FE4FC591D4916111B1
:100610000DC09FB7F8948C91209582238C9388818C
:10062000282328839FBFDF91CF910895623051F432
:100630009FB7F8943C91822F809583238C93E88117
:100640002E2BEFCF8FB7F894EC912E2B2C938FBFDE
:10065000EACF862F642F0C94ED023FB7F894809177
:100660004B0290914C02A0914D02B0914E0226B5E2
:10067000A89B05C02F3F19F00196A11DB11D3FBFDA
:10068000BA2FA92F982F8827BC01CD01620F711DA9
:10069000811D911D42E0660F771F881F991F4A95A3
:1006A000D1F708958F929F92AF92BF92CF92DF922F
:1006B000EF92FF924B015C010E942D036B017C01C4
:1006C0000E942D036C197D098E099F09683E7340B5
:1006D00081059105A8F321E0821A9108A108B108CB
:1006E00088EEC80E83E0D81EE11CF11C8114910431
:1006F000A104B10429F7FF90EF90DF90CF90BF9055
:10070000AF909F908F900895089590E080E00895B5
:100710008F929F92AF92BF920F931F93CF93DF93CD
:10072000CDB7DEB7A1970FB6F894DEBF0FBECDBF31
:1007300019A2423008F44AE08E010F5D1F4F842E4B
:10074000912CB12CA12CA50194010E944C09E62FFB
:10075000B901CA01EA3044F5E05DD801EE938D019C
:10076000232B242B252B79F790E080E0109769F05C
:10077000FD0101900020E9F73197AF014A1B5B0BA7
:10078000BD0181ED92E00E94FB01A1960FB6F894A5
:10079000DEBF0FBECDBFDF91CF911F910F91BF90F4
:1007A000AF909F908F900895E95CD7CFFC010190A6
:1007B0000020E9F73197AF01481B590BBC0181EDCF
:1007C00092E00C94FB01CF93DF93EC0160E08E810B
:1007D0000E94BB0261E08E810E94BB0260E08E81BC
:1007E0000E94BB028BE891E00197F1F7DF91CF9176
:1007F0000895CF92DF92EF92FF920F931F93CF93C2
:10080000DF936C017C0187E0E80EF11CD0E0C0E0D2
:10081000062F10E0B8010C2E02C0759567950A945A
:10082000E2F76170F70181917F010E94BB0221967E
:10083000C430D10579F7C601DF91CF911F910F9197
:10084000FF90EF90DF90CF900C94E303CF92DF9274
:10085000EF92FF920F931F93CF93DF93EC01F62E4D
:10086000642F8C810E94BB028D818F3F19F060E064
:100870000E94BB020F2D10E08F8584FF25C06E0102
:1008800087E0C80ED11CF12CE12CB8010E2C02C05F
:10089000759567950A94E2F76170F60181916F0191
:1008A0000E94BB02FFEFEF1AFF0A88E0E816F1048E
:1008B00061F7CE01DF91CF911F910F91FF90EF90E3
:1008C000DF90CF900C94E303B80184E075956795B1
:1008D0008A95E1F7CE010E94F9036F2DCE01DF91D9
:1008E000CF911F910F91FF90EF90DF90CF900C94DC
:1008F000F90340E0682F81ED92E00C94260481E03A
:100900000E9479048BE39FE10197F1F70895CF935B
:10091000DF93823029F49091E00298609093E00296
:100920008093E4021092E50280E48093E60280E185
:100930008093E70280E58093E80261E08091D50230
:100940000E94ED028091D6028F3F19F061E00E9473
:10095000ED0261E08091D7020E94ED02C1EDD2E08C
:100960009E01215D32408091E00284FD0BC084E055
:1009700090E021962817390744F461E08E810E94A7
:10098000ED02EECF88E090E0F4CF8BE39DE001979D
:10099000F1F760E08091D5020E94BB0260E0809197
:1009A000D7020E94BB028091D6028F3F19F060E00F
:1009B0000E94BB028091E00284FD34C063E081EDBF
:1009C00092E00E94F903CBE4D6E4CE010197F1F75F
:1009D00063E081ED92E00E94F9032197F1F763E073
:1009E00081ED92E00E94F90383E592E00197F1F72F
:1009F00062E081ED92E00E94F9038091E002806262
:100A00000E94790484E08093E1028CE00E947904E2
:100A10000E947F0482E08093E20286E0DF91CF9122
:100A20000C94790480620E9479048BE496E4019727
:100A3000F1F78091E00280620E94790483E592E000
:100A40000197F1F78091E00280620E947904D5CF8E
:100A500041E00E94260481E090E00895CF92DF9269
:100A6000EF92FF9297FF18C06B017C0141E06DE2AD
:100A700081ED92E00E94260466277727CB016C194E
:100A80007D098E099F094AE00E9488030196FF9024
:100A9000EF90DF90CF9008954AE0FF90EF90DF90C5
:100AA000CF900C9488031F920F920FB60F921124CF
:100AB0002F933F938F939F93AF93BF9380915E0249
:100AC00090915F02A0916002B091610230914A0260
:100AD00023E0230F2D3758F50196A11DB11D20935A
:100AE0004A0280935E0290935F02A0936002B093EB
:100AF000610280914B0290914C02A0914D02B09105
:100B00004E020196A11DB11D80934B0290934C02A1
:100B1000A0934D02B0934E02BF91AF919F918F91E0
:100B20003F912F910F900FBE0F901F90189526E8C0
:100B3000230F0296A11DB11DD2CF789484B5826097
:100B400084BD84B5816084BD85B5826085BD85B571
:100B5000816085BD80916E00816080936E001092EF
:100B6000810080918100826080938100809181006A
:100B700081608093810080918000816080938000FB
:100B80008091B10084608093B1008091B000816059
:100B90008093B00080919100826080939100809159
:100BA000910081608093910080919000816080939A
:100BB00090008091A10082608093A1008091A100AB
:100BC00081608093A1008091A00081608093A0004B
:100BD00080912101826080932101809121018160B7
:100BE0008093210180912001816080932001809178
:100BF0007A00846080937A0080917A00826080938A
:100C00007A0080917A00816080937A0080917A00E6
:100C1000806880937A001092C10082E00E9487046D
:100C20008EE292E00E94D603E091E402E23008F006
:100C300056C0E150F0E0EF52FD4F848980680E9479
:100C4000790489E392E00E94D60368EE73E080E0C5
:100C500090E00E9452030E947F04812C912C540149
:100C6000839422242A94322C50E0652E50E0752E75
:100C700021E02093CE028FB7F89440915E0250910C
:100C80005F0260916002709161028FBF8091BE022D
:100C90009091BF02A091C002B091C102481B590BB4
:100CA0006A0B7B0B8091CA029091CB02B0E0A0E06E
:100CB00084179507A607B70708F08BC1C0E080919D
:100CC000C802C81770F4E091C402F091C502EC0F9D
:100CD000F11D62E080810E94ED02CF5FF0CFE1E084
:100CE000A9CF512C8091C902581608F05FC0052D7C
:100CF00010E0E091C602F091C702E00FF11F61E041
:100D000080810E94ED02E091C602F091C702E00FDF
:100D1000F11F60E080810E94BB02D501C401052C57
:100D200004C0880F991FAA1FBB1F0A94D2F76C0139
:100D30007C01E094F094412C8091C8024816F8F4AC
:100D4000C42DD0E0E091C402F091C502EC0FFD1F6C
:100D500080810E948F022496CC0FDD1FCE59DD4F7B
:100D6000892B41F4888199818C299D2999838883D5
:100D70004394E2CF888199818E219F21F7CFE09122
:100D8000C602F091C702E00FF11F61E080810E946E
:100D9000BB028091C6029091C702080F191F60E044
:100DA000F80180810E94ED0253949CCF02E612E08C
:100DB000E8018F8D98A1892B21F41C8E3E8E2D8EFB
:100DC00019A226962EE932E02C173D0791F7F12C57
:100DD0008091C802F81608F053C0E12CCF2CD12C1A
:100DE000CC0CDD1CA60146595D4F6A012091C90259
:100DF000E21608F043C0F601608171810E2C02C03A
:100E0000769567950A94E2F7F29E900111242E0DD3
:100E1000311DE2E6F2E080E0458D568D241735075E
:100E200009F4B2C18F5F36968A30B1F760FF24C0F3
:100E3000E2E6F2E090E080E0448D411118C0E091DC
:100E4000C202F091C302E20FF31F408156E0589FA7
:100E5000F001599FF00D1124EE59FD4F448F368F4C
:100E6000258F10A2178E61E00E948B0105C00196AC
:100E700036968A30910501F7E394B8CFF394A8CF62
:100E800080E0F80191A19111892F0A5F1F4FC017CF
:100E9000D107B9F79FB7F89440915E0250915F0275
:100EA00060916002709161029FBF4093BE025093B7
:100EB000BF026093C0027093C102882309F489C005
:100EC00080918302882309F484C0809181029091EB
:100ED0008202019709F07DC0C0917E02C0935D023D
:100EE000C1117CC0C0905802D0905902E0905A02C3
:100EF000F0905B0280915C028823C9F080915702D8
:100F00008B3209F0FDC08091530290915402A09160
:100F10005502B09156028C0D9D1DAE1DBF1D8093D4
:100F20004F0290935002A0935102B0935202E1E01D
:100F30008091E4028111E0E0E195F0E0EF52FD4F95
:100F4000848980680E947904C701B6010E942E0539
:100F500041E06091570281ED92E00E942604609189
:100F600053027091540280915502909156020E9452
:100F70002E0580915C02882371F087E492E00E9444
:100F8000D60360914F02709150028091510290916E
:100F900052020E942E05E091E402E23008F0F2C015
:100FA000E150F0E0EF52FD4F848980680E9479049F
:100FB00060914F02709150028091510290915202C3
:100FC0000E942E056114710409F452CE0E940000A3
:100FD0004FCE1092CE0210925D0284CF0E947F0409
:100FE000C334E9F410925302109254021092550245
:100FF00010925602109258021092590210925A0200
:1010000010925B0210924F02109250021092510205
:1010100010925202F0E2F093570210925C0280EDBF
:101020008C0F8A3008F049C020914F023091500255
:101030004091510250915202AAE0B0E00E949509FD
:10104000AB01BC018C2F0C2E000C990BC097092E04
:10105000000CAA0BBB0B840F951FA61FB71F809314
:101060004F0290935002A0935102B09352028C2FE2
:101070008D7F8D3229F086ED8C0F823008F032CFD3
:1010800080914F0290915002A0915102B091520272
:101090008093580290935902A0935A02B0935B0236
:1010A00010924F021092500210925102109252026E
:1010B000CB32C9F4C09357021CC0CD33C1F6809126
:1010C0004F0290915002A0915102B0915202809330
:1010D000530290935402A0935502B093560221E01C
:1010E00020935C02FFCECD3229F3CA3219F3CF32FE
:1010F00009F364E670E080E090E00E945203F2CED3
:101100008D3289F48091530290915402A09155023E
:10111000B0915602A7019601281B390B4A0B5B0BB5
:10112000DA01C901FCCE8A32A9F420915302309130
:1011300054024091550250915602C701B6010E94D7
:101140003C0960934F027093500280935102909338
:101150005202EDCE8F3209F0EACE20915302309147
:1011600054024091550250915602C701B6010E94A7
:101170006E0920934F0230935002409351025093D6
:101180005202D5CEE1E00DCF61706ECE10926402B6
:1011900010926802109267021092690288E292E04F
:1011A0009093630280936202EEE7F2E01082148271
:1011B00013821582369682E0EA3BF807B9F784E09D
:1011C00092E09093C5028093C40280E092E09093F5
:1011D000C7028093C60284E08093C8028093C9024C
:1011E00088E092E09093C3028093C2028AE090E08C
:1011F0009093CB028093CA0284EF91E09093CD024A
:101200008093CC021092D0021092CF021092BE02B4
:101210001092BF021092C0021092C1021092CE0230
:101220001092D4021092D3028CE192E09093D202F9
:101230008093D10288E08093D5028FEF8093D6020D
:1012400089E08093D7028AE08093D8028BE0809374
:10125000D9028CE08093DA028DE08093DB02109259
:10126000DC021092DD021092DE021092DF02109278
:10127000E00281E00C948704DB018F939F930E942E
:101280009509BF91AF91A29F800D911DA39F900DD5
:10129000B29F900D11240895A1E21A2EAA1BBB1B28
:1012A000FD010DC0AA1FBB1FEE1FFF1FA217B30732
:1012B000E407F50720F0A21BB30BE40BF50B661F48
:1012C000771F881F991F1A9469F76095709580950C
:1012D00090959B01AC01BD01CF010895052E97FBB0
:1012E0001EF400940E94850957FD07D00E944C0906
:1012F00007FC03D04EF40C94850950954095309529
:1013000021953F4F4F4F5F4F089590958095709571
:1013100061957F4F8F4F9F4F0895EE0FFF1F881FDE
:101320008BBF0790F691E02D19940E94A009A59F0C
:10133000900DB49F900DA49F800D911D11240895D0
:10134000A29FB001B39FC001A39F700D811D112406
:10135000911DB29F700D811D1124911D0895F89467
:02136000FFCFBD
:1013620004050607000102033738392F3435362ABF
:101372003132332D43303D2B000000002805FB01A4
:1013820085038403000000002903E902B8024361D7
:101392006C63756C61746F720048617373616E2067
:0A13A2004B617A656D6900203D0083
:00000001FF
