:020000040000FA
:100000000C9442010C9473010C9473010C947301D1
:100010000C9473010C9473010C9473010C94730190
:100020000C9473010C9473010C9473010C94730180
:100030000C9473010C948F0B0C9473010C9473014A
:100040000C9473010C94230D0C9473010C947301A4
:100050000C9473010C9473010C9473010C944F0C69
:100060000C9473010C94190C0C94EF0B0C94730109
:100070000C9473010C9473010C9473010C94730130
:100080000C94F50C0C9473010C9473010C94730193
:100090000C9473010C9473010C9473010C94730110
:1000A0000C9473010C9473010C94C70C0C947301A1
:1000B0000C9473010C9473010C9473010C94990CBF
:1000C0000C9473010C9473010C9473010C947301E0
:1000D0000C9473010C9473010C9473010C947301D0
:1000E0000C9473010C9403030C9401090C94510DAE
:1000F0000C94A80A0C94D4030C94A9020C94DA036F
:100100000C949A020C9450030C94C5030C94F603BF
:100110000C94F2030C94BD020C9462040C949406AB
:100120000C9431040C94BF030C94EC030C946D02FA
:100130000C94DE030C94FF030C9400040C94CD0388
:100140000C94D1030C94E4030C94FA030C94CB02AA
:100150000C94E8030C9404040C94C9030C94000957
:1001600000002100240027002A002D003000330069
:1001700001010000040107010A0100002000230022
:10018000260029002C002F0032000001000003018E
:100190000601090100000A0B02090C0D0E080703F5
:1001A000040100000000000000000000000000004A
:1001B000000000000000000000000000000000003F
:1001C00012111000000000000000000000000000FC
:1001D00000000000000000000000010210202008C4
:1001E0000810204010204080020102010804020192
:1001F0000102040810204080804020100804020101
:100200008004020180402010080402010804020159
:1002100001020408102040800102040810204080E0
:1002200000002200250028002B002E0031003400A1
:1002300002010000050108010B0105050505070580
:1002400008080808020202020A0A08080404040452
:10025000010101010101010103030303030303037E
:10026000040707070C0C0C0C0C0C0C0C020202020D
:1002700006060606060606060B0B0B0B0B0B0B0BF6
:100280000200510D11241FBECFEFD1E2DEBFCDBF62
:1002900000E00CBF12E0A0E0B2E0EAE0F8E200E02B
:1002A0000BBF02C007900D92AE39B107D9F724E019
:1002B000AEE9B2E001C01D92A339B207E1F711E047
:1002C000C2E4D1E000E006C021970109802FFE01C1
:1002D0000E94FB13C134D10780E00807A9F70E94F0
:1002E000240E0C9403140C9400008F929F92AF92F2
:1002F000BF92FF920F931F93CF93DF93F090090467
:100300002FE22F1508F44CC020910B0408E512E0F1
:10031000021B110927FD1395000F111F000F111F5C
:1003200020910A04C8E8D0E0C21BD10927FDD3956B
:10033000CC0FDD1FCC0FDD1F4E010D2E000CAA08C7
:10034000BB089801012E000C440B550B28193909E4
:100350004A095B09DC010E947A1124EB30E040E09D
:1003600050E00E945011820E931EA41EB51E8C16E2
:100370009D062CF0E801801691060CF4E40122970A
:10038000CC0FDD1F2FB7F8948F2D90E0FC01EE0FFE
:10039000FF1FE80FF91FE858FC4FD283C1832FBF1E
:1003A000DF91CF911F910F91FF90BF90AF909F90E1
:1003B0008F90089596E0899FD0011124A45FBB4FD0
:1003C00090967C936E935F9791E091969C93919712
:1003D000E0917904F0917A0490917804992339F0AE
:1003E000309751F0811108C08091280419943097FA
:1003F00019F05C968C91FACF0895CF92DF92EF922C
:10040000FF920F931F9396E0899FF0011124E45F00
:10041000FB4F11A2278D30A12130310551F178F029
:100420002230310509F451C02330310509F452C09E
:100430001F910F91FF90EF90DF90CF90089566236A
:10044000B9F361E070E00E94DA012FB7F89480916F
:10045000B7029091B802A091B902B091BA022FBF31
:100460008093640490936504A0936604B09367043A
:10047000DFCF9FB7F894C090B702D090B802E09059
:10048000B902F090BA029FBF009164041091650414
:100490002091660430916704C01AD10AE20AF30A77
:1004A000009176041091770430E020E00C151D05D2
:1004B0002E053F0550F462E070E01F910F91FF9010
:1004C000EF90DF90CF900C94DA016111B1CF63E02F
:1004D00070E0F3CF70E060E0F0CFAF92BF92CF92C8
:1004E000DF92EF92FF920F931F93CF93DF936C01F4
:1004F0007B018B01040F151FEB015E01AE18BF08D5
:10050000C017D10759F06991D601ED91FC91019086
:10051000F081E02DC6011995892B79F7C501DF918E
:10052000CF911F910F91FF90EF90DF90CF90BF90F0
:10053000AF900895FC01538D448D252F30E0842F1A
:1005400090E0821B930B541710F0CF9608950197FB
:100550000895FC01918D828D981761F0A28DAE0FE8
:10056000BF2FB11D5D968C91928D9F5F9F73928F6F
:1005700090E008958FEF9FEF0895FC01918D828D9B
:10058000981731F0828DE80FF11D858D90E0089568
:100590008FEF9FEF0895FC01918D228D892F90E0C0
:1005A000805C9F4F821B91098F73992708958BED73
:1005B00092E00E94CB0221E0892B09F420E0822FF7
:1005C0000895FC01A48DA80FB92FB11DA35ABF4FE8
:1005D0002C91848D90E001968F739927848FA68942
:1005E000B7892C93A089B1898C91837080648C9396
:1005F000938D848D981306C00288F389E02D808145
:100600008F7D80830895EF92FF920F931F93CF9376
:10061000DF93EC0181E0888F9B8D8C8D98131AC03D
:10062000E889F989808185FF15C09FB7F894EE8924
:10063000FF896083E889F989808183708064808381
:100640009FBF81E090E0DF91CF911F910F91FF90CC
:10065000EF900895F62E0B8D10E00F5F1F4F0F7374
:100660001127E02E8C8D8E110CC00FB607FCFACF2F
:10067000E889F989808185FFF5CFCE010E94E102EA
:10068000F1CFEB8DEC0FFD2FF11DE35AFF4FF08200
:100690009FB7F8940B8FEA89FB8980818062CFCF66
:1006A000CF93DF93EC01888D8823B9F0AA89BB89A9
:1006B000E889F9898C9185FD03C0808186FD0DC094
:1006C0000FB607FCF7CF8C9185FFF2CF808185FFB5
:1006D000EDCFCE010E94E102E9CFDF91CF910895E5
:1006E00080E090E0892B29F00E94D70281110E94BE
:1006F000000080E090E0892B49F080E090E0892BB9
:1007000029F00E94000081110E94000080E090E02A
:10071000892B49F080E090E0892B29F00E940000AD
:1007200081110E94000080E090E0892B49F080E078
:1007300090E0892B29F00E94000081110C940000A8
:1007400008958150823108F05AC0E82FF0E08827E0
:10075000E355FC4F8F4F0C94FB13CD03D103BF0324
:10076000C503C903FF03D403DA03DE03E403E8038C
:10077000EC03F203F603FF03FA0300040404809180
:1007800080008F77809380000895809180008F7D16
:10079000F9CF80918000877FF5CF84B58F7784BDB6
:1007A000089584B58F7DFBCF8091B0008F778093C3
:1007B000B00008958091B0008F7DF9CF80919000B6
:1007C0008F77809390000895809190008F7DF9CF6E
:1007D00080919000877FF5CF8091A0008F778093E4
:1007E000A00008958091A0008F7DF9CF8091A00096
:1007F000877FF5CF809120018F7780932001089526
:10080000809120018F7DF9CF80912001877FF5CFE6
:10081000CF93DF93282F30E0F901EC56FE4F8491FF
:10082000F901E652FE4FD491F901E65CFD4FC49107
:10083000CC23A1F081110E94A103EC2FF0E0EE0F78
:10084000FF1FE658FE4FA591B491EC91ED2381E096
:1008500090E009F480E0DF91CF91089580E090E08E
:10086000FACF862F0C9408041F93CF93DF93282F81
:1008700030E0F901EC56FE4F8491F901E652FE4F4B
:10088000D491F901E65CFD4FC491CC23A9F0162F59
:1008900081110E94A103EC2FF0E0EE0FFF1FE05E3C
:1008A000FD4FA591B4918FB7F894EC91111108C048
:1008B000D095DE23DC938FBFDF91CF911F910895F8
:1008C000DE2BF8CF862F642F0C9434049091000215
:1008D00089130DC0E0E8F2E0E4919FEF90930002ED
:1008E000E230E1F038F4EE2381F0E13089F060E0AD
:1008F0000C943404E43049F110F1E530C1F79091E3
:1009000073009D7F90937300F2CF10926E00EFCF33
:1009100090916F009D7F90936F00E9CF9091700050
:100920009D7F9093700091E09093B0009091B10002
:10093000987F94609093B1001092B300D8CF9091BB
:1009400071009D7F90937100D2CF909172009D7F36
:1009500090937200CCCFCF93DF9390E0FC01E652EE
:10096000FE4F2491865C9D4FFC0184918823C9F041
:1009700090E0880F991FFC01E05AFE4FA591B491B9
:10098000FC01E05EFD4FC591D49161110DC09FB790
:10099000F8948C91209582238C9388812823288336
:1009A0009FBFDF91CF910895623051F49FB7F894C3
:1009B0003C91822F809583238C93E8812E2BEFCF5F
:1009C0008FB7F894EC912E2B2C938FBFEACFCF9357
:1009D00080910002882321F08F3F59F1CF91089533
:1009E000E0E8F2E0C491C7FDF9CF61E080E00E9449
:1009F000AB04CC2309F4EFC0C23009F003C18091ED
:100A0000B100887F86608093B1008BE98093B3004A
:100A10008FEF9FEFDC018093CF029093D002A093E1
:100A2000D102B093D20280917000826080937000F6
:100A3000D5CF10920002E0E8F2E0C4918C2FCF3FB6
:100A400069F2C23009F468C060F4CC2379F1C13096
:100A500009F444C087FDC2CF61E080E00E94AB048E
:100A6000CBCFC43009F499C008F478C0C53091F7F1
:100A700010922001109221018091210188608093C1
:100A8000210180912101816080932101EAE3F2E05C
:100A9000E491F0E0EE0FFF1FE05EFD4F8591949131
:100AA000EAEDF1E0E491E093BB029FCF14BC15BCEA
:100AB00084B5826084BD85B5816085BDEAE3F2E0DE
:100AC000E491F0E0EE0FFF1FE05EFD4F8591949101
:100AD000EAEDF1E0E491E093C20287CF109280004A
:100AE00010928100809181008860809381008091C4
:100AF0008100816080938100EAE3F2E0E491F0E01C
:100B0000EE0FFF1FE05EFD4F85919491EAEDF1E05D
:100B1000E491E093C10269CF1092B0001092B1004D
:100B20008091B00082608093B0008091B1008160BC
:100B30008093B100EAE3F2E0E491F0E0EE0FFF1FF2
:100B4000E05EFD4F859194919093C0028093BF0227
:100B5000EAEDF1E0E491E093BE0247CF10929000FD
:100B60001092910080919100886080939100809113
:100B70009100816080939100EAE3F2E0E491F0E07B
:100B8000EE0FFF1FE05EFD4F85919491EAEDF1E0DD
:100B9000E491E093BD02C3E028CF1092A000109230
:100BA000A1008091A10088608093A1008091A100A4
:100BB00081608093A100EAE3F2E0E491F0E0EE0FBF
:100BC000FF1FE05EFD4F85919491EAEDF1E0E49125
:100BD000E093BC020ACF85B5887F846085BD8BE930
:100BE00087BD8FEF9FEFDC018093D7029093D802EF
:100BF000A093D902B093DA0280916E008260809354
:100C00006E00ECCEC130E9F480918100887F816074
:100C1000809381008FE39CE9909389008093880002
:100C20008FEF9FEFDC018093D3029093D402A093C7
:100C3000D502B093D60280916F00826080936F00DE
:100C4000CDCEC330E9F480919100887F816080939C
:100C500091008FE39CE990939900809398008FEF27
:100C60009FEFDC018093CB029093CC02A093CD0246
:100C7000B093CE0280917100826080937100AECEFD
:100C8000C430E9F48091A100887F81608093A10045
:100C90008FE39CE99093A9008093A8008FEF9FEFCA
:100CA000DC018093C7029093C802A093C902B0935D
:100CB000CA02809172008260809372008FCEC5302C
:100CC000E9F480912101887F8160809321018FE385
:100CD0009CE990932901809328018FEF9FEFDC011D
:100CE0008093C3029093C402A093C502B093C6023E
:100CF0008091730082608093730070CEC23091F057
:100D000034F4CC2369F0C13009F068CE83CFC4300D
:100D100009F4BECF0CF49DCFC53009F05FCED7CF1C
:100D20008FE35ECF8FE372CE862F642F0C94AB04DB
:100D30006F927F928F929F92AF92BF92CF92DF92EB
:100D4000EF92FF920F931F93CF93DF9381E08093F5
:100D500078048FB7F8944091B7025091B80260912F
:100D6000B9027091BA028FBF8091680490916904B2
:100D7000A0916A04B0916B04481B590B6A0B7B0B62
:100D80008091740490917504B0E0A0E084179507F9
:100D9000A607B70708F01DC1C0E080917204C8170C
:100DA00060F4E0916E04F0916F04EC0FF11D62E0CD
:100DB00080810E94AB04CF5FF0CF712C812C912CED
:100DC0005401839480917304781608F05FC0072D56
:100DD00010E0E0917004F0917104E00FF11F61E008
:100DE00080810E94AB04E0917004F0917104E00FE7
:100DF000F11F60E080810E943404D501C401072CFA
:100E000004C0880F991FAA1FBB1F0A94D2F76C0158
:100E10007C01E094F094612C809172046816F8F4DF
:100E2000C62DD0E0E0916E04F0916F04EC0FFD1F31
:100E300080810E9408042496CC0FDD1FC45FDB4F25
:100E4000892B41F4888199818C299D2999838883F4
:100E50006394E2CF888199818E219F21F7CFE09121
:100E60007004F0917104E00FF11F61E080810E9435
:100E700034048091700490917104080F191F60E090
:100E8000F80180810E94AB0473949CCFCCE0D4E045
:100E9000FE018FEF9FEF278D30A1232B21F4148EBD
:100EA000968F858F11A2369624E0E834F20799F7E1
:100EB000F12C96E0D92E80917204F81608F050C0FB
:100EC000E12C0F2D10E0000F111F0C5E1B4F209125
:100ED0007304E21608F042C0F801608171810E2CA3
:100EE00002C0769567950A94E2F7F29E900111246C
:100EF0002E0D311DECE0F4E080E0458D568D241779
:100F0000350709F46AC08F5F36968A30B1F760FF03
:100F100023C0ECE0F4E090E080E0448D411117C084
:100F2000E0916C04F0916D04E20FF31F4081D89EB4
:100F3000F001D99EF00D1124E45FFB4F448F368FF2
:100F4000258F10A2178E61E00E94FD0105C0019659
:100F500036968A30910509F7E394B9CFF394ABCF75
:100F600080E099A19111892F2696F4E0C834DF071B
:100F7000C1F79FB7F8944091B7025091B8026091C1
:100F8000B9027091BA029FBF4093680450936904FC
:100F900060936A0470936B048823D9F080912D04C8
:100FA0008823B9F080912B0490912C04019789F447
:100FB00080912804DF91CF911F910F91FF90EF90C6
:100FC000DF90CF90BF90AF909F908F907F906F9069
:100FD00008951092780480E0EDCF6170B5CF3FB7EF
:100FE000F8948091A3029091A402A091A502B091DF
:100FF000A60226B5A89B05C02F3F19F00196A11D9A
:10100000B11D3FBFBA2FA92F982F8827BC01CD0152
:10101000620F711D811D911D42E0660F771F881FB1
:10102000991F4A95D1F708958F929F92AF92BF92E0
:10103000CF92DF92EF92FF924B015C010E94EF078B
:101040006B017C010E94EF076C197D098E099F09D5
:10105000683E734081059105A8F321E0821A91084A
:10106000A108B10888EEC80E83E0D81EE11CF11C6F
:1010700081149104A104B10429F7FF90EF90DF904F
:10108000CF90BF90AF909F908F900895AF92BF92F6
:10109000CF92DF92EF92FF920F931F93CF93DF9344
:1010A0006B017A01EC01C256DD4F28813CE0389F8C
:1010B0008001399F100D1124A0900804B12C27FF46
:1010C0001FC0FB011182108288818F5F8883888115
:1010D0009801280F311D87FD3A95F6012A153B0529
:1010E0001CF488818C30C4F1808191810496803415
:1010F0009C4908F473C0F60180819181049670C008
:1011000088819801280F311D87FD3A952A153B05E6
:10111000DCF68881A801480F511D87FD5A95FA0118
:10112000EE0FFF1FE40FF51FE858FC4F808186FF8C
:10113000CBCF8881F801E80FF11D87FDFA95CF012B
:10114000EE0FFF1FE80FF91FE858FC4F808160E0A9
:101150008F730E943404B8CF808191812881A801C7
:10116000420F511D27FD5A959A01FA01EE0FFF1FFC
:10117000E20FF31FE858FC4F21813281820F931F49
:10118000F7019183808388819801280F311D87FDA5
:101190003A95F901EE0FFF1FE20FF31FE858FC4FDD
:1011A000808186FF22C08881080F111D87FD1A9556
:1011B000F801EE0FFF1FE00FF11FE858FC4F808190
:1011C00061E08F73DF91CF911F910F91FF90EF90AE
:1011D000DF90CF90BF90AF900C94340480E49CE9F2
:1011E000F701918380838FEF8883DF91CF911F91E7
:1011F0000F91FF90EF90DF90CF90BF90AF90089548
:10120000089590E080E00895FC0101900020E9F746
:101210003197AF01481B590BBC018BE794E00C944C
:101220006D028F929F92AF92BF920F931F93CF93B5
:10123000DF93CDB7DEB7A1970FB6F894DEBF0FBE30
:10124000CDBF19A2423008F44AE08E010F5D1F4F56
:10125000842E912CB12CA12CA50194010E94821105
:10126000E62FB901CA01EA30F4F4E05DD801EE934B
:101270008D01232B242B252B79F790E080E010970C
:1012800019F0CD010E940409A1960FB6F894DEBFB3
:101290000FBECDBFDF91CF911F910F91BF90AF9047
:1012A0009F908F900895E95CE1CFCF93DF93EC019D
:1012B00060E08E810E94340461E08E810E943404DB
:1012C00060E08E810E9434048BE891E00197F1F791
:1012D000DF91CF910895CF92DF92EF92FF920F931B
:1012E0001F93CF93DF936C017C0187E0E80EF11C24
:1012F000D0E0C0E0062F10E0B8010C2E02C07595BA
:1013000067950A94E2F76170F70181917F010E946D
:1013100034042196C430D10579F7C601DF91CF910D
:101320001F910F91FF90EF90DF90CF900C94550993
:10133000CF92DF92EF92FF920F931F93CF93DF93A1
:10134000EC01F62E642F8C810E9434048D818F3F36
:1013500019F060E00E9434040F2D10E08F8584FFA7
:1013600025C06E0187E0C80ED11CF12CE12CB8011C
:101370000E2C02C0759567950A94E2F76170F6012C
:1013800081916F010E943404FFEFEF1AFF0A88E099
:10139000E816F10461F7CE01DF91CF911F910F9113
:1013A000FF90EF90DF90CF900C945509B80184E046
:1013B000759567958A95E1F7CE010E946B096F2DAF
:1013C000CE01DF91CF911F910F91FF90EF90DF90B1
:1013D000CF900C946B0940E0682F8BE794E00C945D
:1013E000980981E00E94EB098BE39FE10197F1F7F7
:1013F0000895CF93DF93823029F490918A04986006
:1014000090938A0480938E0410928F0480E48093DA
:10141000900480E18093910480E58093920461E0E0
:1014200080917F040E94AB04809180048F3F19F06B
:1014300061E00E94AB0461E0809181040E94AB04F2
:10144000CBE7D4E09E012B57344080918A0484FD81
:101450000BC084E090E021962817390744F461E03E
:101460008E810E94AB04EECF88E090E0F4CF8BE356
:101470009DE00197F1F760E080917F040E943404C1
:1014800060E0809181040E943404809180048F3F49
:1014900019F060E00E94340480918A0484FD34C015
:1014A00063E08BE794E00E946B09CBE4D6E4CE01C5
:1014B0000197F1F763E08BE794E00E946B092197B5
:1014C000F1F763E08BE794E00E946B0983E592E01B
:1014D0000197F1F762E08BE794E00E946B0980913D
:1014E0008A0480620E94EB0984E080938B048CE084
:1014F0000E94EB090E94F10982E080938C0486E04F
:10150000DF91CF910C94EB0980620E94EB098BE490
:1015100096E40197F1F780918A0480620E94EB09BA
:1015200083E592E00197F1F780918A0480620E943E
:10153000EB09D5CF90918E04891710F08FEF890FAA
:10154000E82FF0E0E558FB4F848980680C94EB09A4
:1015500041E00E94980981E090E0089541E0682F01
:101560008BE794E00E94980981E090E008954F9203
:101570005F926F927F928F929F92AF92BF92CF9223
:10158000DF92EF92FF920F931F93CF936B017C0139
:10159000742EAC019B010E94EA13882399F081E428
:1015A00092E0CF911F910F91FF90EF90DF90CF903D
:1015B000BF90AF909F908F907F906F905F904F9073
:1015C0000C94040946015701E894B7F82FEF3FEF58
:1015D0004FE75FE7C501B4010E94EA1381110DC016
:1015E0002FEF3FEF4FE75FE7C501B4010E942012E4
:1015F00018161CF485E492E0D4CF2FEF3FEF4FE7AD
:101600005FE4C701B6010E94781318161CF489E440
:1016100092E0C7CF2FEF3FEF4FE75FECC701B60176
:101620000E94201287FDF3CF20E030E0A901C7011E
:10163000B6010E94201210E000E087FF08C08DE292
:101640000E94AE0A8C01F7FAF094F7F8F094C0E02B
:1016500060E070E080E09FE37C1641F020E030E045
:1016600040E251E40E942512CF5FF6CFA701960118
:101670000E94B4112B013C010E9497124B015C01A6
:101680004AE00E9411097C01E00EF11ECC23B1F169
:10169000C501B4010E94C6129B01AC01C301B20195
:1016A0000E94B3114B015C018EE20E94AE0AE80E6B
:1016B000F91EC15018F120E030E040E251E4C501CC
:1016C000B4010E947D132B013C010E9497124B0133
:1016D000B12CA12C4AE0C501B4010E941109E80E09
:1016E000F91EC501B4010E94C6129B01AC01C301E1
:1016F000B2010E94B3114B015C01DBCFC701CF9156
:101700001F910F91FF90EF90DF90CF90BF90AF901F
:101710009F908F907F906F905F904F9008951F9251
:101720000F920FB60F9211240BB60F922F933F9387
:101730004F935F936F937F938F939F93AF93BF93D9
:10174000EF93FF938091CF029091D002A091D102AC
:10175000B091D202892B8A2B8B2BE1F19091BE02A2
:10176000E091BF02F091C00280818927808380913F
:10177000CF029091D002A091D102B091D20218165E
:1017800019061A061B069CF48091CF029091D00294
:10179000A091D102B091D2020197A109B109809321
:1017A000CF029093D002A093D102B093D202FF91C6
:1017B000EF91BF91AF919F918F917F916F915F91C9
:1017C0004F913F912F910F900BBE0F900FBE0F9036
:1017D0001F901895809100020E946604E8CF1F9226
:1017E0000F920FB60F9211240BB60F922F933F93C7
:1017F0004F935F936F937F938F939F93AF93BF9319
:10180000EF93FF938BED92E00E94E102FF91EF9145
:10181000BF91AF919F918F917F916F915F914F9108
:101820003F912F910F900BBE0F900FBE0F901F9006
:1018300018951F920F920FB60F9211240BB60F92AC
:101840002F938F939F93EF93FF93E091EB02F0918F
:10185000EC028081E091F102F091F20282FD1DC064
:1018600090818091F4028F5F8F732091F50282172F
:1018700041F0E091F402F0E0E552FD4F958F809346
:10188000F402FF91EF919F918F912F910F900BBEDA
:101890000F900FBE0F901F9018958081F2CF1F926E
:1018A0000F920FB60F9211242F933F938F939F9314
:1018B000AF93BF938091B7029091B802A091B90203
:1018C000B091BA023091A20223E0230F2D3758F5D0
:1018D0000196A11DB11D2093A2028093B70290939F
:1018E000B802A093B902B093BA028091A30290917A
:1018F000A402A091A502B091A6020196A11DB11D5E
:101900008093A3029093A402A093A502B093A60291
:10191000BF91AF919F918F913F912F910F900FBEEB
:101920000F901F90189526E8230F0296A11DB11D58
:10193000D2CF1F920F920FB60F9211240BB60F92B7
:101940002F933F934F935F936F937F938F939F93C7
:10195000AF93BF93EF93FF9348E251E064E271E0ED
:1019600090E080E00E944608FF91EF91BF91AF9117
:101970009F918F917F916F915F914F913F912F91A7
:101980000F900BBE0F900FBE0F901F9018951F92D7
:101990000F920FB60F9211240BB60F922F933F9315
:1019A0004F935F936F937F938F939F93AF93BF9367
:1019B000EF93FF9348EA50E064EA70E083E090E040
:1019C0000E944608FF91EF91BF91AF919F918F9137
:1019D0007F916F915F914F913F912F910F900BBE2F
:1019E0000F900FBE0F901F9018951F920F920FB679
:1019F0000F9211240BB60F922F933F934F935F9347
:101A00006F937F938F939F93AF93BF93EF93FF93C6
:101A100048E950E064E970E082E090E00E94460806
:101A2000FF91EF91BF91AF919F918F917F916F91B6
:101A30005F914F913F912F910F900BBE0F900FBE72
:101A40000F901F9018951F920F920FB60F921124AE
:101A50000BB60F922F933F934F935F936F937F93A8
:101A60008F939F93AF93BF93EF93FF9348E850E01A
:101A700064E870E081E090E00E944608FF91EF91F9
:101A8000BF91AF919F918F917F916F915F914F9196
:101A90003F912F910F900BBE0F900FBE0F901F9094
:101AA00018951092DE021092DD0288EE93E0A0E01D
:101AB000B0E08093DF029093E002A093E102B09344
:101AC000E2028DE192E09093DC028093DB0285ECF0
:101AD00090E09093E8028093E70284EC90E090938A
:101AE000EA028093E90280EC90E09093EC0280930C
:101AF000EB0281EC90E09093EE028093ED0282EC99
:101B000090E09093F0028093EF0286EC90E0909347
:101B1000F2028093F1021092F4021092F5021092F8
:101B2000F6021092F70210927E0410927D0489E36F
:101B300092E090937C0480937B048DE080937F04FB
:101B40008FEF809380048CE08093810485E0809304
:101B5000820484E08093830483E08093840482E0A1
:101B60008093850410928604109287041092880452
:101B70001092890410928A0481E00E94F90910925F
:101B80000E041092120410921104109213048FE2AA
:101B900092E090930D0480930C04E8E2F4E010824C
:101BA000148213821582369684E0E436F807B9F77A
:101BB00085E092E090936F0480936E0481E092E060
:101BC000909371048093700484E0809372048093F6
:101BD000730489E092E090936D0480936C048AE032
:101BE00090E0909375048093740484EF91E0909357
:101BF00077048093760410927A04109279041092FC
:101C000068041092690410926A0410926B04109296
:101C1000780480910804803398F491E0980F9093B1
:101C200008048093090490E0FC01EE0FFF1FE80F09
:101C3000F91FE858FC4F88EB9BE09283818308955D
:101C40008FEF809309040895789484B5826084BDF1
:101C500084B5816084BD85B5826085BD85B58160B0
:101C600085BD80916E00816080936E00109281002E
:101C700080918100826080938100809181008160E9
:101C800080938100809180008160809380008091AA
:101C9000B10084608093B1008091B0008160809336
:101CA000B0008091910082608093910080919100BA
:101CB000816080939100809190008160809390007A
:101CC0008091A10082608093A1008091A100816039
:101CD0008093A1008091A00081608093A0008091FA
:101CE0002101826080932101809121018160809394
:101CF00021018091200181608093200180917A00F0
:101D0000846080937A0080917A00826080937A0068
:101D100080917A00816080937A0080917A00806857
:101D200080937A001092C10082E00E94F9090E941B
:101D3000F10980E00E949A0A8DE492E00E94040971
:101D400081E00E949A0A8BE592E00E94040964EF08
:101D500071E080E090E00E9414080E94F1098091F7
:101D60000904803308F052C061E086E00E94AB04B1
:101D700080910904282F30E0F901EE0FFF1FE20FD8
:101D8000F31FE858FC4F9081907C966090831092EE
:101D90000A0410920B042CE0622F0E94EF13829F22
:101DA000B001112430E020E0AB01420F531FFA01D3
:101DB000EE0FFF1FE40FF51FE858FC4F908196FDD2
:101DC00017C02F5F3F4F2C30310571F7813009F07C
:101DD000F9C01092800082E080938100109285000B
:101DE00010928400B19A80916F00826080936F009E
:101DF000E09109048E2F90E0FC01EE0FFF1FE80F29
:101E0000F91FE858FC4F80818064808382E390E072
:101E10000E94750161E080E00E94AB0460E086E30F
:101E20000E94AB04E091EB02F091EC0282E080832F
:101E3000E091E702F091E8021082E091E902F0916E
:101E4000EA028FEC80831092F302E091EF02F091AE
:101E5000F00286E08083E091ED02F091EE02808155
:101E600080618083E091ED02F091EE0280818860D4
:101E70008083E091ED02F091EE02808180688083A2
:101E8000E091ED02F091EE0280818F7D8083809160
:101E90007B00877F80937B0080E480937C0080912F
:101EA0007A00806480937A0080917A0086FDFCCF6E
:101EB0008091780060917900762F682F072E000CB2
:101EC000880B990B0E94C81220E030E04AEF53E4DF
:101ED0000E947D1320E030EC4FE754E40E9425126D
:101EE0006093AB027093AC028093AD029093AE020C
:101EF0001092B4021092B3021092B5021092B60280
:101F00001092B0021092AF0264EF71E080E090E0B6
:101F10000E94140880E00E949A0A80E692E00E94E3
:101F2000040981E00E949A0A6091AB027091AC02B0
:101F30008091AD029091AE0242E00E94B70A68EE35
:101F400073E080E090E00E9414080E94F109C1E073
:101F5000DAE00E949806882309F477C08F3209F0EE
:101F60000FC11092B0021092AF020E94F10980E0FE
:101F70000E949A0A8EE692E00E94040981E00E9483
:101F80009A0A0E9498068823E1F390ED980F9A3000
:101F900008F044C04091AF025091B002D49F90012C
:101FA000D59F300D1124482F082E000C550B40539F
:101FB0005109240F351F3093B0022093AF020E94C5
:101FC000AE0ADFCF823061F41092900080939100CE
:101FD000109295001092940088BB8093710008CFF6
:101FE000833069F41092A00082E08093A1001092E7
:101FF000A5001092A40089BB80937200F9CE8111D4
:10200000F7CE1092200182E08093210110922501E9
:10201000109224018ABB80937300EACE8B3209F0C0
:10202000B0CF6091AF027091B002072E000C880B08
:10203000990B0E94C8126093A7027093A802809324
:10204000A9029093AA020E94F1098091B602882306
:10205000B9F08091B502811113C086E990E00E9429
:1020600075010E94E7046CE271E080E090E00E945C
:10207000140880E00E946604C093B502C093B402C5
:102080008091B4028823C1F18091B302811134C0E0
:102090000E94F10980E00E949A0A82E892E00E9480
:1020A0000409C090AB02D090AC02E090AD02F09079
:1020B000AE02A70196016091A7027091A8028091DB
:1020C000A9029091AA020E94B3114B015C0120E089
:1020D00030E0A9010E94781318160CF094C02AE988
:1020E00039E949E15FE3C501B4010E94781318168C
:1020F0000CF493C0C093B3028091B302882309F417
:10210000CCC00E94F10980E00E949A0A8EE892E019
:102110000E940409A090B102B090B20265010B2C9C
:10212000000CEE08FF0810E000E08091B1029091F1
:10213000B202081719070CF089C081E00E949A0AC0
:102140004AE0C701B601F7FE0BC08DE20E94AE0A5D
:1021500066277727CB016C197D098E099F094AE014
:102160000E94110964EF71E080E090E00E94140881
:102170000F5F1F4F81E0C81AD108E108F108D5CFE1
:102180008A32D9F51092B0021092AF020E94F10982
:1021900080E00E949A0A8BE792E00E94040981E0A5
:1021A0000E949A0A0E9498068823E1F390ED980F06
:1021B0009A30C0F44091AF025091B002D49F900188
:1021C000D59F300D1124482F082E000C550B40537D
:1021D0005109240F351F3093B0022093AF020E94A3
:1021E000AE0AE0CF8B32F1F68091AF029091B0024F
:1021F0009093B2028093B10226CF8D3309F025CFA0
:10220000C093B60222CF2AE939E949E15FEBC50163
:10221000B4010E94201287FF6DCF6CE271E080E074
:1022200090E00E9414082AE939E949E95FE3C7010F
:10223000B6010E94B4116B017C0181E00E949A0AF0
:1022400042E0C701B6010E94B70A33CFA016B1061B
:1022500049F40E94F10980E00E949A0A85E992E01F
:102260000E94040982E390E00E9475010E94E70445
:102270006CE271E080E090E00E94140880E00E942F
:1022800066041092B4021092B3021092B50210923A
:10229000B6021092B0021092AF020E94700359CEA3
:1022A000052E97FB1EF400940E94671157FD07D07E
:1022B0000E94821107FC03D04EF40C9467115095D4
:1022C0004095309521953F4F4F4F5F4F0895909522
:1022D0008095709561957F4F8F4F9F4F08950E9415
:1022E000A411A59F900DB49F900DA49F800D911DEA
:1022F00011240895B7FF0C946F110E946F11821B77
:10230000930B0895A1E21A2EAA1BBB1BFD010DC061
:10231000AA1FBB1FEE1FFF1FA217B307E407F50795
:1023200020F0A21BB30BE40BF50B661F771F881F71
:10233000991F1A9469F760957095809590959B0107
:10234000AC01BD01CF010895A29FB001B39FC001B0
:10235000A39F700D811D1124911DB29F700D811DD1
:102360001124911D08955058BB27AA270E94CB1114
:102370000C943E130E94301338F00E94371320F063
:1023800039F49F3F19F426F40C942D130EF4E095C4
:10239000E7FB0C942713E92F0E944F1358F3BA1749
:1023A000620773078407950720F079F4A6F50C946B
:1023B00071130EF4E0950B2EBA2FA02D0B01B9016D
:1023C00090010C01CA01A0011124FF27591B99F0AB
:1023D000593F50F4503E68F11A16F040A22F232FB7
:1023E000342F4427585FF3CF469537952795A79507
:1023F000F0405395C9F77EF41F16BA0B620B730BAE
:10240000840BBAF09150A1F0FF0FBB1F661F771F1E
:10241000881FC2F70EC0BA0F621F731F841F48F4D3
:10242000879577956795B795F7959E3F08F0B0CF5C
:102430009395880F08F09927EE0F97958795089543
:102440000E94031308F481E008950E9439120C944D
:102450003E130E94371358F00E94301340F029F4C5
:102460005F3F29F00C94271351110C9472130C94B4
:102470002D130E944F1368F39923B1F3552391F361
:10248000951B550BBB27AA2762177307840738F0E3
:102490009F5F5F4F220F331F441FAA1FA9F335D040
:1024A0000E2E3AF0E0E832D091505040E695001CF4
:1024B000CAF72BD0FE2F29D0660F771F881FBB1FAE
:1024C000261737074807AB07B0E809F0BB0B802D8C
:1024D000BF01FF2793585F4F3AF09E3F510578F0B8
:1024E0000C9427130C9472135F3FE4F3983ED4F3DB
:1024F000869577956795B795F7959F5FC9F7880F8C
:10250000911D9695879597F90895E1E0660F771FDD
:10251000881FBB1F621773078407BA0720F0621B6E
:10252000730B840BBA0BEE1F88F7E09508950E9499
:10253000571388F09F5798F0B92F9927B751B0F0EB
:10254000E1F0660F771F881F991F1AF0BA95C9F737
:1025500014C0B13091F00E947113B1E008950C9451
:102560007113672F782F8827B85F39F0B93FCCF304
:10257000869577956795B395D9F73EF490958095B4
:10258000709561957F4F8F4F9F4F0895E89409C0D4
:1025900097FB3EF490958095709561957F4F8F4F96
:1025A0009F4F9923A9F0F92F96E9BB279395F695AC
:1025B000879577956795B795F111F8CFFAF4BB0F2A
:1025C00011F460FF1BC06F5F7F4F8F4F9F4F16C08E
:1025D000882311F096E911C0772321F09EE8872F18
:1025E000762F05C0662371F096E8862F70E060E0D4
:1025F0002AF09A95660F771F881FDAF7880F96954D
:10260000879597F90895990F0008550FAA0BE0E8F0
:10261000FEEF16161706E807F907C0F012161306A4
:10262000E407F50798F0621B730B840B950B39F4E4
:102630000A2661F0232B242B252B21F408950A264A
:1026400009F4A140A6958FEF811D811D089597F98A
:102650009F6780E870E060E008959FEF80EC089548
:1026600000240A9416161706180609060895002471
:102670000A9412161306140605060895092E0394EB
:10268000000C11F4882352F0BB0F40F4BF2B11F45F
:1026900060FF04C06F5F7F4F8F4F9F4F089557FDBE
:1026A0009058440F551F59F05F3F71F04795880FC0
:1026B00097FB991F61F09F3F79F087950895121657
:1026C00013061406551FF2CF4695F1DF08C0161603
:1026D00017061806991FF1CF8695710561050894B4
:1026E0000895E894BB2766277727CB0197F90895CB
:1026F0000E94031308F48FEF08950E9490130C9426
:102700003E130E94301338F00E94371320F09523B7
:1027100011F00C9427130C942D1311240C947213A4
:102720000E944F1370F3959FC1F3950F50E0551F12
:10273000629FF001729FBB27F00DB11D639FAA2716
:10274000F00DB11DAA1F649F6627B00DA11D661F65
:10275000829F2227B00DA11D621F739FB00DA11D86
:10276000621F839FA00D611D221F749F3327A00D40
:10277000611D231F849F600D211D822F762F6A2FDC
:1027800011249F5750409AF0F1F088234AF0EE0F41
:10279000FF1FBB1F661F771F881F91505040A9F76E
:1027A0009E3F510580F00C9427130C9472135F3FE9
:1027B000E4F3983ED4F3869577956795B795F795AA
:1027C000E7959F5FC1F7FE2B880F911D9695879522
:1027D00097F908950E940313880B990B0895991B8C
:1027E00079E004C0991F961708F0961B881F7A9508
:1027F000C9F780950895EE0FFF1F881F8BBF0790C4
:10280000F691E02D1994F894FFCFFF1A1B1C1D16AA
:102810001718193738392F3435362A3132332D63AA
:10282000303D2B0000000003036D029A025003CBE1
:1028300002A902BD020000000094066204310400F7
:10284000000000A80A6D02010900096E616E0069AE
:102850006E66006F76660048617373616E204B612F
:102860007A656D69004F76656E0063757272656E8C
:10287000742074656D703A0054656D706572617492
:102880007572653A0054696D65723A0068656174E5
:10289000696E672E2E2E200074696D6572200046C9
:0828A000696E6973686564004C
:10E000000D9489F10D94B2F10D94B2F10D94B2F129
:10E010000D94B2F10D94B2F10D94B2F10D94B2F1F0
:10E020000D94B2F10D94B2F10D94B2F10D94B2F1E0
:10E030000D94B2F10D94B2F10D94B2F10D94B2F1D0
:10E040000D94B2F10D94B2F10D94B2F10D94B2F1C0
:10E050000D94B2F10D94B2F10D94B2F10D94B2F1B0
:10E060000D94B2F10D94B2F10D94B2F10D94B2F1A0
:10E070000D94B2F10D94B2F10D94B2F10D94B2F190
:10E080000D94B2F10D94B2F10D94B2F10D94B2F180
:10E090000D94B2F10D94B2F10D94B2F10D94B2F170
:10E0A0000D94B2F10D94B2F10D94B2F10D94B2F160
:10E0B0000D94B2F10D94B2F10D94B2F10D94B2F150
:10E0C0000D94B2F10D94B2F10D94B2F10D94B2F140
:10E0D0000D94B2F10D94B2F10D94B2F10D94B2F130
:10E0E0000D94B2F141546D656761323536300041AF
:10E0F000726475696E6F206578706C6F72657220DE
:10E1000073746B3530305632206279204D4C530099
:10E11000426F6F746C6F616465723E004875683F52
:10E1200000436F6D70696C6564206F6E203D200048
:10E130004350552054797065202020203D20005FF9
:10E140005F4156525F415243485F5F3D2000415658
:10E1500052204C696243205665723D20004743437C
:10E160002056657273696F6E203D20004350552024
:10E1700049442020202020203D20004C6F7720663D
:10E18000757365202020203D20004869676820665F
:10E190007573652020203D200045787420667573D6
:10E1A00065202020203D20004C6F636B2066757336
:10E1B000652020203D20004D617220203720323024
:10E1C000313300312E362E3800342E332E350056A2
:10E1D00023202020414444522020206F7020636F70
:10E1E00064652020202020696E73747275637469E1
:10E1F0006F6E2061646472202020496E74657272B3
:10E20000757074006E6F20766563746F7200726A49
:10E210006D702020006A6D70200057686174207056
:10E220006F72743A00506F7274206E6F7420737541
:10E2300070706F72746564004D7573742062652030
:10E2400061206C6574746572002000577269747483
:10E25000696E672045450052656164696E672045B7
:10E26000450045452065727220636E743D00504F35
:10E27000525400303D5A65726F2061646472003FF1
:10E280003D43505520737461747300403D454550C3
:10E29000524F4D207465737400423D426C696E6B41
:10E2A000204C454400453D44756D70204545505215
:10E2B0004F4D00463D44756D7020464C415348001B
:10E2C000483D48656C70004C3D4C69737420492F83
:10E2D0004F20506F72747300513D51756974005234
:10E2E0003D44756D702052414D00563D73686F7707
:10E2F00020696E7465727275707420566563746FF0
:10E30000727300593D506F727420626C696E6B00BD
:10E310002A0011241FBECFEFD1E2DEBFCDBF01E046
:10E320000CBF12E0A0E0B2E0EEE1FDEF03E00BBFB6
:10E3300002C007900D92A030B107D9F712E0A0E01B
:10E34000B2E001C01D92AE30B107E1F70F9460F367
:10E350000D948DFE01E20EBF0FEF0DBF11241FBE05
:10E360000D9460F30D9400F020E030E040ED57E0B4
:10E3700005C0FA013197F1F72F5F3F4F2817390792
:10E38000C0F308959C01260F311DC901A0E0B0E043
:10E390002F5F3F4FABBFFC018791882361F08093D3
:10E3A000C6008091C00086FFFCCF8091C0008064D1
:10E3B0008093C000EACF08958DE08093C6008091DD
:10E3C000C00086FFFCCF8091C00080648093C000B5
:10E3D0008AE08093C6008091C00086FFFCCF8091C8
:10E3E000C00080648093C00008950F94C2F10F9420
:10E3F000DCF10895FC019081992359F09093C600B7
:10E400008091C00086FFFCCF8091C0008064809323
:10E41000C0003196992379F70895282F982F929567
:10E420009F70892F805D8A3308F0895F8093C600D2
:10E430008091C00086FFFCCF8091C00080648093F3
:10E44000C000822F8F70982F905D9A3308F0995FEB
:10E450009093C6008091C00086FFFCCF8091C000E1
:10E4600080648093C00008959C01FB01853691056E
:10E470001CF46330710594F0C90164E670E00F94F8
:10E480002EFE605D7F4F6093C6008091C00086FFC6
:10E49000FCCF8091C00080648093C0002B30310598
:10E4A00014F43297B4F0C90164E670E00F942EFEC4
:10E4B0006AE070E00F942EFE605D7F4F6093C600AF
:10E4C0008091C00086FFFCCF8091C0008064809363
:10E4D000C000C9016AE070E00F942EFEC0968093E0
:10E4E000C6008091C00086FFFCCF8091C000806490
:10E4F0008093C00008951F93182F8EE692EE60E07F
:10E500000F94C2F11093C6008091C00086FFFCCF2B
:10E510008091C00080648093C0000F94DCF11F9153
:10E5200008952F923F924F925F926F927F928F92B7
:10E530009F92AF92BF92CF92DF92EF92FF920F9392
:10E540001F93DF93CF93CDB7DEB762970FB6F894E2
:10E55000DEBF0FBECDBF382E622ECA01DB015C01CB
:10E560006D01772420E2222E2E010894411C511CBB
:10E570008BC081E0A81680E0B80681E0C80680E084
:10E58000D80628F0C601AA27BB270F940DF2BB2797
:10E59000AD2D9C2D8B2D0F940DF28A2D0F940DF225
:10E5A0002092C6008091C00086FFFCCF8091C00001
:10E5B00080648093C0009DE29093C6008091C0006B
:10E5C00086FFFCCF8091C00080648093C0002092C1
:10E5D000C6008091C00086FFFCCF8091C00080649F
:10E5E0008093C00019828601750188249924A1E0D6
:10E5F0003A1651F03A1620F0B2E03B1661F409C029
:10E600000BBFF701779007C0C7010F9477FE782EF4
:10E6100002C0F7017080872D0F940DF22092C60082
:10E620008091C00086FFFCCF8091C0008064809301
:10E63000C000872D8052F401EF70F0708F3520F408
:10E64000E40DF51D708204C0E40DF51D8EE280839B
:10E650000894E11CF11C011D111D0894811C911CE2
:10E6600090E18916910409F0C2CF80E190E0A0E02A
:10E67000B0E0A80EB91ECA1EDB1E198AC2010F9493
:10E68000FAF10F94DCF16A94662009F072CF629679
:10E690000FB6F894DEBF0FBECDBFCF91DF911F91B3
:10E6A0000F91FF90EF90DF90CF90BF90AF909F9031
:10E6B0008F907F906F905F904F903F902F90089534
:10E6C0002F923F924F925F926F927F928F929F9282
:10E6D000AF92BF92CF92DF92EF92FF920F931F9370
:10E6E000DF93CF93CDB7DEB7CD53D1400FB6F894BB
:10E6F000DEBF0FBECDBF01E20EBF0FEF0DBF94B75F
:10E70000F894A89514BE80916000886180936000A1
:10E7100010926000789493FF05C0E0910002F091A0
:10E7200001021995279A2F9A8091C00082608093E8
:10E73000C00080E18093C40088E18093C1000000A4
:10E74000EE24FF24870144E0A42EB12CCC24DD2448
:10E7500024C0C5010197F1F70894E11CF11C011DCB
:10E76000111D21E2E2162EE4F20620E0020720E06D
:10E77000120718F031E0C32ED12CC801B70127ECE5
:10E780003BE140E050E00F9441FE611571058105C9
:10E79000910519F485B1805885B98091C00087FD35
:10E7A00003C0C114D104A9F2A6014F5F5F4FC25E3E
:10E7B000DE4F59834883CE51D140C25EDE4F8881FF
:10E7C0009981CE51D140019711F00D9410FEC05D9A
:10E7D000DE4F19821882C053D14060E0C15DDE4F28
:10E7E0001882CF52D14088249924C35DDE4F19820C
:10E7F0001882CD52D140C05EDE4F188219821A8233
:10E800001B82C052D140CE5CDE4F188219821A8220
:10E810001B82C253D140EE24FF2487010BBFF701B6
:10E8200007911691C45CDE4F19830883CC53D14005
:10E830000D940BFEC25EDE4F28813981CE51D1404E
:10E840002130310509F52091C600C25EDE4F1982E4
:10E850001882CE51D14022C02F5F3F4F4F4F5F4FA4
:10E86000213082E138078AE7480780E0580780F0C6
:10E87000C45CDE4FE881F981CC53D140EF5FFF4F9C
:10E8800019F0EE27FF27099420E030E040E050E047
:10E890008091C00087FFE0CF2091C600C35DDE4FAE
:10E8A00048815981CD52D1404F5F5F4FC35DDE4FEC
:10E8B00059834883CD52D140213209F063C64A3092
:10E8C000510508F05FC60894811C911C53E0851621
:10E8D000910409F059C600E010E018C081E280936D
:10E8E000C6008091C00086FFFCCF8091C00080648C
:10E8F0008093C0002F5F3F4F2931310579F70F9486
:10E90000DCF10F5F1F4F0530110519F020E030E0FA
:10E91000E5CF10920A0210920B0210920C02109294
:10E920000D02109206021092070210920802109235
:10E930000902109202021092030210920402109235
:10E9400005028FEE90EE60E00F94F5F180E191EE1C
:10E9500060E00F94C2F18091C00087FFFCCF9091DE
:10E96000C600903608F09F759032B8F09093C600BC
:10E970008091C00086FFFCCF8091C00080648093AE
:10E98000C000A0E2A093C6008091C00086FFFCCF2B
:10E990008091C00080648093C000983409F4D7C18E
:10E9A0009934B8F4923409F459C1933458F490333B
:10E9B00019F1903308F4E3C59F33A1F1903409F0C5
:10E9C000DEC5BDC0953409F470C1963409F0D7C5D1
:10E9D00098C1923509F42BC2933538F49C3409F46C
:10E9E000F5C1913509F0CBC518C2963509F445C279
:10E9F000993509F0C4C567C483E792EE62E00F94CD
:10EA0000F5F110920602109207021092080210927D
:10EA1000090210920A0210920B0210920C0210923C
:10EA20000D0213C18FE792EE62E00F94F5F18FEEC5
:10EA300090EE60E00F94F5F181E291EE60E00F94CA
:10EA4000C2F187EB91EE60E00F94F5F180E391EE77
:10EA500060E00F94C2F184EE90EE60E00F94F5F167
:10EA60008FE391EE60E00F94C2F186E090E061E008
:10EA700070E00F9434F20F94DCF18DE591EE60E0DC
:10EA80000F94C2F189EC91EE60E00F94F5F18EE401
:10EA900091EE60E00F94C2F183EC91EE60E00F9490
:10EAA000F5F18CE691EE60E00F94C2F18EE10F94E7
:10EAB0000DF288E90F940DF281E00F940DF20F949E
:10EAC000DCF18BE791EE60E00F94C2F119E0E0E039
:10EAD000F0E010935700E4918E2F0F940DF20F94F5
:10EAE000DCF18AE891EE60E00F94C2F1E3E0F0E03F
:10EAF00010935700E4918E2F0F940DF20F94DCF1D8
:10EB000089E991EE60E00F94C2F1E2E0F0E0109349
:10EB10005700E4918E2F0F940DF20F94DCF188EAE8
:10EB200091EE60E00F94C2F1E1E0F0E01093570045
:10EB30001491812F0F940DF20F94DCF107CF8BE825
:10EB400092EE62E00F94F5F18BE492EE60E00F94A8
:10EB5000F5F10F94DCF100E010E019C0C8016F2D51
:10EB60000F947FFEFF2031F489E492EE60E00F9471
:10EB7000C2F10BC0F092C6008091C00086FFFCCFAE
:10EB80008091C00080648093C0000F5F1F4FC80158
:10EB900081519F41A0E0B0E0ABBFFC01F790BAE229
:10EBA000FB1621F0E2E000301E07C1F60F94DCF105
:10EBB0000F94DCF187E592EE60E00F94F5F10F948D
:10EBC000DCF1CC24DD2400E010E01EC0C8010F946D
:10EBD00077FEF82E882331F489E492EE60E00F94FA
:10EBE000C2F10BC08093C6008091C00086FFFCCFAD
:10EBF0008091C00080648093C000FE1419F00894D6
:10EC0000C11CD11C0F5F1F4FC80181519F41A0E063
:10EC1000B0E0ABBFFC01E790FAE2EF1621F022E092
:10EC20000030120799F60F94DCF10F94DCF182E6C4
:10EC300092EE60E00F94C2F1C60161E070E00F94C3
:10EC400034F20F94DCF10F94DCF110920202109276
:10EC50000302109204021092050278CE89E992EE26
:10EC600062E00F94F5F1279A2F9A16C02F9880E052
:10EC700090E0E0EDF7E03197F1F7019684369105E9
:10EC8000C1F72F9A80E090E0E0EDF7E03197F1F7DF
:10EC9000019684369105C1F78091C00087FFE6CFC9
:10ECA0008091C00087FFFCCF64C485EA92EE62E0E9
:10ECB0000F94F5F140910202509103026091040219
:10ECC0007091050281E020E10F9491F2809102029F
:10ECD00090910302A0910402B091050280509F4FD1
:10ECE000AF4FBF4F8093020290930302A0930402A0
:10ECF000B093050280509041A040B04008F426CE69
:10ED0000A4CF83EB92EE62E00F94F5F140910602FE
:10ED100050910702609108027091090280E020E1A1
:10ED20000F9491F28091060290910702A09108023F
:10ED3000B091090280509F4FAF4FBF4F80930602A2
:10ED400090930702A0930802B0930902FFCD80ECD4
:10ED500092EE62E00F94F5F183E792EE60E00F949B
:10ED6000F5F18FE792EE60E00F94F5F18BE892EE0B
:10ED700060E00F94F5F189E992EE60E00F94F5F10F
:10ED800085EA92EE60E00F94F5F183EB92EE60E09D
:10ED90000F94F5F180EC92EE60E00F94F5F187ECC2
:10EDA00092EE60E00F94F5F188ED92EE60E00F9442
:10EDB000F5F18FED92EE60E00F94F5F18AEE92EEB0
:10EDC00060E00F94F5F183E093EEBDCD87EC92EE19
:10EDD00062E00F94F5F181E40F947BF282E40F94EA
:10EDE0007BF283E40F947BF284E40F947BF285E45E
:10EDF0000F947BF286E40F947BF287E40F947BF20E
:10EE000088E40F947BF28AE40F947BF28BE40F94F6
:10EE10007BF28CE40F947BF299CD88ED92EE62E068
:10EE20000F94F5F1772473948824992409C48FED05
:10EE300092EE62E00F94F5F140910A0250910B02BC
:10EE400060910C0270910D0282E020E10F9491F22A
:10EE500080910A0290910B02A0910C02B0910D02D8
:10EE600080509F4FAF4FBF4F80930A0290930B0289
:10EE7000A0930C02B0930D0269CD8AEE92EE62E08F
:10EE80000F94F5F184EE90EE60E00F94F5F18FECC5
:10EE900091EE60E00F94F5F1662477244301CC5D98
:10EEA000DE4F19821882C452D140D401C301B695F5
:10EEB000A79597958795CA5DDE4F88839983AA8326
:10EEC000BB83C652D140CC5DDE4FA881B981C4520C
:10EED000D1401196CC5DDE4FB983A883C452D14096
:10EEE000CD0162E070E00F9434F2B0E2B093C6005E
:10EEF0008091C00086FFFCCF8091C0008064809329
:10EF0000C000EDE2E093C6008091C00086FFFCCF18
:10EF10008091C00080648093C000F0E2F093C6004E
:10EF20008091C00086FFFCCF8091C00080648093F8
:10EF3000C000CA5DDE4FE880F9800A811B81C6529D
:10EF4000D140BB27A12F902F8F2D0F940DF2CA5DBA
:10EF5000DE4F8881C652D1400F940DF2B0E2FB2EF5
:10EF6000F092C6008091C00086FFFCCF8091C00067
:10EF700080648093C0000DE30093C6008091C000C0
:10EF800086FFFCCF8091C00080648093C00010E2B7
:10EF90001093C6008091C00086FFFCCF8091C00016
:10EFA00080648093C0008BBEF3012791C65DDE4F65
:10EFB0002883CA52D140A22EBB24CC24DD2408943D
:10EFC000611C711C811C911C8BBEF3018791282E42
:10EFD0003324442455240894611C711C811C911C09
:10EFE0008BBEF3013791C55DDE4F3883CB52D140E4
:10EFF0000894611C711C811C911C8BBEF30147910C
:10F00000C45DDE4F4883CC52D140ADEFEA2EAFEF66
:10F01000FA2EAFEF0A2FAFEF1A2F6E0C7F1C801E57
:10F02000911E142D032DF22CEE24EA0CFB1C0C1D5A
:10F030001D1D0F940DF220E22093C6008091C000A8
:10F0400086FFFCCF8091C00080648093C000C65DC5
:10F05000DE4F8881CA52D1400F940DF230E23093D6
:10F06000C6008091C00086FFFCCF8091C000806404
:10F070008093C000C45DDE4F8881CC52D1400F9494
:10F080000DF240E24093C6008091C00086FFFCCFA5
:10F090008091C00080648093C000C55DDE4F888190
:10F0A000CB52D1400F940DF250E25093C6008091A4
:10F0B000C00086FFFCCF8091C00080648093C000B8
:10F0C0008FEFE8168FEFF80680E0080780E018075A
:10F0D00031F484E092EE60E00F94C2F1DFC0D80119
:10F0E000C7018070907CA070B0708050904CA040A0
:10F0F000B040D1F52FEF3FE340E050E0E222F322B1
:10F1000004231523CA5DDE4FA880B980CA80DB8046
:10F11000C652D140AE0CBF1CC01ED11EAA0CBB1CD7
:10F12000CC1CDD1C8EE092EE60E00F94C2F1BB2798
:10F13000A12F902F8F2D0F940DF28E2D0F940DF285
:10F1400030E23093C6008091C00086FFFCCF8091F2
:10F15000C00080648093C0004EE34093C60080915D
:10F16000C00086FFFCCF87C08EE09EEFA0E0B0E03D
:10F17000E822F9220A231B239CE0E91694E9F90608
:10F1800090E0090790E0190709F088C0C45DDE4FE0
:10F19000A881CC52D140EA2EFF2400E010E0102FCD
:10F1A0000F2DFE2CEE24C55DDE4FB881CB52D14031
:10F1B000EB0EF11C011D111DD601C501817090706F
:10F1C000A070B070DC0199278827E80EF91E0A1F8D
:10F1D0001B1F20EF30E040E050E0A222B322C42207
:10F1E000D52241E1AA0CBB1CCC1CDD1C4A95D1F7F1
:10F1F000EA0CFB1C0C1D1D1D81E090E0A0E0B0E0BE
:10F20000282239224A225B2235E1220C331C441C7D
:10F21000551C3A95D1F7E20CF31C041D151D57013E
:10F220006801AA0CBB1CCC1CDD1C85E192EE60E0E1
:10F230000F94C2F1C801AA27BB270F940DF2BB2778
:10F24000A12F902F8F2D0F940DF28E2D0F940DF274
:10F2500090E29093C6008091C00086FFFCCF809121
:10F26000C00080648093C000AEE3A093C60080918C
:10F27000C00086FFFCCF8091C00080648093C000F6
:10F28000C601AA27BB270F940DF2BB27AD2D9C2DDD
:10F290008B2D0F940DF28A2D0F940DF20F94DCF14B
:10F2A000CC5DDE4FE881F981C452D140F99709F471
:10F2B0004DCBF4E0EF2EF12C012D112D6E0C7F1CA7
:10F2C000801E911EF2CD83E093EE62E00F94F5F183
:10F2D0008AE192EE60E00F94C2F18091C00087FF56
:10F2E000FCCF1091C6001F751093C6008091C0001E
:10F2F00086FFFCCF8091C00080648093C0000F9493
:10F30000DCF1812F81548A3108F036C1163409F4BA
:10F3100095C0173490F4133409F44EC0143430F40B
:10F320001134F1F0123409F01DC130C0143409F465
:10F3300059C0153409F016C16BC01A3409F4C4C0A1
:10F340001B3438F4173409F48FC0183409F00AC19B
:10F35000A1C01B3409F4D2C01C3409F003C1E8C0B9
:10F360008FEF81B90DC082B1809582B980E090E0C5
:10F37000E0EDF7E03197F1F70196883C9105C1F790
:10F380008091C00087FFEFCF12B8EFC08FEF84B934
:10F390000DC085B1809585B980E090E0E0EDF7E0A3
:10F3A0003197F1F70196883C9105C1F78091C00033
:10F3B00087FFEFCF15B8D9C08FEF87B90DC088B1DF
:10F3C000809588B980E090E0E0EDF7E03197F1F7C3
:10F3D0000196883C9105C1F78091C00087FFEFCF6F
:10F3E00018B8C3C08FEF8AB90DC08BB180958BB9A7
:10F3F00080E090E0E0EDF7E03197F1F70196883C8E
:10F400009105C1F78091C00087FFEFCF1BB8ADC059
:10F410008FEF8DB90DC08EB180958EB980E090E0F0
:10F42000E0EDF7E03197F1F70196883C9105C1F7DF
:10F430008091C00087FFEFCF1EB897C08FEF80BBD1
:10F440000DC081B3809581BB80E090E0E0EDF7E0F6
:10F450003197F1F70196883C9105C1F78091C00082
:10F4600087FFEFCF11BA81C08FEF83BB0DC084B38C
:10F47000809584BB80E090E0E0EDF7E03197F1F714
:10F480000196883C9105C1F78091C00087FFEFCFBE
:10F4900014BA6BC08FEF809301010FC080910201FD
:10F4A00080958093020180E090E0E0EDF7E03197F5
:10F4B000F1F70196883C9105C1F78091C00087FF64
:10F4C000EDCF1092020151C08FEF809304010FC065
:10F4D0008091050180958093050180E090E0E0ED4A
:10F4E000F7E03197F1F70196883C9105C1F78091DB
:10F4F000C00087FFEDCF1092050137C08FEF8093DA
:10F5000007010FC08091080180958093080180E079
:10F5100090E0E0EDF7E03197F1F70196883C910536
:10F52000C1F78091C00087FFEDCF109208011DC088
:10F530008FEF80930A010FC080910B01809580931B
:10F540000B0180E090E0E0EDF7E03197F1F70196F4
:10F55000883C9105C1F78091C00087FFEDCF1092E4
:10F560000B0103C085E292EEEEC98091C00087FFD7
:10F57000FCCF8091C600EAC988E392EEE4C98CE131
:10F5800091EEE1C988249924933011F1943028F444
:10F59000913089F09230B8F408C0953061F195301F
:10F5A000F0F0963009F048C043C02B3109F042C951
:10F5B00091E06BE13FC96227C15DDE4F2883CF52E6
:10F5C000D14092E037C9B22FA0E0622793E032C960
:10F5D000822F90E0A82BB92B622794E02BC92E3004
:10F5E00009F039C3622795E0C05DDE4F19821882A9
:10F5F000C053D1401FC9E1E0F0E0EC0FFD1FC05D3A
:10F60000DE4F08811981C053D140E00FF11F2083E4
:10F610000F5F1F4FC05DDE4F19830883C053D14079
:10F6200062270A171B0709F005C9D80196E002C92D
:10F63000261709F010C303C0973009F0FBC87724E0
:10F640009981933109F412C19431C8F4963009F4C8
:10F65000D8C0973050F4923009F406C1933009F4C1
:10F660006DC0913009F059C253C0913109F477C08F
:10F67000923108F0BBC0903109F04FC2F5C098310B
:10F6800009F487C0993150F4953109F4EFC09531F0
:10F6900008F4C6C1963109F040C2C2C19A3109F4DA
:10F6A0006CC09A3108F491C09B3109F45BC09D3164
:10F6B00009F033C29D81903359F48F81882311F46E
:10F6C0009EE11CC0813011F091E018C098E916C08D
:10F6D000892F807591F0903539F4E0E0F0E089E011
:10F6E0008093570094910AC0983539F4E3E0F0E034
:10F6F00089E080935700949101C090E01A821B82A8
:10F700008D818C831D829E831F8227E030E009C299
:10F710001A8288E08B8381E48C8386E58D8382E581
:10F720008E8389E48F8383E5888780E589878FE5E9
:10F730008A8782E38B872BE030E0F3C18A818139AD
:10F7400041F0823941F0803911F48FE005C080E04A
:10F7500003C082E001C08AE01A828B8344C0772410
:10F76000739482C08D81882311F48EE12CC0813086
:10F7700011F081E028C088E926C01A82E1E0F0E0BB
:10F7800089E08093570084918B831C8224E030E0D1
:10F79000C8C18B81803589F48C81883039F4E2E0EE
:10F7A000F0E089E08093570084910DC0E0E0F0E044
:10F7B00089E080935700849106C0E3E0F0E089E09F
:10F7C0008093570084911A82DFCF8D81836C99E0FA
:10F7D000E1E0F0E0082E90935700E89507B600FCB2
:10F7E000FDCF1A821B8223E030E09BC180EC8A832C
:10F7F000CE5CDE4F188219821A821B82C253D1401E
:10F800008EC18A8190E0A0E0B0E0582F44273327D2
:10F8100022278B8190E0A0E0B0E0DC0199278827C7
:10F82000282B392B4A2B5B2B8D8190E0A0E0B0E098
:10F83000282B392B4A2B5B2B8C8190E0A0E0B0E089
:10F84000BA2FA92F982F8827282B392B4A2B5B2BCF
:10F85000220F331F441F551FC05EDE4F288339839C
:10F860004A835B83C052D1401A8259C13A81C95C34
:10F87000DE4F3883C753D140CA5CDE4F1882C6536F
:10F88000D1408B81C82EDD24CA5CDE4F488159816E
:10F89000C653D140C42AD52A933109F082C0CE5C28
:10F8A000DE4F88819981AA81BB81C253D1408050AB
:10F8B000904CA340B04030F583E0CE5CDE4FE88052
:10F8C000F9800A811B81C253D140F70100935B008C
:10F8D00080935700E89507B600FCFDCFCE5CDE4F65
:10F8E000088119812A813B81C253D14000501F4FAA
:10F8F0002F4F3F4FCE5CDE4F088319832A833B8313
:10F90000C253D140C05EDE4F488159816A817B81FC
:10F91000C052D140DE011B9631E08C9111962C91A2
:10F9200011971296C75CDE4F2883C953D140C85C3B
:10F93000DE4F1882C853D14090E0C85CDE4FE881AA
:10F94000F981C853D1408E2B9F2B0C01FA01609393
:10F950005B0030935700E89511244E5F5F4F6F4F67
:10F960007F4F0EEFE02E0FEFF02ECE0CDF1CC114F8
:10F97000D10499F685E0C05EDE4F088119812A81A5
:10F980003B81C052D140F80120935B008093570027
:10F99000E89507B600FCFDCF81E180935700E8951C
:10F9A00035C0C05EDE4F88819981AA81BB81C0527B
:10F9B000D140B695A795979587957C018601ABE0D8
:10F9C000AA2EB12CAC0EBD1E0BC0D5016D915D01F0
:10F9D000C7010F947FFE0894E11CF11C01501040F8
:10F9E0000115110591F7A60160E070E0440F551F65
:10F9F000661F771FC05EDE4FE880F9800A811B8199
:10FA0000C052D1404E0D5F1D601F711F1A82C05E33
:10FA1000DE4F488359836A837B83C052D1407FC0C5
:10FA2000FA80C55CDE4FF882CB53D140C65CDE4F16
:10FA30001882CA53D1408B81C82EDD24C65CDE4FAC
:10FA400008811981CA53D140C02AD12A1A828981DA
:10FA5000BE016D5F7F4F843121F59601C05EDE4FA0
:10FA6000E880F9800A811B81C052D1400BBFF701A9
:10FA700087919691DB018C9311969C936E5F7F4FDB
:10FA8000D801C7010296A11DB11DC05EDE4F88835B
:10FA90009983AA83BB83C052D14022503040F1F6F3
:10FAA00036C0C05EDE4F288139814A815B81C052F9
:10FAB000D1400894C108D108760100E010E0089414
:10FAC000C11CD11C0894E11CF11C011D111DE20E8A
:10FAD000F31E041F151F21BDBB27A52F942F832FB5
:10FAE00082BD2F5F3F4F4F4F5F4FF89A80B5DB01CC
:10FAF0008D93BD012E153F054007510761F7C05E8C
:10FB0000DE4F288339834A835B83C052D1409601FC
:10FB10002D5F3F4FFB01108204C080EC8A8322E0FE
:10FB200030E08BE18093C6008091C00086FFFCCF5F
:10FB30008091C00080648093C000C15DDE4FF88179
:10FB4000CF52D140F093C6008091C00086FFFCCF19
:10FB50008091C00080648093C000432F3093C60022
:10FB60008091C00086FFFCCF8091C00080648093AC
:10FB7000C000922F2093C6008091C00086FFFCCF6A
:10FB80008091C00080648093C0008EE08093C600A6
:10FB90008091C00086FFFCCF8091C000806480937C
:10FBA000C00065E1C15DDE4FE880CF52D1406E25D7
:10FBB00069276427FE01319610C090819093C6009A
:10FBC0008091C00086FFFCCF31968091C000806498
:10FBD0008093C0006927215030402115310569F715
:10FBE0006093C6008091C00086FFFCCF8091C0006A
:10FBF00080648093C00085B1805885B9772081F4F6
:10FC0000C15DDE4F0881CF52D1400F5FC15DDE4F35
:10FC10000883CF52D14090E0A0E0B0E00D941AF4F8
:10FC200027982F9880E090E020ED37E0F901319798
:10FC3000F1F7019684369105C9F700008091C00064
:10FC40008D7F8093C00081E180935700E895EE2777
:10FC5000FF270994FFCF90E00D941AF497FB092E2B
:10FC600007260AD077FD04D02ED006D000201AF443
:10FC7000709561957F4F0895F6F7909581959F4F08
:10FC80000895A1E21A2EAA1BBB1BFD010DC0AA1FDD
:10FC9000BB1FEE1FFF1FA217B307E407F50720F0F5
:10FCA000A21BB30BE40BF50B661F771F881F991F70
:10FCB0001A9469F760957095809590959B01AC01B9
:10FCC000BD01CF010895AA1BBB1B51E107C0AA1FAC
:10FCD000BB1FA617B70710F0A61BB70B881F991FED
:10FCE0005A95A9F780959095BC01CD010895F99991
:10FCF000FECF92BD81BDF89A992780B50895262F31
:10FD0000F999FECF1FBA92BD81BD20BD0FB6F89400
:0EFD1000FA9AF99A0FBE01960895F894FFCF63
:00000001FF
