:100000000C9442010C9473010C9473010C947301D1
:100010000C9473010C9473010C9473010C94730190
:100020000C9473010C9473010C9473010C94730180
:100030000C9473010C948F0B0C9473010C9473014A
:100040000C9473010C94230D0C9473010C947301A4
:100050000C9473010C9473010C9473010C944F0C69
:100060000C9473010C94190C0C94EF0B0C94730109
:100070000C9473010C9473010C9473010C94730130
:100080000C94F50C0C9473010C9473010C94730193
:100090000C9473010C9473010C9473010C94730110
:1000A0000C9473010C9473010C94C70C0C947301A1
:1000B0000C9473010C9473010C9473010C94990CBF
:1000C0000C9473010C9473010C9473010C947301E0
:1000D0000C9473010C9473010C9473010C947301D0
:1000E0000C9473010C9403030C9401090C94510DAE
:1000F0000C94A80A0C94D4030C94A9020C94DA036F
:100100000C949A020C9450030C94C5030C94F603BF
:100110000C94F2030C94BD020C9462040C949406AB
:100120000C9431040C94BF030C94EC030C946D02FA
:100130000C94DE030C94FF030C9400040C94CD0388
:100140000C94D1030C94E4030C94FA030C94CB02AA
:100150000C94E8030C9404040C94C9030C94000957
:1001600000002100240027002A002D003000330069
:1001700001010000040107010A0100002000230022
:10018000260029002C002F0032000001000003018E
:100190000601090100000A0B02090C0D0E080703F5
:1001A000040100000000000000000000000000004A
:1001B000000000000000000000000000000000003F
:1001C00012111000000000000000000000000000FC
:1001D00000000000000000000000010210202008C4
:1001E0000810204010204080020102010804020192
:1001F0000102040810204080804020100804020101
:100200008004020180402010080402010804020159
:1002100001020408102040800102040810204080E0
:1002200000002200250028002B002E0031003400A1
:1002300002010000050108010B0105050505070580
:1002400008080808020202020A0A08080404040452
:10025000010101010101010103030303030303037E
:10026000040707070C0C0C0C0C0C0C0C020202020D
:1002700006060606060606060B0B0B0B0B0B0B0BF6
:100280000200510D11241FBECFEFD1E2DEBFCDBF62
:1002900000E00CBF12E0A0E0B2E0EAE0F8E200E02B
:1002A0000BBF02C007900D92AE39B107D9F724E019
:1002B000AEE9B2E001C01D92A339B207E1F711E047
:1002C000C2E4D1E000E006C021970109802FFE01C1
:1002D0000E94FB13C134D10780E00807A9F70E94F0
:1002E000240E0C9403140C9400008F929F92AF92F2
:1002F000BF92FF920F931F93CF93DF93F090090467
:100300002FE22F1508F44CC020910B0408E512E0F1
:10031000021B110927FD1395000F111F000F111F5C
:1003200020910A04C8E8D0E0C21BD10927FDD3956B
:10033000CC0FDD1FCC0FDD1F4E010D2E000CAA08C7
:10034000BB089801012E000C440B550B28193909E4
:100350004A095B09DC010E947A1124EB30E040E09D
:1003600050E00E945011820E931EA41EB51E8C16E2
:100370009D062CF0E801801691060CF4E40122970A
:10038000CC0FDD1F2FB7F8948F2D90E0FC01EE0FFE
:10039000FF1FE80FF91FE858FC4FD283C1832FBF1E
:1003A000DF91CF911F910F91FF90BF90AF909F90E1
:1003B0008F90089596E0899FD0011124A45FBB4FD0
:1003C00090967C936E935F9791E091969C93919712
:1003D000E0917904F0917A0490917804992339F0AE
:1003E000309751F0811108C08091280419943097FA
:1003F00019F05C968C91FACF0895CF92DF92EF922C
:10040000FF920F931F9396E0899FF0011124E45F00
:10041000FB4F11A2278D30A12130310551F178F029
:100420002230310509F451C02330310509F452C09E
:100430001F910F91FF90EF90DF90CF90089566236A
:10044000B9F361E070E00E94DA012FB7F89480916F
:10045000B7029091B802A091B902B091BA022FBF31
:100460008093640490936504A0936604B09367043A
:10047000DFCF9FB7F894C090B702D090B802E09059
:10048000B902F090BA029FBF009164041091650414
:100490002091660430916704C01AD10AE20AF30A77
:1004A000009176041091770430E020E00C151D05D2
:1004B0002E053F0550F462E070E01F910F91FF9010
:1004C000EF90DF90CF900C94DA016111B1CF63E02F
:1004D00070E0F3CF70E060E0F0CFAF92BF92CF92C8
:1004E000DF92EF92FF920F931F93CF93DF936C01F4
:1004F0007B018B01040F151FEB015E01AE18BF08D5
:10050000C017D10759F06991D601ED91FC91019086
:10051000F081E02DC6011995892B79F7C501DF918E
:10052000CF911F910F91FF90EF90DF90CF90BF90F0
:10053000AF900895FC01538D448D252F30E0842F1A
:1005400090E0821B930B541710F0CF9608950197FB
:100550000895FC01918D828D981761F0A28DAE0FE8
:10056000BF2FB11D5D968C91928D9F5F9F73928F6F
:1005700090E008958FEF9FEF0895FC01918D828D9B
:10058000981731F0828DE80FF11D858D90E0089568
:100590008FEF9FEF0895FC01918D228D892F90E0C0
:1005A000805C9F4F821B91098F73992708958BED73
:1005B00092E00E94CB0221E0892B09F420E0822FF7
:1005C0000895FC01A48DA80FB92FB11DA35ABF4FE8
:1005D0002C91848D90E001968F739927848FA68942
:1005E000B7892C93A089B1898C91837080648C9396
:1005F000938D848D981306C00288F389E02D808145
:100600008F7D80830895EF92FF920F931F93CF9376
:10061000DF93EC0181E0888F9B8D8C8D98131AC03D
:10062000E889F989808185FF15C09FB7F894EE8924
:10063000FF896083E889F989808183708064808381
:100640009FBF81E090E0DF91CF911F910F91FF90CC
:10065000EF900895F62E0B8D10E00F5F1F4F0F7374
:100660001127E02E8C8D8E110CC00FB607FCFACF2F
:10067000E889F989808185FFF5CFCE010E94E102EA
:10068000F1CFEB8DEC0FFD2FF11DE35AFF4FF08200
:100690009FB7F8940B8FEA89FB8980818062CFCF66
:1006A000CF93DF93EC01888D8823B9F0AA89BB89A9
:1006B000E889F9898C9185FD03C0808186FD0DC094
:1006C0000FB607FCF7CF8C9185FFF2CF808185FFB5
:1006D000EDCFCE010E94E102E9CFDF91CF910895E5
:1006E00080E090E0892B29F00E94D70281110E94BE
:1006F000000080E090E0892B49F080E090E0892BB9
:1007000029F00E94000081110E94000080E090E02A
:10071000892B49F080E090E0892B29F00E940000AD
:1007200081110E94000080E090E0892B49F080E078
:1007300090E0892B29F00E94000081110C940000A8
:1007400008958150823108F05AC0E82FF0E08827E0
:10075000E355FC4F8F4F0C94FB13CD03D103BF0324
:10076000C503C903FF03D403DA03DE03E403E8038C
:10077000EC03F203F603FF03FA0300040404809180
:1007800080008F77809380000895809180008F7D16
:10079000F9CF80918000877FF5CF84B58F7784BDB6
:1007A000089584B58F7DFBCF8091B0008F778093C3
:1007B000B00008958091B0008F7DF9CF80919000B6
:1007C0008F77809390000895809190008F7DF9CF6E
:1007D00080919000877FF5CF8091A0008F778093E4
:1007E000A00008958091A0008F7DF9CF8091A00096
:1007F000877FF5CF809120018F7780932001089526
:10080000809120018F7DF9CF80912001877FF5CFE6
:10081000CF93DF93282F30E0F901EC56FE4F8491FF
:10082000F901E652FE4FD491F901E65CFD4FC49107
:10083000CC23A1F081110E94A103EC2FF0E0EE0F78
:10084000FF1FE658FE4FA591B491EC91ED2381E096
:1008500090E009F480E0DF91CF91089580E090E08E
:10086000FACF862F0C9408041F93CF93DF93282F81
:1008700030E0F901EC56FE4F8491F901E652FE4F4B
:10088000D491F901E65CFD4FC491CC23A9F0162F59
:1008900081110E94A103EC2FF0E0EE0FFF1FE05E3C
:1008A000FD4FA591B4918FB7F894EC91111108C048
:1008B000D095DE23DC938FBFDF91CF911F910895F8
:1008C000DE2BF8CF862F642F0C9434049091000215
:1008D00089130DC0E0E8F2E0E4919FEF90930002ED
:1008E000E230E1F038F4EE2381F0E13089F060E0AD
:1008F0000C943404E43049F110F1E530C1F79091E3
:1009000073009D7F90937300F2CF10926E00EFCF33
:1009100090916F009D7F90936F00E9CF9091700050
:100920009D7F9093700091E09093B0009091B10002
:10093000987F94609093B1001092B300D8CF9091BB
:1009400071009D7F90937100D2CF909172009D7F36
:1009500090937200CCCFCF93DF9390E0FC01E652EE
:10096000FE4F2491865C9D4FFC0184918823C9F041
:1009700090E0880F991FFC01E05AFE4FA591B491B9
:10098000FC01E05EFD4FC591D49161110DC09FB790
:10099000F8948C91209582238C9388812823288336
:1009A0009FBFDF91CF910895623051F49FB7F894C3
:1009B0003C91822F809583238C93E8812E2BEFCF5F
:1009C0008FB7F894EC912E2B2C938FBFEACFCF9357
:1009D00080910002882321F08F3F59F1CF91089533
:1009E000E0E8F2E0C491C7FDF9CF61E080E00E9449
:1009F000AB04CC2309F4EFC0C23009F003C18091ED
:100A0000B100887F86608093B1008BE98093B3004A
:100A10008FEF9FEFDC018093CF029093D002A093E1
:100A2000D102B093D20280917000826080937000F6
:100A3000D5CF10920002E0E8F2E0C4918C2FCF3FB6
:100A400069F2C23009F468C060F4CC2379F1C13096
:100A500009F444C087FDC2CF61E080E00E94AB048E
:100A6000CBCFC43009F499C008F478C0C53091F7F1
:100A700010922001109221018091210188608093C1
:100A8000210180912101816080932101EAE3F2E05C
:100A9000E491F0E0EE0FFF1FE05EFD4F8591949131
:100AA000EAEDF1E0E491E093BB029FCF14BC15BCEA
:100AB00084B5826084BD85B5816085BDEAE3F2E0DE
:100AC000E491F0E0EE0FFF1FE05EFD4F8591949101
:100AD000EAEDF1E0E491E093C20287CF109280004A
:100AE00010928100809181008860809381008091C4
:100AF0008100816080938100EAE3F2E0E491F0E01C
:100B0000EE0FFF1FE05EFD4F85919491EAEDF1E05D
:100B1000E491E093C10269CF1092B0001092B1004D
:100B20008091B00082608093B0008091B1008160BC
:100B30008093B100EAE3F2E0E491F0E0EE0FFF1FF2
:100B4000E05EFD4F859194919093C0028093BF0227
:100B5000EAEDF1E0E491E093BE0247CF10929000FD
:100B60001092910080919100886080939100809113
:100B70009100816080939100EAE3F2E0E491F0E07B
:100B8000EE0FFF1FE05EFD4F85919491EAEDF1E0DD
:100B9000E491E093BD02C3E028CF1092A000109230
:100BA000A1008091A10088608093A1008091A100A4
:100BB00081608093A100EAE3F2E0E491F0E0EE0FBF
:100BC000FF1FE05EFD4F85919491EAEDF1E0E49125
:100BD000E093BC020ACF85B5887F846085BD8BE930
:100BE00087BD8FEF9FEFDC018093D7029093D802EF
:100BF000A093D902B093DA0280916E008260809354
:100C00006E00ECCEC130E9F480918100887F816074
:100C1000809381008FE39CE9909389008093880002
:100C20008FEF9FEFDC018093D3029093D402A093C7
:100C3000D502B093D60280916F00826080936F00DE
:100C4000CDCEC330E9F480919100887F816080939C
:100C500091008FE39CE990939900809398008FEF27
:100C60009FEFDC018093CB029093CC02A093CD0246
:100C7000B093CE0280917100826080937100AECEFD
:100C8000C430E9F48091A100887F81608093A10045
:100C90008FE39CE99093A9008093A8008FEF9FEFCA
:100CA000DC018093C7029093C802A093C902B0935D
:100CB000CA02809172008260809372008FCEC5302C
:100CC000E9F480912101887F8160809321018FE385
:100CD0009CE990932901809328018FEF9FEFDC011D
:100CE0008093C3029093C402A093C502B093C6023E
:100CF0008091730082608093730070CEC23091F057
:100D000034F4CC2369F0C13009F068CE83CFC4300D
:100D100009F4BECF0CF49DCFC53009F05FCED7CF1C
:100D20008FE35ECF8FE372CE862F642F0C94AB04DB
:100D30006F927F928F929F92AF92BF92CF92DF92EB
:100D4000EF92FF920F931F93CF93DF9381E08093F5
:100D500078048FB7F8944091B7025091B80260912F
:100D6000B9027091BA028FBF8091680490916904B2
:100D7000A0916A04B0916B04481B590B6A0B7B0B62
:100D80008091740490917504B0E0A0E084179507F9
:100D9000A607B70708F01DC1C0E080917204C8170C
:100DA00060F4E0916E04F0916F04EC0FF11D62E0CD
:100DB00080810E94AB04CF5FF0CF712C812C912CED
:100DC0005401839480917304781608F05FC0072D56
:100DD00010E0E0917004F0917104E00FF11F61E008
:100DE00080810E94AB04E0917004F0917104E00FE7
:100DF000F11F60E080810E943404D501C401072CFA
:100E000004C0880F991FAA1FBB1F0A94D2F76C0158
:100E10007C01E094F094612C809172046816F8F4DF
:100E2000C62DD0E0E0916E04F0916F04EC0FFD1F31
:100E300080810E9408042496CC0FDD1FC45FDB4F25
:100E4000892B41F4888199818C299D2999838883F4
:100E50006394E2CF888199818E219F21F7CFE09121
:100E60007004F0917104E00FF11F61E080810E9435
:100E700034048091700490917104080F191F60E090
:100E8000F80180810E94AB0473949CCFCCE0D4E045
:100E9000FE018FEF9FEF278D30A1232B21F4148EBD
:100EA000968F858F11A2369624E0E834F20799F7E1
:100EB000F12C96E0D92E80917204F81608F050C0FB
:100EC000E12C0F2D10E0000F111F0C5E1B4F209125
:100ED0007304E21608F042C0F801608171810E2CA3
:100EE00002C0769567950A94E2F7F29E900111246C
:100EF0002E0D311DECE0F4E080E0458D568D241779
:100F0000350709F46AC08F5F36968A30B1F760FF03
:100F100023C0ECE0F4E090E080E0448D411117C084
:100F2000E0916C04F0916D04E20FF31F4081D89EB4
:100F3000F001D99EF00D1124E45FFB4F448F368FF2
:100F4000258F10A2178E61E00E94FD0105C0019659
:100F500036968A30910509F7E394B9CFF394ABCF75
:100F600080E099A19111892F2696F4E0C834DF071B
:100F7000C1F79FB7F8944091B7025091B8026091C1
:100F8000B9027091BA029FBF4093680450936904FC
:100F900060936A0470936B048823D9F080912D04C8
:100FA0008823B9F080912B0490912C04019789F447
:100FB00080912804DF91CF911F910F91FF90EF90C6
:100FC000DF90CF90BF90AF909F908F907F906F9069
:100FD00008951092780480E0EDCF6170B5CF3FB7EF
:100FE000F8948091A3029091A402A091A502B091DF
:100FF000A60226B5A89B05C02F3F19F00196A11D9A
:10100000B11D3FBFBA2FA92F982F8827BC01CD0152
:10101000620F711D811D911D42E0660F771F881FB1
:10102000991F4A95D1F708958F929F92AF92BF92E0
:10103000CF92DF92EF92FF924B015C010E94EF078B
:101040006B017C010E94EF076C197D098E099F09D5
:10105000683E734081059105A8F321E0821A91084A
:10106000A108B10888EEC80E83E0D81EE11CF11C6F
:1010700081149104A104B10429F7FF90EF90DF904F
:10108000CF90BF90AF909F908F900895AF92BF92F6
:10109000CF92DF92EF92FF920F931F93CF93DF9344
:1010A0006B017A01EC01C256DD4F28813CE0389F8C
:1010B0008001399F100D1124A0900804B12C27FF46
:1010C0001FC0FB011182108288818F5F8883888115
:1010D0009801280F311D87FD3A95F6012A153B0529
:1010E0001CF488818C30C4F1808191810496803415
:1010F0009C4908F473C0F60180819181049670C008
:1011000088819801280F311D87FD3A952A153B05E6
:10111000DCF68881A801480F511D87FD5A95FA0118
:10112000EE0FFF1FE40FF51FE858FC4F808186FF8C
:10113000CBCF8881F801E80FF11D87FDFA95CF012B
:10114000EE0FFF1FE80FF91FE858FC4F808160E0A9
:101150008F730E943404B8CF808191812881A801C7
:10116000420F511D27FD5A959A01FA01EE0FFF1FFC
:10117000E20FF31FE858FC4F21813281820F931F49
:10118000F7019183808388819801280F311D87FDA5
:101190003A95F901EE0FFF1FE20FF31FE858FC4FDD
:1011A000808186FF22C08881080F111D87FD1A9556
:1011B000F801EE0FFF1FE00FF11FE858FC4F808190
:1011C00061E08F73DF91CF911F910F91FF90EF90AE
:1011D000DF90CF90BF90AF900C94340480E49CE9F2
:1011E000F701918380838FEF8883DF91CF911F91E7
:1011F0000F91FF90EF90DF90CF90BF90AF90089548
:10120000089590E080E00895FC0101900020E9F746
:101210003197AF01481B590BBC018BE794E00C944C
:101220006D028F929F92AF92BF920F931F93CF93B5
:10123000DF93CDB7DEB7A1970FB6F894DEBF0FBE30
:10124000CDBF19A2423008F44AE08E010F5D1F4F56
:10125000842E912CB12CA12CA50194010E94821105
:10126000E62FB901CA01EA30F4F4E05DD801EE934B
:101270008D01232B242B252B79F790E080E010970C
:1012800019F0CD010E940409A1960FB6F894DEBFB3
:101290000FBECDBFDF91CF911F910F91BF90AF9047
:1012A0009F908F900895E95CE1CFCF93DF93EC019D
:1012B00060E08E810E94340461E08E810E943404DB
:1012C00060E08E810E9434048BE891E00197F1F791
:1012D000DF91CF910895CF92DF92EF92FF920F931B
:1012E0001F93CF93DF936C017C0187E0E80EF11C24
:1012F000D0E0C0E0062F10E0B8010C2E02C07595BA
:1013000067950A94E2F76170F70181917F010E946D
:1013100034042196C430D10579F7C601DF91CF910D
:101320001F910F91FF90EF90DF90CF900C94550993
:10133000CF92DF92EF92FF920F931F93CF93DF93A1
:10134000EC01F62E642F8C810E9434048D818F3F36
:1013500019F060E00E9434040F2D10E08F8584FFA7
:1013600025C06E0187E0C80ED11CF12CE12CB8011C
:101370000E2C02C0759567950A94E2F76170F6012C
:1013800081916F010E943404FFEFEF1AFF0A88E099
:10139000E816F10461F7CE01DF91CF911F910F9113
:1013A000FF90EF90DF90CF900C945509B80184E046
:1013B000759567958A95E1F7CE010E946B096F2DAF
:1013C000CE01DF91CF911F910F91FF90EF90DF90B1
:1013D000CF900C946B0940E0682F8BE794E00C945D
:1013E000980981E00E94EB098BE39FE10197F1F7F7
:1013F0000895CF93DF93823029F490918A04986006
:1014000090938A0480938E0410928F0480E48093DA
:10141000900480E18093910480E58093920461E0E0
:1014200080917F040E94AB04809180048F3F19F06B
:1014300061E00E94AB0461E0809181040E94AB04F2
:10144000CBE7D4E09E012B57344080918A0484FD81
:101450000BC084E090E021962817390744F461E03E
:101460008E810E94AB04EECF88E090E0F4CF8BE356
:101470009DE00197F1F760E080917F040E943404C1
:1014800060E0809181040E943404809180048F3F49
:1014900019F060E00E94340480918A0484FD34C015
:1014A00063E08BE794E00E946B09CBE4D6E4CE01C5
:1014B0000197F1F763E08BE794E00E946B092197B5
:1014C000F1F763E08BE794E00E946B0983E592E01B
:1014D0000197F1F762E08BE794E00E946B0980913D
:1014E0008A0480620E94EB0984E080938B048CE084
:1014F0000E94EB090E94F10982E080938C0486E04F
:10150000DF91CF910C94EB0980620E94EB098BE490
:1015100096E40197F1F780918A0480620E94EB09BA
:1015200083E592E00197F1F780918A0480620E943E
:10153000EB09D5CF90918E04891710F08FEF890FAA
:10154000E82FF0E0E558FB4F848980680C94EB09A4
:1015500041E00E94980981E090E0089541E0682F01
:101560008BE794E00E94980981E090E008954F9203
:101570005F926F927F928F929F92AF92BF92CF9223
:10158000DF92EF92FF920F931F93CF936B017C0139
:10159000742EAC019B010E94EA13882399F081E428
:1015A00092E0CF911F910F91FF90EF90DF90CF903D
:1015B000BF90AF909F908F907F906F905F904F9073
:1015C0000C94040946015701E894B7F82FEF3FEF58
:1015D0004FE75FE7C501B4010E94EA1381110DC016
:1015E0002FEF3FEF4FE75FE7C501B4010E942012E4
:1015F00018161CF485E492E0D4CF2FEF3FEF4FE7AD
:101600005FE4C701B6010E94781318161CF489E440
:1016100092E0C7CF2FEF3FEF4FE75FECC701B60176
:101620000E94201287FDF3CF20E030E0A901C7011E
:10163000B6010E94201210E000E087FF08C08DE292
:101640000E94AE0A8C01F7FAF094F7F8F094C0E02B
:1016500060E070E080E09FE37C1641F020E030E045
:1016600040E251E40E942512CF5FF6CFA701960118
:101670000E94B4112B013C010E9497124B015C01A6
:101680004AE00E9411097C01E00EF11ECC23B1F169
:10169000C501B4010E94C6129B01AC01C301B20195
:1016A0000E94B3114B015C018EE20E94AE0AE80E6B
:1016B000F91EC15018F120E030E040E251E4C501CC
:1016C000B4010E947D132B013C010E9497124B0133
:1016D000B12CA12C4AE0C501B4010E941109E80E09
:1016E000F91EC501B4010E94C6129B01AC01C301E1
:1016F000B2010E94B3114B015C01DBCFC701CF9156
:101700001F910F91FF90EF90DF90CF90BF90AF901F
:101710009F908F907F906F905F904F9008951F9251
:101720000F920FB60F9211240BB60F922F933F9387
:101730004F935F936F937F938F939F93AF93BF93D9
:10174000EF93FF938091CF029091D002A091D102AC
:10175000B091D202892B8A2B8B2BE1F19091BE02A2
:10176000E091BF02F091C00280818927808380913F
:10177000CF029091D002A091D102B091D20218165E
:1017800019061A061B069CF48091CF029091D00294
:10179000A091D102B091D2020197A109B109809321
:1017A000CF029093D002A093D102B093D202FF91C6
:1017B000EF91BF91AF919F918F917F916F915F91C9
:1017C0004F913F912F910F900BBE0F900FBE0F9036
:1017D0001F901895809100020E946604E8CF1F9226
:1017E0000F920FB60F9211240BB60F922F933F93C7
:1017F0004F935F936F937F938F939F93AF93BF9319
:10180000EF93FF938BED92E00E94E102FF91EF9145
:10181000BF91AF919F918F917F916F915F914F9108
:101820003F912F910F900BBE0F900FBE0F901F9006
:1018300018951F920F920FB60F9211240BB60F92AC
:101840002F938F939F93EF93FF93E091EB02F0918F
:10185000EC028081E091F102F091F20282FD1DC064
:1018600090818091F4028F5F8F732091F50282172F
:1018700041F0E091F402F0E0E552FD4F958F809346
:10188000F402FF91EF919F918F912F910F900BBEDA
:101890000F900FBE0F901F9018958081F2CF1F926E
:1018A0000F920FB60F9211242F933F938F939F9314
:1018B000AF93BF938091B7029091B802A091B90203
:1018C000B091BA023091A20223E0230F2D3758F5D0
:1018D0000196A11DB11D2093A2028093B70290939F
:1018E000B802A093B902B093BA028091A30290917A
:1018F000A402A091A502B091A6020196A11DB11D5E
:101900008093A3029093A402A093A502B093A60291
:10191000BF91AF919F918F913F912F910F900FBEEB
:101920000F901F90189526E8230F0296A11DB11D58
:10193000D2CF1F920F920FB60F9211240BB60F92B7
:101940002F933F934F935F936F937F938F939F93C7
:10195000AF93BF93EF93FF9348E251E064E271E0ED
:1019600090E080E00E944608FF91EF91BF91AF9117
:101970009F918F917F916F915F914F913F912F91A7
:101980000F900BBE0F900FBE0F901F9018951F92D7
:101990000F920FB60F9211240BB60F922F933F9315
:1019A0004F935F936F937F938F939F93AF93BF9367
:1019B000EF93FF9348EA50E064EA70E083E090E040
:1019C0000E944608FF91EF91BF91AF919F918F9137
:1019D0007F916F915F914F913F912F910F900BBE2F
:1019E0000F900FBE0F901F9018951F920F920FB679
:1019F0000F9211240BB60F922F933F934F935F9347
:101A00006F937F938F939F93AF93BF93EF93FF93C6
:101A100048E950E064E970E082E090E00E94460806
:101A2000FF91EF91BF91AF919F918F917F916F91B6
:101A30005F914F913F912F910F900BBE0F900FBE72
:101A40000F901F9018951F920F920FB60F921124AE
:101A50000BB60F922F933F934F935F936F937F93A8
:101A60008F939F93AF93BF93EF93FF9348E850E01A
:101A700064E870E081E090E00E944608FF91EF91F9
:101A8000BF91AF919F918F917F916F915F914F9196
:101A90003F912F910F900BBE0F900FBE0F901F9094
:101AA00018951092DE021092DD0288EE93E0A0E01D
:101AB000B0E08093DF029093E002A093E102B09344
:101AC000E2028DE192E09093DC028093DB0285ECF0
:101AD00090E09093E8028093E70284EC90E090938A
:101AE000EA028093E90280EC90E09093EC0280930C
:101AF000EB0281EC90E09093EE028093ED0282EC99
:101B000090E09093F0028093EF0286EC90E0909347
:101B1000F2028093F1021092F4021092F5021092F8
:101B2000F6021092F70210927E0410927D0489E36F
:101B300092E090937C0480937B048DE080937F04FB
:101B40008FEF809380048CE08093810485E0809304
:101B5000820484E08093830483E08093840482E0A1
:101B60008093850410928604109287041092880452
:101B70001092890410928A0481E00E94F90910925F
:101B80000E041092120410921104109213048FE2AA
:101B900092E090930D0480930C04E8E2F4E010824C
:101BA000148213821582369684E0E436F807B9F77A
:101BB00085E092E090936F0480936E0481E092E060
:101BC000909371048093700484E0809372048093F6
:101BD000730489E092E090936D0480936C048AE032
:101BE00090E0909375048093740484EF91E0909357
:101BF00077048093760410927A04109279041092FC
:101C000068041092690410926A0410926B04109296
:101C1000780480910804803398F491E0980F9093B1
:101C200008048093090490E0FC01EE0FFF1FE80F09
:101C3000F91FE858FC4F88EB9BE09283818308955D
:101C40008FEF809309040895789484B5826084BDF1
:101C500084B5816084BD85B5826085BD85B58160B0
:101C600085BD80916E00816080936E00109281002E
:101C700080918100826080938100809181008160E9
:101C800080938100809180008160809380008091AA
:101C9000B10084608093B1008091B0008160809336
:101CA000B0008091910082608093910080919100BA
:101CB000816080939100809190008160809390007A
:101CC0008091A10082608093A1008091A100816039
:101CD0008093A1008091A00081608093A0008091FA
:101CE0002101826080932101809121018160809394
:101CF00021018091200181608093200180917A00F0
:101D0000846080937A0080917A00826080937A0068
:101D100080917A00816080937A0080917A00806857
:101D200080937A001092C10082E00E94F9090E941B
:101D3000F10980E00E949A0A8DE492E00E94040971
:101D400081E00E949A0A8BE592E00E94040964EF08
:101D500071E080E090E00E9414080E94F1098091F7
:101D60000904803308F052C061E086E00E94AB04B1
:101D700080910904282F30E0F901EE0FFF1FE20FD8
:101D8000F31FE858FC4F9081907C966090831092EE
:101D90000A0410920B042CE0622F0E94EF13829F22
:101DA000B001112430E020E0AB01420F531FFA01D3
:101DB000EE0FFF1FE40FF51FE858FC4F908196FDD2
:101DC00017C02F5F3F4F2C30310571F7813009F07C
:101DD000F9C01092800082E080938100109285000B
:101DE00010928400B19A80916F00826080936F009E
:101DF000E09109048E2F90E0FC01EE0FFF1FE80F29
:101E0000F91FE858FC4F80818064808382E390E072
:101E10000E94750161E080E00E94AB0460E086E30F
:101E20000E94AB04E091EB02F091EC0282E080832F
:101E3000E091E702F091E8021082E091E902F0916E
:101E4000EA028FEC80831092F302E091EF02F091AE
:101E5000F00286E08083E091ED02F091EE02808155
:101E600080618083E091ED02F091EE0280818860D4
:101E70008083E091ED02F091EE02808180688083A2
:101E8000E091ED02F091EE0280818F7D8083809160
:101E90007B00877F80937B0080E480937C0080912F
:101EA0007A00806480937A0080917A0086FDFCCF6E
:101EB0008091780060917900762F682F072E000CB2
:101EC000880B990B0E94C81220E030E04AEF53E4DF
:101ED0000E947D1320E030EC4FE754E40E9425126D
:101EE0006093AB027093AC028093AD029093AE020C
:101EF0001092B4021092B3021092B5021092B60280
:101F00001092B0021092AF0264EF71E080E090E0B6
:101F10000E94140880E00E949A0A80E692E00E94E3
:101F2000040981E00E949A0A6091AB027091AC02B0
:101F30008091AD029091AE0242E00E94B70A68EE35
:101F400073E080E090E00E9414080E94F109C1E073
:101F5000DAE00E949806882309F477C08F3209F0EE
:101F60000FC11092B0021092AF020E94F10980E0FE
:101F70000E949A0A8EE692E00E94040981E00E9483
:101F80009A0A0E9498068823E1F390ED980F9A3000
:101F900008F044C04091AF025091B002D49F90012C
:101FA000D59F300D1124482F082E000C550B40539F
:101FB0005109240F351F3093B0022093AF020E94C5
:101FC000AE0ADFCF823061F41092900080939100CE
:101FD000109295001092940088BB8093710008CFF6
:101FE000833069F41092A00082E08093A1001092E7
:101FF000A5001092A40089BB80937200F9CE8111D4
:10200000F7CE1092200182E08093210110922501E9
:10201000109224018ABB80937300EACE8B3209F0C0
:10202000B0CF6091AF027091B002072E000C880B08
:10203000990B0E94C8126093A7027093A802809324
:10204000A9029093AA020E94F1098091B602882306
:10205000B9F08091B502811113C086E990E00E9429
:1020600075010E94E7046CE271E080E090E00E945C
:10207000140880E00E946604C093B502C093B402C5
:102080008091B4028823C1F18091B302811134C0E0
:102090000E94F10980E00E949A0A82E892E00E9480
:1020A0000409C090AB02D090AC02E090AD02F09079
:1020B000AE02A70196016091A7027091A8028091DB
:1020C000A9029091AA020E94B3114B015C0120E089
:1020D00030E0A9010E94781318160CF094C02AE988
:1020E00039E949E15FE3C501B4010E94781318168C
:1020F0000CF493C0C093B3028091B302882309F417
:10210000CCC00E94F10980E00E949A0A8EE892E019
:102110000E940409A090B102B090B20265010B2C9C
:10212000000CEE08FF0810E000E08091B1029091F1
:10213000B202081719070CF089C081E00E949A0AC0
:102140004AE0C701B601F7FE0BC08DE20E94AE0A5D
:1021500066277727CB016C197D098E099F094AE014
:102160000E94110964EF71E080E090E00E94140881
:102170000F5F1F4F81E0C81AD108E108F108D5CFE1
:102180008A32D9F51092B0021092AF020E94F10982
:1021900080E00E949A0A8BE792E00E94040981E0A5
:1021A0000E949A0A0E9498068823E1F390ED980F06
:1021B0009A30C0F44091AF025091B002D49F900188
:1021C000D59F300D1124482F082E000C550B40537D
:1021D0005109240F351F3093B0022093AF020E94A3
:1021E000AE0AE0CF8B32F1F68091AF029091B0024F
:1021F0009093B2028093B10226CF8D3309F025CFA0
:10220000C093B60222CF2AE939E949E15FEBC50163
:10221000B4010E94201287FF6DCF6CE271E080E074
:1022200090E00E9414082AE939E949E95FE3C7010F
:10223000B6010E94B4116B017C0181E00E949A0AF0
:1022400042E0C701B6010E94B70A33CFA016B1061B
:1022500049F40E94F10980E00E949A0A85E992E01F
:102260000E94040982E390E00E9475010E94E70445
:102270006CE271E080E090E00E94140880E00E942F
:1022800066041092B4021092B3021092B50210923A
:10229000B6021092B0021092AF020E94700359CEA3
:1022A000052E97FB1EF400940E94671157FD07D07E
:1022B0000E94821107FC03D04EF40C9467115095D4
:1022C0004095309521953F4F4F4F5F4F0895909522
:1022D0008095709561957F4F8F4F9F4F08950E9415
:1022E000A411A59F900DB49F900DA49F800D911DEA
:1022F00011240895B7FF0C946F110E946F11821B77
:10230000930B0895A1E21A2EAA1BBB1BFD010DC061
:10231000AA1FBB1FEE1FFF1FA217B307E407F50795
:1023200020F0A21BB30BE40BF50B661F771F881F71
:10233000991F1A9469F760957095809590959B0107
:10234000AC01BD01CF010895A29FB001B39FC001B0
:10235000A39F700D811D1124911DB29F700D811DD1
:102360001124911D08955058BB27AA270E94CB1114
:102370000C943E130E94301338F00E94371320F063
:1023800039F49F3F19F426F40C942D130EF4E095C4
:10239000E7FB0C942713E92F0E944F1358F3BA1749
:1023A000620773078407950720F079F4A6F50C946B
:1023B00071130EF4E0950B2EBA2FA02D0B01B9016D
:1023C00090010C01CA01A0011124FF27591B99F0AB
:1023D000593F50F4503E68F11A16F040A22F232FB7
:1023E000342F4427585FF3CF469537952795A79507
:1023F000F0405395C9F77EF41F16BA0B620B730BAE
:10240000840BBAF09150A1F0FF0FBB1F661F771F1E
:10241000881FC2F70EC0BA0F621F731F841F48F4D3
:10242000879577956795B795F7959E3F08F0B0CF5C
:102430009395880F08F09927EE0F97958795089543
:102440000E94031308F481E008950E9439120C944D
:102450003E130E94371358F00E94301340F029F4C5
:102460005F3F29F00C94271351110C9472130C94B4
:102470002D130E944F1368F39923B1F3552391F361
:10248000951B550BBB27AA2762177307840738F0E3
:102490009F5F5F4F220F331F441FAA1FA9F335D040
:1024A0000E2E3AF0E0E832D091505040E695001CF4
:1024B000CAF72BD0FE2F29D0660F771F881FBB1FAE
:1024C000261737074807AB07B0E809F0BB0B802D8C
:1024D000BF01FF2793585F4F3AF09E3F510578F0B8
:1024E0000C9427130C9472135F3FE4F3983ED4F3DB
:1024F000869577956795B795F7959F5FC9F7880F8C
:10250000911D9695879597F90895E1E0660F771FDD
:10251000881FBB1F621773078407BA0720F0621B6E
:10252000730B840BBA0BEE1F88F7E09508950E9499
:10253000571388F09F5798F0B92F9927B751B0F0EB
:10254000E1F0660F771F881F991F1AF0BA95C9F737
:1025500014C0B13091F00E947113B1E008950C9451
:102560007113672F782F8827B85F39F0B93FCCF304
:10257000869577956795B395D9F73EF490958095B4
:10258000709561957F4F8F4F9F4F0895E89409C0D4
:1025900097FB3EF490958095709561957F4F8F4F96
:1025A0009F4F9923A9F0F92F96E9BB279395F695AC
:1025B000879577956795B795F111F8CFFAF4BB0F2A
:1025C00011F460FF1BC06F5F7F4F8F4F9F4F16C08E
:1025D000882311F096E911C0772321F09EE8872F18
:1025E000762F05C0662371F096E8862F70E060E0D4
:1025F0002AF09A95660F771F881FDAF7880F96954D
:10260000879597F90895990F0008550FAA0BE0E8F0
:10261000FEEF16161706E807F907C0F012161306A4
:10262000E407F50798F0621B730B840B950B39F4E4
:102630000A2661F0232B242B252B21F408950A264A
:1026400009F4A140A6958FEF811D811D089597F98A
:102650009F6780E870E060E008959FEF80EC089548
:1026600000240A9416161706180609060895002471
:102670000A9412161306140605060895092E0394EB
:10268000000C11F4882352F0BB0F40F4BF2B11F45F
:1026900060FF04C06F5F7F4F8F4F9F4F089557FDBE
:1026A0009058440F551F59F05F3F71F04795880FC0
:1026B00097FB991F61F09F3F79F087950895121657
:1026C00013061406551FF2CF4695F1DF08C0161603
:1026D00017061806991FF1CF8695710561050894B4
:1026E0000895E894BB2766277727CB0197F90895CB
:1026F0000E94031308F48FEF08950E9490130C9426
:102700003E130E94301338F00E94371320F09523B7
:1027100011F00C9427130C942D1311240C947213A4
:102720000E944F1370F3959FC1F3950F50E0551F12
:10273000629FF001729FBB27F00DB11D639FAA2716
:10274000F00DB11DAA1F649F6627B00DA11D661F65
:10275000829F2227B00DA11D621F739FB00DA11D86
:10276000621F839FA00D611D221F749F3327A00D40
:10277000611D231F849F600D211D822F762F6A2FDC
:1027800011249F5750409AF0F1F088234AF0EE0F41
:10279000FF1FBB1F661F771F881F91505040A9F76E
:1027A0009E3F510580F00C9427130C9472135F3FE9
:1027B000E4F3983ED4F3869577956795B795F795AA
:1027C000E7959F5FC1F7FE2B880F911D9695879522
:1027D00097F908950E940313880B990B0895991B8C
:1027E00079E004C0991F961708F0961B881F7A9508
:1027F000C9F780950895EE0FFF1F881F8BBF0790C4
:0A280000F691E02D1994F894FFCF33
:10280A00FF1A1B1C1D161718193738392F3435367D
:10281A002A3132332D63303D2B0000000003036D53
:10282A00029A025003CB02A902BD020000000094E2
:10283A00066204310400000000A80A6D02010900C2
:10284A00096E616E00696E66006F76660048617394
:10285A0073616E204B617A656D69004F76656E0013
:10286A0063757272656E742074656D703A00546592
:10287A006D70657261747572653A0054696D65723E
:10288A003A0068656174696E672E2E2E200074699D
:0E289A006D6572200046696E697368656400A2
:00000001FF
