:10000000F5C0000021C100001FC100001DC100009B
:100010001BC1000019C1000017C1000015C100007C
:1000200013C1000011C100000FC100000DC100008C
:100030000BC1000009C1000007C1000005C100009C
:1000400003C1000025C60000FFC00000FDC0000085
:10005000FBC00000F9C00000F7C00000E9C40000C8
:10006000F3C0000058C500002DC50000EDC0000021
:10007000EBC00000E9C00000E7C00000E5C00000E0
:10008000DAC50000E1C00000DFC00000DDC00000F4
:10009000DBC00000D9C00000D7C00000D5C0000000
:1000A000D3C00000D1C0000099C50000CDC0000041
:1000B000CBC00000C9C00000C7C0000062C500007E
:1000C000C3C00000C1C00000BFC00000BDC0000030
:1000D000BBC00000B9C00000B7C00000B5C0000040
:1000E000B3C0000000000A0B02090C0D0E08070344
:1000F00004010000000000000000000000000000FB
:1001000000000000000000000000000000000000EF
:1001100012111000000000000000000000000000AC
:100120000000000000000000000000002200250088
:1001300028002B002E0031003400020100000501D0
:1001400008010B0100002100240027002A002D00D7
:100150003000330001010000040107010A01050518
:100160000505070508080808020202020A0A08082D
:10017000040404040101010101010101030303035B
:1001800003030303040707070C0C0C0C0C0C0C0CEA
:100190000202020206060606060606060B0B0B0BFB
:1001A0000B0B0B0B01021020200808102040102020
:1001B000408002010201080402010102040810202B
:1001C0004080804020100804020180040201804029
:1001D0002010080402010804020101020408102092
:1001E00040800102040810204080750611241FBEC3
:1001F000CFEFD1E2DEBFCDBF00E00CBF12E0A0E048
:10020000B2E0EEEFF0E100E00BBF02C007900D920C
:10021000AA33B107D9F723E0AAE3B2E001C01D92E7
:10022000AC37B207E1F710E0C6EFD0E000E005C060
:1002300021970109802FFE0158D7C53FD10780E0E3
:100240000807B1F7AFD559C7DBCEAF92BF92CF92B7
:10025000DF92EF92FF920F931F93CF93DF936C0186
:100260007B018B01040F151FEB015E01AE18BF0867
:10027000C017D10759F06991D601ED91FC91019019
:10028000F081E02DC6011995892B79F7C501DF9121
:10029000CF911F910F91FF90EF90DF90CF90BF9083
:1002A000AF900895FC01538D448D252F30E0842FAD
:1002B00090E0821B930B541710F0CF96089501978E
:1002C0000895FC01918D828D981761F0A28DAE0F7B
:1002D000BF2FB11D5D968C91928D9F5F9F73928F02
:1002E00090E008958FEF9FEF0895FC01918D828D2E
:1002F000981731F0828DE80FF11D858D90E00895FB
:100300008FEF9FEF08952FB7F89480914702909157
:100310004802A0914902B0914A022FBF8093530234
:1003200090935402A0935502B09356028BE492E04E
:10033000DCDF97FF26C02FB7F89480914702909199
:100340004802A0914902B0914A022FBF4091530246
:10035000509154026091550270915602841B950B86
:10036000A60BB70B40914F02509150026091510281
:100370007091520284179507A607B707B8F28FEF5E
:100380009FEF0895FC01918D228D892F90E0805C74
:100390009F4F821B91098F73992708958BE492E0F8
:1003A000F1DF21E0892B09F420E0822F0895FC0180
:1003B000A48DA80FB92FB11DA35ABF4F2C91848DC6
:1003C00090E001968F739927848FA689B7892C9323
:1003D000A089B1898C91837080648C93938D848D76
:1003E000981306C00288F389E02D80818F7D808379
:1003F0000895EF92FF920F931F93CF93DF93EC0139
:1004000081E0888F9B8D8C8D98131AC0E889F989BB
:10041000808185FF15C09FB7F894EE89FF896083BE
:10042000E889F98980818370806480839FBF81E03F
:1004300090E0DF91CF911F910F91FF90EF90089581
:10044000F62E0B8D10E00F5F1F4F0F731127E02E5C
:100450008C8D8E110BC00FB607FCFACFE889F98995
:10046000808185FFF5CFCE01A2DFF2CFEB8DEC0FBF
:10047000FD2FF11DE35AFF4FF0829FB7F8940B8FC9
:10048000EA89FB8980818062D0CFCF93DF93EC0132
:10049000888D8823B1F0AA89BB89E889F9898C9174
:1004A00085FD03C0808186FD0CC00FB607FCF7CF29
:1004B0008C9185FFF2CF808185FFEDCFCE0177DF74
:1004C000EACFDF91CF910895282F30E0F901EC5168
:1004D000FF4F9491F901EC55FE4F4491225A3E4F43
:1004E000F9012491222309F434C0992309F1915090
:1004F0009231F0F4E92FF0E08827EF57FD4F8F4F4E
:10050000F4C5B202B6029302AA02AE029802B90280
:10051000BF02C302C902CD02D102D702DB02980298
:10052000DF02E502E902809180008F7780938000EE
:10053000E22FF0E0EE0FFF1FE65DFE4FA591B491B4
:100540008FB7F894EC91611148C040954E234C93BD
:100550008FBF0895809180008F7DE8CF80918000CB
:10056000877FE4CF84B58F7784BDE2CF84B58F7D5C
:10057000FBCF8091B0008F778093B000D9CF80916E
:10058000B0008F7DF9CF809190008F77809390009D
:10059000CFCF809190008F7DF9CF80919000877FA1
:1005A000F5CF8091A0008F778093A000C1CF80917C
:1005B000A0008F7DF9CF8091A000877FF5CF80913B
:1005C00020018F7780932001B3CF809120018F7D10
:1005D000F9CF80912001877FF5CF4E2BB8CFAF9216
:1005E000BF92CF92DF92EF92FF920F931F93CF9320
:1005F000DF936B017A01EC01C25CDD4F28813CE0A6
:10060000389F8001399F100D1124A0907803B12CE0
:1006100027FF1FC0FB011182108288818F5F8883B2
:1006200088819801280F311D87FD3A95F6012A151A
:100630003B051CF488818C30BCF18081918104964B
:1006400080349C4908F471C0F60180819181049640
:100650006EC088819801280F311D87FD3A952A15B3
:100660003B05DCF68881A801480F511D87FD5A958E
:10067000FA01EE0FFF1FE40FF51FE851FD4F8081D7
:1006800086FFCBCF8881F801E80FF11D87FDFA9531
:10069000CF01EE0FFF1FE80FF91FE851FD4F8081DA
:1006A00060E08F7311DFB9CF808191812881A8012B
:1006B000420F511D27FD5A959A01FA01EE0FFF1FB7
:1006C000E20FF31FE851FD4F21813281820F931F0A
:1006D000F7019183808388819801280F311D87FD60
:1006E0003A95F901EE0FFF1FE20FF31FE851FD4F9E
:1006F000808186FF21C08881080F111D87FD1A9512
:10070000F801EE0FFF1FE00FF11FE851FD4F808150
:1007100061E08F73DF91CF911F910F91FF90EF9068
:10072000DF90CF90BF90AF90CFCE80E49CE9F701EF
:10073000918380838FEF8883DF91CF911F910F91F9
:10074000FF90EF90DF90CF90BF90AF900895FC01A5
:1007500001900020E9F73197AF01481B590BBC010C
:100760008BE492E072CD8F929F92AF92BF92CF9224
:10077000DF92EF92FF920F931F93CF93DF93CDB74A
:10078000DEB7A1970FB6F894DEBF0FBECDBF6C01E8
:10079000990FEE08FF08F7FE43C06DE28BE492E08C
:1007A00028DE8C0122273327A9012C193D094E0987
:1007B0005F0919A2CE0181967C019AE0892E912CC5
:1007C000A12CB12CCA01B901A501940151D4605DDD
:1007D000F70162937F01211531054105510591F71C
:1007E00090E080E0309711F0CF01B1DF080F191FC2
:1007F00082E192E0ACDF800F911FA1960FB6F894D2
:10080000DEBF0FBECDBFDF91CF911F910F91FF9043
:10081000EF90DF90CF90BF90AF909F908F90089512
:10082000A701960119A28E010F5D1F4F8AE0C82E05
:10083000D12CE12CF12CCA01B901A701960118D4E1
:10084000605DF80162938F01211531054105510565
:1008500091F7309721F0CF017ADF8C01C9CF10E0FA
:1008600000E0C6CFCF92DF92EF92FF92CF934BDDA5
:10087000FC0197FDAEC08D32910539F0C0970A9703
:1008800020F08BE492E01DDDF2CFC12CD12C76015B
:10089000C0E0E130F105D1F0ED32F10509F497C087
:1008A000CF01C0970A9790F4AAE0B0E0A7019601A3
:1008B000D5D36F01FF0FEE08FF08C60ED71EE81E46
:1008C000F91E80E3C81AD108E108F1088BE492E030
:1008D000F8DC19DDFC01C0970A97D8F2E130F10588
:1008E000C1F2CC2341F0F094E094D094C094C11CA8
:1008F000D11CE11CF11CD0923D02C0923C020D2C97
:10090000000CEE08FF08A7019601265A3F4F4F4FF3
:100910005F4FA8EEB3E0A2D324EB30E040E050E01C
:1009200081D328513C4F4F4F5F4F30933B02209370
:100930003A0285E192E00BDF80913C0290913D020A
:1009400012DF85E292E003DF80913A0290913B0250
:100950000ADFE0917903E033A0F520913A0230916B
:100960003B0240917A0388E890E0841B910947FD9F
:100970009395880F991F880F991F2817390784F0BE
:1009800040917B0388E592E0841B910947FD939594
:10099000880F991F880F991F281739070CF4C90170
:1009A0000297880F991F4FB7F8942E2F30E0F90166
:1009B000EE0FFF1FE20FF31FE851FD4F928381837B
:1009C0004FBFCF91FF90EF90DF90CF900895C1E09F
:1009D0007DCFC12CD12C76018ECFE0DC811142DF9E
:1009E00080E090E0892B49F080E090E0892B29F0AD
:1009F0000E94000081110E94000080E090E0892B9D
:100A000049F080E090E0892B29F00E9400008111DC
:100A10000E94000080E090E0892B49F080E090E0A7
:100A2000892B29F00E94000081110C940000089588
:100A30001F920F920FB60F9211242F933F938F9313
:100A40009F93AF93BF938091470290914802A091EA
:100A50004902B0914A023091460223E0230F2D371C
:100A600058F50196A11DB11D2093460280934702BF
:100A700090934802A0934902B0934A0280914202A7
:100A800090914302A0914402B09145020196A11DAC
:100A9000B11D8093420290934302A0934402B0930D
:100AA0004502BF91AF919F918F913F912F910F90F0
:100AB0000FBE0F901F90189526E8230F0296A11DD8
:100AC000B11DD2CF1F920F920FB60F9211240BB609
:100AD0000F922F933F934F935F936F937F938F93D7
:100AE0009F93AF93BF93EF93FF938BE492E05FDC10
:100AF000FF91EF91BF91AF919F918F917F916F91F6
:100B00005F914F913F912F910F900BBE0F900FBEB1
:100B10000F901F9018951F920F920FB60F921124ED
:100B20000BB60F922F938F939F93EF93FF93E091C8
:100B30005B02F0915C028081E0916102F0916202BF
:100B400082FD1DC09081809164028F5F8F73209120
:100B50006502821741F0E0916402F0E0E55BFD4F31
:100B6000958F80936402FF91EF919F918F912F91C8
:100B70000F900BBE0F900FBE0F901F9018958081A5
:100B8000F2CF1F920F920FB60F9211240BB60F9255
:100B90002F933F934F935F936F937F938F939F9385
:100BA000AF93BF93EF93FF9348E251E064E271E0AB
:100BB00090E080E014DDFF91EF91BF91AF919F91A4
:100BC0008F917F916F915F914F913F912F910F90F6
:100BD0000BBE0F900FBE0F901F9018951F920F9293
:100BE0000FB60F9211240BB60F922F933F934F9392
:100BF0005F936F937F938F939F93AF93BF93EF9385
:100C0000FF9348EA50E064EA70E083E090E0E7DCBC
:100C1000FF91EF91BF91AF919F918F917F916F91D4
:100C20005F914F913F912F910F900BBE0F900FBE90
:100C30000F901F9018951F920F920FB60F921124CC
:100C40000BB60F922F933F934F935F936F937F93C6
:100C50008F939F93AF93BF93EF93FF9348E950E037
:100C600064E970E082E090E0BADCFF91EF91BF911F
:100C7000AF919F918F917F916F915F914F913F9134
:100C80002F910F900BBE0F900FBE0F901F901895D5
:100C90001F920F920FB60F9211240BB60F922F9343
:100CA0003F934F935F936F937F938F939F93AF93F4
:100CB000BF93EF93FF9348E850E064E870E081E071
:100CC00090E08DDCFF91EF91BF91AF919F918F915B
:100CD0007F916F915F914F913F912F910F900BBE3C
:100CE0000F900FBE0F901F90189510924E02109209
:100CF0004D0288EE93E0A0E0B0E080934F02909325
:100D00005002A0935102B093520284E092E090937B
:100D10004C0280934B0285EC90E0909358028093B4
:100D2000570284EC90E090935A028093590280EC31
:100D300090E090935C0280935B0281EC90E0909352
:100D40005E0280935D0282EC90E09093600280935B
:100D50005F0286EC90E090936202809361021092B1
:100D600064021092650210926602109267028091EE
:100D70007803803398F491E0980F909378038093F0
:100D8000790390E0FC01EE0FFF1FE80FF91FE85117
:100D9000FD4F88EB9BE09283818308958FEF8093D2
:100DA00079030895789484B5826084BD84B58160A8
:100DB00084BD85B5826085BD85B5816085BD809126
:100DC0006E00816080936E0010928100809181009E
:100DD0008260809381008091810081608093810096
:100DE000809180008160809380008091B100846058
:100DF0008093B1008091B00081608093B0008091B9
:100E00009100826080939100809191008160809335
:100E10009100809190008160809390008091A1006A
:100E200082608093A1008091A10081608093A100E5
:100E30008091A00081608093A00080912101826058
:100E40008093210180912101816080932101809113
:100E5000200181608093200180917A0084608093DA
:100E60007A0080917A00826080937A0080917A0083
:100E7000816080937A0080917A00806880937A0004
:100E80001092C10080917903803308F068C0EAEACB
:100E9000F1E02491E4E6F1E08491882399F090E078
:100EA000880F991FFC01EC5BFE4FA591B491FC01EA
:100EB000E65DFE4F859194918FB7F894EC91E22B0B
:100EC000EC938FBF80917903282F30E0F901EE0F6A
:100ED000FF1FE20FF31FE851FD4F9081907C966059
:100EE000908310927A0310927B032CE0622FF1D052
:100EF000829FB001112430E020E0AB01420F531F6C
:100F0000FA01EE0FFF1FE40FF51FE851FD4F90812E
:100F100096FD17C02F5F3F4F2C30310571F78130A0
:100F200009F054C01092800082E0809381001092FA
:100F3000850010928400B19A80916F008260809346
:100F40006F00E09179038E2F90E0FC01EE0FFF1F00
:100F5000E80FF91FE851FD4F808180648083E091A4
:100F60005B02F0915C0282E08083E0915702F09195
:100F700058021082E0915902F0915A028FEC80835E
:100F800010926302E0915F02F091600286E080833C
:100F9000E0915D02F0915E02808180618083E0914A
:100FA0005D02F0915E02808188608083E0915D0245
:100FB000F0915E02808180688083E0915D02F09113
:100FC0005E0280818F7D808308DDFECF823061F4F8
:100FD00010929000809391001092950010929400CE
:100FE00088BB80937100ADCF833069F41092A0006C
:100FF00082E08093A1001092A5001092A40089BB0A
:10100000809372009ECF81119CCF1092200182E0CC
:101010008093210110922501109224018ABB8093B4
:1010200073008FCF052E97FB16F400940FD057FD59
:1010300005D01ED007FC02D046F408C0509540955C
:10104000309521953F4F4F4F5F4F08959095809574
:10105000709561957F4F8F4F9F4F08952BD0A59F1F
:10106000900DB49F900DA49F800D911D11240895A3
:10107000A1E21A2EAA1BBB1BFD010DC0AA1FBB1F9C
:10108000EE1FFF1FA217B307E407F50720F0A21B0E
:10109000B30BE40BF50B661F771F881F991F1A947B
:1010A00069F760957095809590959B01AC01BD01A5
:1010B000CF010895A29FB001B39FC001A39F700DFF
:1010C000811D1124911DB29F700D811D1124911D50
:1010D0000895991B79E004C0991F961708F0961B94
:1010E000881F7A95C9F780950895EE0FFF1F881F16
:0E10F0008BBF0790F691E02D1994F894FFCF76
:1010FE0000000000F901250152014502C201610103
:10110E0075010D0A00726561642076616C7565204B
:10111E0069733A2000436F6E76657274656420764B
:0A112E00616C75652069733A2000BA
:00000001FF
