:100000000C9425010C9446010C9446010C94460175
:100010000C9446010C9446010C9446010C94460144
:100020000C9446010C9446010C9446010C94460134
:100030000C9446010C9405020C9446010C94460164
:100040000C9446010C9446010C9446010C94460114
:100050000C9446010C9446010C9446010C94CA027F
:100060000C9446010C9446010C9446010C944601F4
:100070000C9446010C9446010C9446010C944601E4
:100080000C9446010C9446010C9446010C944601D4
:100090000C9446010C9446010C9446010C944601C4
:1000A0000C9446010C9446010C9446010C944601B4
:1000B0000C9446010C9446010C9446010C944601A4
:1000C0000C9446010C9446010C9446010C94460194
:1000D0000C9446010C9446010C9446010C94460184
:1000E0000C9446010C947B010C94A6010C947001B5
:1000F0000C9474010C9493010C94A7010C949D0131
:100100000C94AB010C9485010C94A1010C94660134
:100110000C948B010C948F010C9478010C94810148
:100120000C946C010C94990100002100240027001C
:100130002A002D00300033000101000004010701F6
:100140000A01000020002300260029002C002F00B7
:1001500032000001000003010601090100000A0B42
:1001600002090C0D0E080703040100000000000046
:10017000000000000000000000000000000000007F
:10018000000000000000000012111000000000003C
:10019000000000000000000000000000000000005F
:1001A000000001021020200808102040102040808C
:1001B000020102010804020101020408102040802B
:1001C00080402010080402018004020180402010B9
:1001D0000804020108040201010204081020408002
:1001E00001020408102040800000220025002800A1
:1001F0002B002E003100340002010000050108012F
:100200000B0105050505070508080808020202029A
:100210000A0A0808040404040101010101010101A2
:100220000303030303030303040707070C0C0C0C6D
:100230000C0C0C0C02020202060606060606060656
:100240000B0B0B0B0B0B0B0B020011241FBECFEF84
:10025000D1E2DEBFCDBF00E00CBF13E0A0E0B2E012
:10026000ECE3F2E100E00BBF02C007900D92A23474
:10027000B107D9F723E0A2E4B3E001C01D92AB3689
:10028000B207E1F70E9414030C941C090C940000BF
:100290008150823108F05AC0E82FF0E08827EC5AEC
:1002A000FE4F8F4F0C94EA087401780166016C01CF
:1002B0007001A6017B01810185018B018F019301F2
:1002C00099019D01A601A101A701AB0180918000C8
:1002D0008F77809380000895809180008F7DF9CF83
:1002E00080918000877FF5CF84B58F7784BD089596
:1002F00084B58F7DFBCF8091B0008F778093B00065
:1003000008958091B0008F7DF9CF809190008F7714
:10031000809390000895809190008F7DF9CF809117
:100320009000877FF5CF8091A0008F778093A00009
:1003300008958091A0008F7DF9CF8091A000877FE4
:10034000F5CF809120018F778093200108958091CF
:1003500020018F7DF9CF80912001877FF5CFCF934A
:10036000DF9390E0FC01EE55FE4F24918E5F9D4F90
:10037000FC0184918823D1F090E0880F991FFC0143
:10038000E85DFE4FA591B491FC01E851FE4FC59187
:10039000D49161110EC09FB7F8948C91E22FE09533
:1003A0008E238C932881E223E8839FBFDF91CF9136
:1003B00008958FB7F894EC91E22BEC938FBFF6CFB2
:1003C0003FB7F8948091470390914803A091490367
:1003D000B0914A0326B5A89B05C02F3F19F001969E
:1003E000A11DB11D3FBFBA2FA92F982F8827BC018F
:1003F000CD01620F711D811D911D42E0660F771FB7
:10040000881F991F4A95D1F708951F920F920FB632
:100410000F9211240BB60F922F933F934F935F933C
:100420006F937F938F939F93AF93BF93CF93DF93FC
:10043000EF93FF9380915F0390916003A09161031C
:10044000B0916203892B8A2B8B2BF1F190914E0393
:10045000E0914F03F0915003808189278083809140
:100460005F0390916003A0916103B091620318163D
:1004700019061A061B069CF480915F039091600395
:10048000A0916103B09162030197A109B109809322
:100490005F0390936003A0936103B0936203FF91A5
:1004A000EF91DF91CF91BF91AF919F918F917F910C
:1004B0006F915F914F913F912F910F900BBE0F90D5
:1004C0000FBE0F901F90189520910002E8E4F2E013
:1004D000E4918FEF80930002E23009F43EC048F5CA
:1004E000EE2309F431C0E13009F431C030E0F90104
:1004F000E45AFE4F8491F901EE55FE4FD491F90173
:10050000EE5FFD4FC491CC2309F4C9CF81110E9445
:100510004801EC2FF0E0EE0FFF1FE851FE4FA591D0
:10052000B4918FB7F894EC91D095DE23DC938FBF14
:10053000B6CFE43049F110F1E530C1F68091730097
:100540008D7F80937300D2CF10926E00CFCF8091B9
:100550006F008D7F80936F00C9CF809170008D7F79
:100560008093700081E08093B0008091B100887F1B
:1005700084608093B1001092B300B8CF8091710075
:100580008D7F80937100B2CF809172008D7F8093B8
:100590007200ACCF1F920F920FB60F9211242F93BF
:1005A0003F938F939F93AF93BF9380914303909119
:1005B0004403A0914503B09146033091420323E0E8
:1005C000230F2D3758F50196A11DB11D209342032D
:1005D0008093430390934403A0934503B093460351
:1005E0008091470390914803A0914903B0914A0339
:1005F0000196A11DB11D8093470390934803A093DA
:100600004903B0934A03BF91AF919F918F913F915E
:100610002F910F900FBE0F901F90189526E8230F73
:100620000296A11DB11DD2CFCF93DF93CDB7DEB718
:100630002D970FB6F894DEBF0FBECDBF789484B56A
:10064000826084BD84B5816084BD85B5826085BDCE
:1006500085B5816085BD80916E00816080936E005C
:10066000109281008091810082608093810080914E
:1006700081008160809381008091800081608093FF
:1006800080008091B10084608093B1008091B000BF
:1006900081608093B000809191008260809391008E
:1006A00080919100816080939100809190008160A1
:1006B000809390008091A10082608093A10080913E
:1006C000A10081608093A1008091A000816080934F
:1006D000A0008091210182608093210180912101FD
:1006E00081608093210180912001816080932001AD
:1006F00080917A00846080937A0080917A00826091
:1007000080937A0080917A00816080937A00809152
:100710007A00806880937A001092C10060E08AE0DD
:100720000E94AF0160E08EE30E94AF01E6E6F1E0D7
:100730008491ECEAF1E024912983ECE0F2E0149159
:10074000112309F4B7C381110E944801E12FF0E0A1
:10075000EE0FFF1FEE5BFE4FA591B491EC918981E6
:100760008E2309F4A7C3E1E0F2E0FA83E98381EA8A
:1007700092E09C878B872AEA222E21E0322EE981A3
:10078000FA81E15AF24009F495C380917B008860B8
:1007900080937B0080E480937C0080917A00806469
:1007A00080937A0080917A0086FDFCCF809178005A
:1007B00060917900762F682F77FF02C061507E4FDD
:1007C000672F770F770B6595072E000C880B990B19
:1007D0000E949C076B017C01EB85FC856191719106
:1007E000FC87EB8777FFF4C08CE09EEF0E949508B2
:1007F000072E000C880B990B0E949C0720E030E02C
:1008000040EC5FE30E9400080E9464078B012B010B
:10081000770F66087708E981FA8161917191FA830F
:10082000E983072E000C880B990B0E949C07A701F7
:1008300096010E9400080E9464076B837C838D836D
:100840009E8380910002883009F0C7C0E8E4F2E09E
:10085000F491FD87F7FD04C261E088E00E94AF01DA
:10086000FD85FF2321F02D85223009F016C28B81F2
:100870009C814C01B12CA12C60E072E18AE790E0F0
:10088000A50194010E94CB082F83388749875A8796
:1008900069017A0191E0C91AD108E108F108EFEF86
:1008A000CE16D104E104F10409F00CF4BCC160E4FB
:1008B00072E48FE090E0A50194010E94CB086901E9
:1008C0007A01F1E0CF1AD108E108F1082D85223034
:1008D00009F05DC18FEFC816D104E104F10409F0FD
:1008E0000CF4F0C260E970ED83E090E0A5019401A2
:1008F0000E94CB0869017A0191E0C91AD108E10888
:10090000F10883E0EFEFCE16D104E104F10409F021
:100910000CF457C068E478EE81E090E0A501940102
:100920000E94CB0869017A0181E0C81AD108E10868
:10093000F10884E09FEFC916D104E104F10409F045
:100940000CF43FC064E274EF80E090E0A5019401F4
:100950000E94CB0869017A01E1E0CE1AD108E108D2
:10096000F10885E09FEFC916D104E104F10449F1D3
:1009700040F162E17AE780E090E0A50194010E94F5
:10098000CB0869017A01E1E0CE1AD108E108F1084B
:1009900086E0FFEFCF16D104E104F10491F088F076
:1009A000CF80D884E984FA849AE0F594E794D794C8
:1009B000C7949A95D1F7F1E0CF1AD108E108F10870
:1009C00087E09091B100987F892B8093B10033C16B
:1009D00084EF91E00E94950819CF8F3F09F040C144
:1009E00088E080930002E8E4F2E0F491FD878F2F25
:1009F000FF3F09F435C1F23009F469C060F4FF2308
:100A000081F1F13009F445C087FD2AC161E088E039
:100A10000E94AF0128CF2D85243009F49AC008F434
:100A200078C0253089F71092200110922101809121
:100A30002101886080932101809121018160809350
:100A40002101EAE0F2E08491E82FF0E0EE0FFF1FD1
:100A5000E851FE4F85919491F101849180934B036D
:100A6000FBCE14BC15BC84B5826084BD85B58160A5
:100A700085BDEAE0F2E08491E82FF0E0EE0FFF1F81
:100A8000E851FE4F85919491F10184918093520336
:100A9000E3CE1092800010928100809181008860E6
:100AA0008093810080918100816080938100EAE0E1
:100AB000F2E08491E82FF0E0EE0FFF1FE851FE4FC7
:100AC00085919491F101849180935103C5CE109248
:100AD000B0001092B1008091B00082608093B000AD
:100AE0008091B10081608093B100EAE0F2E08491EE
:100AF000E82FF0E0EE0FFF1FE851FE4F8591949133
:100B00009093500380934F03F101849180934E039F
:100B1000A3CE109290001092910080919100886075
:100B20008093910080919100816080939100EAE030
:100B3000F2E08491E82FF0E0EE0FFF1FE851FE4F46
:100B400085919491F101849180934D03F3E0FD87A9
:100B500083CE1092A0001092A1008091A100886025
:100B60008093A1008091A10081608093A100EAE0C0
:100B7000F2E08491E82FF0E0EE0FFF1FE851FE4F06
:100B800085919491F101849180934C0365CEFFEFA0
:100B9000CF16D104E104F10409F00CF47CC068E440
:100BA00078EE81E090E0A50194010E94CB086901F4
:100BB0007A0181E0C81AD108E108F1089D8584E036
:100BC0009111D0CE83E02FEFC216D104E104F104DD
:100BD00071F16CF162E17AE780E090E0A5019401A7
:100BE0000E94CB0869017A01F1E0CF1AD108E1082F
:100BF000F10884E02FEFC216D104E104F104B9F04A
:100C0000B0F0CF80D884E984FA848AE0F594E79440
:100C1000D794C7948A95D1F721E0C21AD108E10888
:100C2000F10885E004C081E09D859111CACE95B59B
:100C3000987F892B85BD2FEF3FEFA9014114510407
:100C40006104710409F066C09D85923009F405C104
:100C50000CF0DAC0992309F4DFC0913009F4EBC03D
:100C6000C301B2010E949C0726E636E646EA5FE32E
:100C70000E9400080E9464076B01770FEE08FF08CE
:100C80000E94E0014B015C01C114D104E104F104B4
:100C900009F004C174CD82E0C7CFEB81FC814F0124
:100CA000B12CA12C60E072E18AE790E0A5019F01E0
:100CB0000E94CB0869017A01F1E0CF1AD108E1085E
:100CC000F10891E0C114D10421E0E206F10484F0BE
:100CD00068E478EE81E090E0A50194010E94CB08E1
:100CE00069017A0181E0C81AD108E108F10893E0AE
:100CF000ED85E130E9F480918100887F892B809334
:100D000081002FEF3FEFA9014114510461047104E8
:100D100009F491C02B813C81220F331FD8010E941E
:100D2000F20828EE33E040E050E00E94A9088CCFA2
:100D3000FD85F33001F580919100887F892B8093A8
:100D400091002FEF3FEFA901411451046104710498
:100D500009F7D0929900C092980020935B033093DA
:100D60005C0340935D0350935E0380917100826049
:100D70008093710075CF2D85243009F58091A100F5
:100D8000887F892B8093A1002FEF3FEFA9014114A9
:100D900051046104710409F0BDCFD092A900C09242
:100DA000A80020935703309358034093590350935E
:100DB0005A038091720082608093720051CF8D85BA
:100DC000853009F038CF80912101887F892B80936D
:100DD00021012FEF3FEFA901411451046104710477
:100DE00009F098CFD0922901C09228012093530393
:100DF00030935403409355035093560380917300EE
:100E00008260809373002CCFED85E43031F20CF4D6
:100E1000A0CFE53039F324CFC7BC209367033093CC
:100E200068034093690350936A0380916E00826067
:100E300080936E0015CFD0928900C09288002093D5
:100E4000630330936403409365035093660380917A
:100E50006F00826080936F0003CFC092B300209335
:100E60005F0330936003409361035093620380916A
:100E70007000826080937000F3CEF1E0CF1AD10849
:100E8000E108F10828EE820E23E0921EA11CB11C9D
:100E9000C114D104E104F10409F4F6CE0E94E0018A
:100EA000681979098A099B09683E73408105910593
:100EB00020F7EACE80E090E0892B09F437CC0E943D
:100EC000000034CC82E07DCD0E946B076894B111A4
:100ED0000C94FA0708950E94DF0788F09F5798F056
:100EE000B92F9927B751B0F0E1F0660F771F881F2F
:100EF000991F1AF0BA95C9F714C0B13091F00E9449
:100F0000F907B1E008950C94F907672F782F882727
:100F1000B85F39F0B93FCCF3869577956795B3956F
:100F2000D9F73EF490958095709561957F4F8F4FDE
:100F30009F4F0895E89409C097FB3EF490958095E3
:100F4000709561957F4F8F4F9F4F9923A9F0F92F8F
:100F500096E9BB279395F695879577956795B7950D
:100F6000F111F8CFFAF4BB0F11F460FF1BC06F5FF3
:100F70007F4F8F4F9F4F16C0882311F096E911C005
:100F8000772321F09EE8872F762F05C0662371F026
:100F900096E8862F70E060E02AF09A95660F771F3A
:100FA000881FDAF7880F9695879597F9089557FD6A
:100FB0009058440F551F59F05F3F71F04795880FC7
:100FC00097FB991F61F09F3F79F08795089512165E
:100FD00013061406551FF2CF4695F1DF08C016160A
:100FE00017061806991FF1CF8695710561050894BB
:100FF0000895E894BB2766277727CB0197F90895D2
:101000000E9413080C9484080E94760838F00E940D
:101010007D0820F0952311F00C946D080C94730852
:1010200011240C94FA070E94D70770F3959FC1F31F
:10103000950F50E0551F629FF001729FBB27F00D86
:10104000B11D639FAA27F00DB11DAA1F649F6627DB
:10105000B00DA11D661F829F2227B00DA11D621F2A
:10106000739FB00DA11D621F839FA00D611D221FE4
:10107000749F3327A00D611D231F849F600D211DC8
:10108000822F762F6A2F11249F5750409AF0F1F04B
:1010900088234AF0EE0FFF1FBB1F661F771F881FB4
:1010A00091505040A9F79E3F510580F00C946D0877
:1010B0000C94FA075F3FE4F3983ED4F38695779556
:1010C0006795B795F795E7959F5FC1F7FE2B880F5A
:1010D000911D9695879597F9089597F99F6780E8F0
:1010E00070E060E008959FEF80EC089500240A947A
:1010F0001616170618060906089500240A941216F3
:101100001306140605060895092E0394000C11F425
:10111000882352F0BB0F40F4BF2B11F460FF04C0D2
:101120006F5F7F4F8F4F9F4F089597FB072E16F4E9
:10113000009407D077FD09D00E94F90807FC05D07C
:101140003EF4909581959F4F0895709561957F4FDE
:101150000895A1E21A2EAA1BBB1BFD010DC0AA1FF8
:10116000BB1FEE1FFF1FA217B307E407F50720F010
:10117000A21BB30BE40BF50B661F771F881F991F8B
:101180001A9469F760957095809590959B01AC01D4
:10119000BD01CF010895052E97FB1EF400940E9417
:1011A000E20857FD07D00E94A90807FC03D04EF4BF
:1011B0000C94E20850954095309521953F4F4F4F44
:1011C0005F4F089590958095709561957F4F8F4FF3
:1011D0009F4F0895EE0FFF1F881F8BBF0790F6915A
:1011E000E02D19940E940D09B7FF0895821B930BFF
:1011F0000895AA1BBB1B51E107C0AA1FBB1FA6175E
:10120000B70710F0A61BB70B881F991F5A95A9F7AF
:1012100080959095BC01CD010895A29FB001B39F28
:10122000C001A39F700D811D1124911DB29F700DEF
:0C123000811D1124911D0895F894FFCF3A
:10123C00FF93029302BA0210031003BA0293024BFB
:10124C00020B020B024B02930293024B024B02065F
:10125C000188010601880193029302BA021003105F
:10126C0003BA0293024B020B020B024B0293024B8A
:10127C00020B020B02060188010601880106014BD4
:10128C00024B0293020B024B029302BA0293020B23
:10129C00024B029302BA0293024B020B024B0288DE
:1012AC0001880188018801100393029302BA02108D
:1012BC00031003BA0293024B020B020B024B029374
:1012CC00024B020B020B0206018801060188010683
:1012DC0001040004000400040004000400040004E1
:1012EC0000040004000400040003000800020001D4
:1012FC0000010001000100040004000400040004CB
:10130C0000040004000400040004000400040003B2
:10131C0000080002000100010001000200020004AC
:10132C000004000400040004000800080004000489
:10133C00000400080008000400040004000400017C
:10134C00000100010001000200040004000400047C
:10135C000004000400040004000400040004000461
:10136C00000300080002000100010001000200025D
:02137C0000006F
:00000001FF
